{
	"contracts/superleagueversion.sol": {
		"SuperLigTeamSelector": {
			"abi": [
				{
					"inputs": [],
					"name": "getMyTeam",
					"outputs": [
						{
							"internalType": "string",
							"name": "",
							"type": "string"
						}
					],
					"stateMutability": "view",
					"type": "function"
				},
				{
					"inputs": [
						{
							"internalType": "address",
							"name": "",
							"type": "address"
						}
					],
					"name": "hasTeam",
					"outputs": [
						{
							"internalType": "bool",
							"name": "",
							"type": "bool"
						}
					],
					"stateMutability": "view",
					"type": "function"
				},
				{
					"inputs": [
						{
							"internalType": "address",
							"name": "",
							"type": "address"
						}
					],
					"name": "userTeam",
					"outputs": [
						{
							"internalType": "string",
							"name": "",
							"type": "string"
						}
					],
					"stateMutability": "view",
					"type": "function"
				},
				{
					"inputs": [],
					"name": "write",
					"outputs": [],
					"stateMutability": "nonpayable",
					"type": "function"
				}
			],
			"devdoc": {
				"kind": "dev",
				"methods": {},
				"version": 1
			},
			"evm": {
				"assembly": "    /* \"contracts/superleagueversion.sol\":0:930  contract SuperLigTeamSelector {... */\n  mstore(0x40, 0x80)\n    /* \"contracts/superleagueversion.sol\":37:393  string[] private teams = [... */\n  mload(0x40)\n  dup1\n  0x0240\n  add\n  0x40\n  mstore\n  dup1\n  mload(0x40)\n  dup1\n  0x40\n  add\n  0x40\n  mstore\n  dup1\n  0x0f\n  dup2\n  mstore\n  0x20\n  add\n  0x4164616e612044656d697273706f720000000000000000000000000000000000\n  dup2\n  mstore\n  pop\n  dup2\n  mstore\n  0x20\n  add\n  mload(0x40)\n  dup1\n  0x40\n  add\n  0x40\n  mstore\n  dup1\n  0x0a\n  dup2\n  mstore\n  0x20\n  add\n  0x416c616e796173706f7200000000000000000000000000000000000000000000\n  dup2\n  mstore\n  pop\n  dup2\n  mstore\n  0x20\n  add\n  mload(0x40)\n  dup1\n  0x40\n  add\n  0x40\n  mstore\n  dup1\n  0x0b\n  dup2\n  mstore\n  0x20\n  add\n  0x416e74616c796173706f72000000000000000000000000000000000000000000\n  dup2\n  mstore\n  pop\n  dup2\n  mstore\n  0x20\n  add\n  mload(0x40)\n  dup1\n  0x40\n  add\n  0x40\n  mstore\n  dup1\n  0x08\n  dup2\n  mstore\n  0x20\n  add\n  0x426573696b746173000000000000000000000000000000000000000000000000\n  dup2\n  mstore\n  pop\n  dup2\n  mstore\n  0x20\n  add\n  mload(0x40)\n  dup1\n  0x40\n  add\n  0x40\n  mstore\n  dup1\n  0x10\n  dup2\n  mstore\n  0x20\n  add\n  0x4661746968204b61726167756d72756b00000000000000000000000000000000\n  dup2\n  mstore\n  pop\n  dup2\n  mstore\n  0x20\n  add\n  mload(0x40)\n  dup1\n  0x40\n  add\n  0x40\n  mstore\n  dup1\n  0x0a\n  dup2\n  mstore\n  0x20\n  add\n  0x46656e6572626168636500000000000000000000000000000000000000000000\n  dup2\n  mstore\n  pop\n  dup2\n  mstore\n  0x20\n  add\n  mload(0x40)\n  dup1\n  0x40\n  add\n  0x40\n  mstore\n  dup1\n  0x0b\n  dup2\n  mstore\n  0x20\n  add\n  0x47616c6174617361726179000000000000000000000000000000000000000000\n  dup2\n  mstore\n  pop\n  dup2\n  mstore\n  0x20\n  add\n  mload(0x40)\n  dup1\n  0x40\n  add\n  0x40\n  mstore\n  dup1\n  0x0c\n  dup2\n  mstore\n  0x20\n  add\n  0x47617a69616e74657020464b0000000000000000000000000000000000000000\n  dup2\n  mstore\n  pop\n  dup2\n  mstore\n  0x20\n  add\n  mload(0x40)\n  dup1\n  0x40\n  add\n  0x40\n  mstore\n  dup1\n  0x0b\n  dup2\n  mstore\n  0x20\n  add\n  0x4769726573756e73706f72000000000000000000000000000000000000000000\n  dup2\n  mstore\n  pop\n  dup2\n  mstore\n  0x20\n  add\n  mload(0x40)\n  dup1\n  0x40\n  add\n  0x40\n  mstore\n  dup1\n  0x09\n  dup2\n  mstore\n  0x20\n  add\n  0x486174617973706f720000000000000000000000000000000000000000000000\n  dup2\n  mstore\n  pop\n  dup2\n  mstore\n  0x20\n  add\n  mload(0x40)\n  dup1\n  0x40\n  add\n  0x40\n  mstore\n  dup1\n  0x13\n  dup2\n  mstore\n  0x20\n  add\n  0x497374616e62756c20426173616b736568697200000000000000000000000000\n  dup2\n  mstore\n  pop\n  dup2\n  mstore\n  0x20\n  add\n  mload(0x40)\n  dup1\n  0x40\n  add\n  0x40\n  mstore\n  dup1\n  0x0c\n  dup2\n  mstore\n  0x20\n  add\n  0x497374616e62756c73706f720000000000000000000000000000000000000000\n  dup2\n  mstore\n  pop\n  dup2\n  mstore\n  0x20\n  add\n  mload(0x40)\n  dup1\n  0x40\n  add\n  0x40\n  mstore\n  dup1\n  0x09\n  dup2\n  mstore\n  0x20\n  add\n  0x4b6173696d706173610000000000000000000000000000000000000000000000\n  dup2\n  mstore\n  pop\n  dup2\n  mstore\n  0x20\n  add\n  mload(0x40)\n  dup1\n  0x40\n  add\n  0x40\n  mstore\n  dup1\n  0x0b\n  dup2\n  mstore\n  0x20\n  add\n  0x4b61797365726973706f72000000000000000000000000000000000000000000\n  dup2\n  mstore\n  pop\n  dup2\n  mstore\n  0x20\n  add\n  mload(0x40)\n  dup1\n  0x40\n  add\n  0x40\n  mstore\n  dup1\n  0x09\n  dup2\n  mstore\n  0x20\n  add\n  0x4b6f6e796173706f720000000000000000000000000000000000000000000000\n  dup2\n  mstore\n  pop\n  dup2\n  mstore\n  0x20\n  add\n  mload(0x40)\n  dup1\n  0x40\n  add\n  0x40\n  mstore\n  dup1\n  0x0e\n  dup2\n  mstore\n  0x20\n  add\n  0x4d4b4520416e6b61726167756375000000000000000000000000000000000000\n  dup2\n  mstore\n  pop\n  dup2\n  mstore\n  0x20\n  add\n  mload(0x40)\n  dup1\n  0x40\n  add\n  0x40\n  mstore\n  dup1\n  0x09\n  dup2\n  mstore\n  0x20\n  add\n  0x536976617373706f720000000000000000000000000000000000000000000000\n  dup2\n  mstore\n  pop\n  dup2\n  mstore\n  0x20\n  add\n  mload(0x40)\n  dup1\n  0x40\n  add\n  0x40\n  mstore\n  dup1\n  0x0b\n  dup2\n  mstore\n  0x20\n  add\n  0x547261627a6f6e73706f72000000000000000000000000000000000000000000\n  dup2\n  mstore\n  pop\n  dup2\n  mstore\n  pop\n  0x00\n  swap1\n  0x12\n  tag_1\n  swap3\n  swap2\n  swap1\n  tag_2\n  jump\t// in\ntag_1:\n  pop\n    /* \"contracts/superleagueversion.sol\":0:930  contract SuperLigTeamSelector {... */\n  callvalue\n  dup1\n  iszero\n  tag_3\n  jumpi\n  revert(0x00, 0x00)\ntag_3:\n  pop\n  jump(tag_4)\ntag_2:\n  dup3\n  dup1\n  sload\n  dup3\n  dup3\n  sstore\n  swap1\n  0x00\n  mstore\n  keccak256(0x00, 0x20)\n  swap1\n  dup2\n  add\n  swap3\n  dup3\n  iszero\n  tag_5\n  jumpi\n  swap2\n  0x20\n  mul\n  dup3\n  add\ntag_6:\n  dup3\n  dup2\n  gt\n  iszero\n  tag_7\n  jumpi\n  dup3\n  mload\n  dup3\n  swap1\n  dup2\n  tag_8\n  swap2\n  swap1\n  tag_9\n  jump\t// in\ntag_8:\n  pop\n  swap2\n  0x20\n  add\n  swap2\n  swap1\n  0x01\n  add\n  swap1\n  jump(tag_6)\ntag_7:\ntag_5:\n  pop\n  swap1\n  pop\n  tag_10\n  swap2\n  swap1\n  tag_11\n  jump\t// in\ntag_10:\n  pop\n  swap1\n  jump\t// out\ntag_11:\ntag_12:\n  dup1\n  dup3\n  gt\n  iszero\n  tag_13\n  jumpi\n  0x00\n  dup2\n  dup2\n  tag_14\n  swap2\n  swap1\n  tag_15\n  jump\t// in\ntag_14:\n  pop\n  0x01\n  add\n  jump(tag_12)\ntag_13:\n  pop\n  swap1\n  jump\t// out\ntag_15:\n  pop\n  dup1\n  sload\n  tag_16\n  swap1\n  tag_17\n  jump\t// in\ntag_16:\n  0x00\n  dup3\n  sstore\n  dup1\n  0x1f\n  lt\n  tag_19\n  jumpi\n  pop\n  jump(tag_18)\ntag_19:\n  0x1f\n  add\n  0x20\n  swap1\n  div\n  swap1\n  0x00\n  mstore\n  keccak256(0x00, 0x20)\n  swap1\n  dup2\n  add\n  swap1\n  tag_20\n  swap2\n  swap1\n  tag_21\n  jump\t// in\ntag_20:\ntag_18:\n  pop\n  jump\t// out\ntag_21:\ntag_22:\n  dup1\n  dup3\n  gt\n  iszero\n  tag_23\n  jumpi\n  0x00\n  dup2\n  0x00\n  swap1\n  sstore\n  pop\n  0x01\n  add\n  jump(tag_22)\ntag_23:\n  pop\n  swap1\n  jump\t// out\n    /* \"#utility.yul\":7:106   */\ntag_24:\n    /* \"#utility.yul\":59:65   */\n  0x00\n    /* \"#utility.yul\":93:98   */\n  dup2\n    /* \"#utility.yul\":87:99   */\n  mload\n    /* \"#utility.yul\":77:99   */\n  swap1\n  pop\n    /* \"#utility.yul\":7:106   */\n  swap2\n  swap1\n  pop\n  jump\t// out\n    /* \"#utility.yul\":112:292   */\ntag_25:\n    /* \"#utility.yul\":160:237   */\n  0x4e487b7100000000000000000000000000000000000000000000000000000000\n    /* \"#utility.yul\":157:158   */\n  0x00\n    /* \"#utility.yul\":150:238   */\n  mstore\n    /* \"#utility.yul\":257:261   */\n  0x41\n    /* \"#utility.yul\":254:255   */\n  0x04\n    /* \"#utility.yul\":247:262   */\n  mstore\n    /* \"#utility.yul\":281:285   */\n  0x24\n    /* \"#utility.yul\":278:279   */\n  0x00\n    /* \"#utility.yul\":271:286   */\n  revert\n    /* \"#utility.yul\":298:478   */\ntag_26:\n    /* \"#utility.yul\":346:423   */\n  0x4e487b7100000000000000000000000000000000000000000000000000000000\n    /* \"#utility.yul\":343:344   */\n  0x00\n    /* \"#utility.yul\":336:424   */\n  mstore\n    /* \"#utility.yul\":443:447   */\n  0x22\n    /* \"#utility.yul\":440:441   */\n  0x04\n    /* \"#utility.yul\":433:448   */\n  mstore\n    /* \"#utility.yul\":467:471   */\n  0x24\n    /* \"#utility.yul\":464:465   */\n  0x00\n    /* \"#utility.yul\":457:472   */\n  revert\n    /* \"#utility.yul\":484:804   */\ntag_17:\n    /* \"#utility.yul\":528:534   */\n  0x00\n    /* \"#utility.yul\":565:566   */\n  0x02\n    /* \"#utility.yul\":559:563   */\n  dup3\n    /* \"#utility.yul\":555:567   */\n  div\n    /* \"#utility.yul\":545:567   */\n  swap1\n  pop\n    /* \"#utility.yul\":612:613   */\n  0x01\n    /* \"#utility.yul\":606:610   */\n  dup3\n    /* \"#utility.yul\":602:614   */\n  and\n    /* \"#utility.yul\":633:651   */\n  dup1\n    /* \"#utility.yul\":623:704   */\n  tag_48\n  jumpi\n    /* \"#utility.yul\":689:693   */\n  0x7f\n    /* \"#utility.yul\":681:687   */\n  dup3\n    /* \"#utility.yul\":677:694   */\n  and\n    /* \"#utility.yul\":667:694   */\n  swap2\n  pop\n    /* \"#utility.yul\":623:704   */\ntag_48:\n    /* \"#utility.yul\":751:753   */\n  0x20\n    /* \"#utility.yul\":743:749   */\n  dup3\n    /* \"#utility.yul\":740:754   */\n  lt\n    /* \"#utility.yul\":720:738   */\n  dup2\n    /* \"#utility.yul\":717:755   */\n  sub\n    /* \"#utility.yul\":714:798   */\n  tag_49\n  jumpi\n    /* \"#utility.yul\":770:788   */\n  tag_50\n  tag_26\n  jump\t// in\ntag_50:\n    /* \"#utility.yul\":714:798   */\ntag_49:\n    /* \"#utility.yul\":535:804   */\n  pop\n    /* \"#utility.yul\":484:804   */\n  swap2\n  swap1\n  pop\n  jump\t// out\n    /* \"#utility.yul\":810:951   */\ntag_27:\n    /* \"#utility.yul\":859:863   */\n  0x00\n    /* \"#utility.yul\":882:885   */\n  dup2\n    /* \"#utility.yul\":874:885   */\n  swap1\n  pop\n    /* \"#utility.yul\":905:908   */\n  dup2\n    /* \"#utility.yul\":902:903   */\n  0x00\n    /* \"#utility.yul\":895:909   */\n  mstore\n    /* \"#utility.yul\":939:943   */\n  0x20\n    /* \"#utility.yul\":936:937   */\n  0x00\n    /* \"#utility.yul\":926:944   */\n  keccak256\n    /* \"#utility.yul\":918:944   */\n  swap1\n  pop\n    /* \"#utility.yul\":810:951   */\n  swap2\n  swap1\n  pop\n  jump\t// out\n    /* \"#utility.yul\":957:1050   */\ntag_28:\n    /* \"#utility.yul\":994:1000   */\n  0x00\n    /* \"#utility.yul\":1041:1043   */\n  0x20\n    /* \"#utility.yul\":1036:1038   */\n  0x1f\n    /* \"#utility.yul\":1029:1034   */\n  dup4\n    /* \"#utility.yul\":1025:1039   */\n  add\n    /* \"#utility.yul\":1021:1044   */\n  div\n    /* \"#utility.yul\":1011:1044   */\n  swap1\n  pop\n    /* \"#utility.yul\":957:1050   */\n  swap2\n  swap1\n  pop\n  jump\t// out\n    /* \"#utility.yul\":1056:1163   */\ntag_29:\n    /* \"#utility.yul\":1100:1108   */\n  0x00\n    /* \"#utility.yul\":1150:1155   */\n  dup3\n    /* \"#utility.yul\":1144:1148   */\n  dup3\n    /* \"#utility.yul\":1140:1156   */\n  shl\n    /* \"#utility.yul\":1119:1156   */\n  swap1\n  pop\n    /* \"#utility.yul\":1056:1163   */\n  swap3\n  swap2\n  pop\n  pop\n  jump\t// out\n    /* \"#utility.yul\":1169:1562   */\ntag_30:\n    /* \"#utility.yul\":1238:1244   */\n  0x00\n    /* \"#utility.yul\":1288:1289   */\n  0x08\n    /* \"#utility.yul\":1276:1286   */\n  dup4\n    /* \"#utility.yul\":1272:1290   */\n  mul\n    /* \"#utility.yul\":1311:1408   */\n  tag_55\n    /* \"#utility.yul\":1341:1407   */\n  0xffffffffffffffffffffffffffffffffffffffffffffffffffffffffffffffff\n    /* \"#utility.yul\":1330:1339   */\n  dup3\n    /* \"#utility.yul\":1311:1408   */\n  tag_29\n  jump\t// in\ntag_55:\n    /* \"#utility.yul\":1429:1468   */\n  tag_56\n    /* \"#utility.yul\":1459:1467   */\n  dup7\n    /* \"#utility.yul\":1448:1457   */\n  dup4\n    /* \"#utility.yul\":1429:1468   */\n  tag_29\n  jump\t// in\ntag_56:\n    /* \"#utility.yul\":1417:1468   */\n  swap6\n  pop\n    /* \"#utility.yul\":1501:1505   */\n  dup1\n    /* \"#utility.yul\":1497:1506   */\n  not\n    /* \"#utility.yul\":1490:1495   */\n  dup5\n    /* \"#utility.yul\":1486:1507   */\n  and\n    /* \"#utility.yul\":1477:1507   */\n  swap4\n  pop\n    /* \"#utility.yul\":1550:1554   */\n  dup1\n    /* \"#utility.yul\":1540:1548   */\n  dup7\n    /* \"#utility.yul\":1536:1555   */\n  and\n    /* \"#utility.yul\":1529:1534   */\n  dup5\n    /* \"#utility.yul\":1526:1556   */\n  or\n    /* \"#utility.yul\":1516:1556   */\n  swap3\n  pop\n    /* \"#utility.yul\":1245:1562   */\n  pop\n  pop\n    /* \"#utility.yul\":1169:1562   */\n  swap4\n  swap3\n  pop\n  pop\n  pop\n  jump\t// out\n    /* \"#utility.yul\":1568:1645   */\ntag_31:\n    /* \"#utility.yul\":1605:1612   */\n  0x00\n    /* \"#utility.yul\":1634:1639   */\n  dup2\n    /* \"#utility.yul\":1623:1639   */\n  swap1\n  pop\n    /* \"#utility.yul\":1568:1645   */\n  swap2\n  swap1\n  pop\n  jump\t// out\n    /* \"#utility.yul\":1651:1711   */\ntag_32:\n    /* \"#utility.yul\":1679:1682   */\n  0x00\n    /* \"#utility.yul\":1700:1705   */\n  dup2\n    /* \"#utility.yul\":1693:1705   */\n  swap1\n  pop\n    /* \"#utility.yul\":1651:1711   */\n  swap2\n  swap1\n  pop\n  jump\t// out\n    /* \"#utility.yul\":1717:1859   */\ntag_33:\n    /* \"#utility.yul\":1767:1776   */\n  0x00\n    /* \"#utility.yul\":1800:1853   */\n  tag_60\n    /* \"#utility.yul\":1818:1852   */\n  tag_61\n    /* \"#utility.yul\":1827:1851   */\n  tag_62\n    /* \"#utility.yul\":1845:1850   */\n  dup5\n    /* \"#utility.yul\":1827:1851   */\n  tag_31\n  jump\t// in\ntag_62:\n    /* \"#utility.yul\":1818:1852   */\n  tag_32\n  jump\t// in\ntag_61:\n    /* \"#utility.yul\":1800:1853   */\n  tag_31\n  jump\t// in\ntag_60:\n    /* \"#utility.yul\":1787:1853   */\n  swap1\n  pop\n    /* \"#utility.yul\":1717:1859   */\n  swap2\n  swap1\n  pop\n  jump\t// out\n    /* \"#utility.yul\":1865:1940   */\ntag_34:\n    /* \"#utility.yul\":1908:1911   */\n  0x00\n    /* \"#utility.yul\":1929:1934   */\n  dup2\n    /* \"#utility.yul\":1922:1934   */\n  swap1\n  pop\n    /* \"#utility.yul\":1865:1940   */\n  swap2\n  swap1\n  pop\n  jump\t// out\n    /* \"#utility.yul\":1946:2215   */\ntag_35:\n    /* \"#utility.yul\":2056:2095   */\n  tag_65\n    /* \"#utility.yul\":2087:2094   */\n  dup4\n    /* \"#utility.yul\":2056:2095   */\n  tag_33\n  jump\t// in\ntag_65:\n    /* \"#utility.yul\":2117:2208   */\n  tag_66\n    /* \"#utility.yul\":2166:2207   */\n  tag_67\n    /* \"#utility.yul\":2190:2206   */\n  dup3\n    /* \"#utility.yul\":2166:2207   */\n  tag_34\n  jump\t// in\ntag_67:\n    /* \"#utility.yul\":2158:2164   */\n  dup5\n    /* \"#utility.yul\":2151:2155   */\n  dup5\n    /* \"#utility.yul\":2145:2156   */\n  sload\n    /* \"#utility.yul\":2117:2208   */\n  tag_30\n  jump\t// in\ntag_66:\n    /* \"#utility.yul\":2111:2115   */\n  dup3\n    /* \"#utility.yul\":2104:2209   */\n  sstore\n    /* \"#utility.yul\":2022:2215   */\n  pop\n    /* \"#utility.yul\":1946:2215   */\n  pop\n  pop\n  pop\n  jump\t// out\n    /* \"#utility.yul\":2221:2294   */\ntag_36:\n    /* \"#utility.yul\":2266:2269   */\n  0x00\n    /* \"#utility.yul\":2287:2288   */\n  0x00\n    /* \"#utility.yul\":2280:2288   */\n  swap1\n  pop\n    /* \"#utility.yul\":2221:2294   */\n  swap1\n  jump\t// out\n    /* \"#utility.yul\":2300:2489   */\ntag_37:\n    /* \"#utility.yul\":2377:2409   */\n  tag_70\n  tag_36\n  jump\t// in\ntag_70:\n    /* \"#utility.yul\":2418:2483   */\n  tag_71\n    /* \"#utility.yul\":2476:2482   */\n  dup2\n    /* \"#utility.yul\":2468:2474   */\n  dup5\n    /* \"#utility.yul\":2462:2466   */\n  dup5\n    /* \"#utility.yul\":2418:2483   */\n  tag_35\n  jump\t// in\ntag_71:\n    /* \"#utility.yul\":2353:2489   */\n  pop\n    /* \"#utility.yul\":2300:2489   */\n  pop\n  pop\n  jump\t// out\n    /* \"#utility.yul\":2495:2681   */\ntag_38:\n    /* \"#utility.yul\":2555:2675   */\ntag_73:\n    /* \"#utility.yul\":2572:2575   */\n  dup2\n    /* \"#utility.yul\":2565:2570   */\n  dup2\n    /* \"#utility.yul\":2562:2576   */\n  lt\n    /* \"#utility.yul\":2555:2675   */\n  iszero\n  tag_75\n  jumpi\n    /* \"#utility.yul\":2626:2665   */\n  tag_76\n    /* \"#utility.yul\":2663:2664   */\n  0x00\n    /* \"#utility.yul\":2656:2661   */\n  dup3\n    /* \"#utility.yul\":2626:2665   */\n  tag_37\n  jump\t// in\ntag_76:\n    /* \"#utility.yul\":2599:2600   */\n  0x01\n    /* \"#utility.yul\":2592:2597   */\n  dup2\n    /* \"#utility.yul\":2588:2601   */\n  add\n    /* \"#utility.yul\":2579:2601   */\n  swap1\n  pop\n    /* \"#utility.yul\":2555:2675   */\n  jump(tag_73)\ntag_75:\n    /* \"#utility.yul\":2495:2681   */\n  pop\n  pop\n  jump\t// out\n    /* \"#utility.yul\":2687:3230   */\ntag_39:\n    /* \"#utility.yul\":2788:2790   */\n  0x1f\n    /* \"#utility.yul\":2783:2786   */\n  dup3\n    /* \"#utility.yul\":2780:2791   */\n  gt\n    /* \"#utility.yul\":2777:3223   */\n  iszero\n  tag_78\n  jumpi\n    /* \"#utility.yul\":2822:2860   */\n  tag_79\n    /* \"#utility.yul\":2854:2859   */\n  dup2\n    /* \"#utility.yul\":2822:2860   */\n  tag_27\n  jump\t// in\ntag_79:\n    /* \"#utility.yul\":2906:2935   */\n  tag_80\n    /* \"#utility.yul\":2924:2934   */\n  dup5\n    /* \"#utility.yul\":2906:2935   */\n  tag_28\n  jump\t// in\ntag_80:\n    /* \"#utility.yul\":2896:2904   */\n  dup2\n    /* \"#utility.yul\":2892:2936   */\n  add\n    /* \"#utility.yul\":3089:3091   */\n  0x20\n    /* \"#utility.yul\":3077:3087   */\n  dup6\n    /* \"#utility.yul\":3074:3092   */\n  lt\n    /* \"#utility.yul\":3071:3120   */\n  iszero\n  tag_81\n  jumpi\n    /* \"#utility.yul\":3110:3118   */\n  dup2\n    /* \"#utility.yul\":3095:3118   */\n  swap1\n  pop\n    /* \"#utility.yul\":3071:3120   */\ntag_81:\n    /* \"#utility.yul\":3133:3213   */\n  tag_82\n    /* \"#utility.yul\":3189:3211   */\n  tag_83\n    /* \"#utility.yul\":3207:3210   */\n  dup6\n    /* \"#utility.yul\":3189:3211   */\n  tag_28\n  jump\t// in\ntag_83:\n    /* \"#utility.yul\":3179:3187   */\n  dup4\n    /* \"#utility.yul\":3175:3212   */\n  add\n    /* \"#utility.yul\":3162:3173   */\n  dup3\n    /* \"#utility.yul\":3133:3213   */\n  tag_38\n  jump\t// in\ntag_82:\n    /* \"#utility.yul\":2792:3223   */\n  pop\n  pop\n    /* \"#utility.yul\":2777:3223   */\ntag_78:\n    /* \"#utility.yul\":2687:3230   */\n  pop\n  pop\n  pop\n  jump\t// out\n    /* \"#utility.yul\":3236:3353   */\ntag_40:\n    /* \"#utility.yul\":3290:3298   */\n  0x00\n    /* \"#utility.yul\":3340:3345   */\n  dup3\n    /* \"#utility.yul\":3334:3338   */\n  dup3\n    /* \"#utility.yul\":3330:3346   */\n  shr\n    /* \"#utility.yul\":3309:3346   */\n  swap1\n  pop\n    /* \"#utility.yul\":3236:3353   */\n  swap3\n  swap2\n  pop\n  pop\n  jump\t// out\n    /* \"#utility.yul\":3359:3528   */\ntag_41:\n    /* \"#utility.yul\":3403:3409   */\n  0x00\n    /* \"#utility.yul\":3436:3487   */\n  tag_86\n    /* \"#utility.yul\":3484:3485   */\n  0x00\n    /* \"#utility.yul\":3480:3486   */\n  not\n    /* \"#utility.yul\":3472:3477   */\n  dup5\n    /* \"#utility.yul\":3469:3470   */\n  0x08\n    /* \"#utility.yul\":3465:3478   */\n  mul\n    /* \"#utility.yul\":3436:3487   */\n  tag_40\n  jump\t// in\ntag_86:\n    /* \"#utility.yul\":3432:3488   */\n  not\n    /* \"#utility.yul\":3517:3521   */\n  dup1\n    /* \"#utility.yul\":3511:3515   */\n  dup4\n    /* \"#utility.yul\":3507:3522   */\n  and\n    /* \"#utility.yul\":3497:3522   */\n  swap2\n  pop\n    /* \"#utility.yul\":3410:3528   */\n  pop\n    /* \"#utility.yul\":3359:3528   */\n  swap3\n  swap2\n  pop\n  pop\n  jump\t// out\n    /* \"#utility.yul\":3533:3828   */\ntag_42:\n    /* \"#utility.yul\":3609:3613   */\n  0x00\n    /* \"#utility.yul\":3755:3784   */\n  tag_88\n    /* \"#utility.yul\":3780:3783   */\n  dup4\n    /* \"#utility.yul\":3774:3778   */\n  dup4\n    /* \"#utility.yul\":3755:3784   */\n  tag_41\n  jump\t// in\ntag_88:\n    /* \"#utility.yul\":3747:3784   */\n  swap2\n  pop\n    /* \"#utility.yul\":3817:3820   */\n  dup3\n    /* \"#utility.yul\":3814:3815   */\n  0x02\n    /* \"#utility.yul\":3810:3821   */\n  mul\n    /* \"#utility.yul\":3804:3808   */\n  dup3\n    /* \"#utility.yul\":3801:3822   */\n  or\n    /* \"#utility.yul\":3793:3822   */\n  swap1\n  pop\n    /* \"#utility.yul\":3533:3828   */\n  swap3\n  swap2\n  pop\n  pop\n  jump\t// out\n    /* \"#utility.yul\":3833:5228   */\ntag_9:\n    /* \"#utility.yul\":3950:3987   */\n  tag_90\n    /* \"#utility.yul\":3983:3986   */\n  dup3\n    /* \"#utility.yul\":3950:3987   */\n  tag_24\n  jump\t// in\ntag_90:\n    /* \"#utility.yul\":4052:4070   */\n  0xffffffffffffffff\n    /* \"#utility.yul\":4044:4050   */\n  dup2\n    /* \"#utility.yul\":4041:4071   */\n  gt\n    /* \"#utility.yul\":4038:4094   */\n  iszero\n  tag_91\n  jumpi\n    /* \"#utility.yul\":4074:4092   */\n  tag_92\n  tag_25\n  jump\t// in\ntag_92:\n    /* \"#utility.yul\":4038:4094   */\ntag_91:\n    /* \"#utility.yul\":4118:4156   */\n  tag_93\n    /* \"#utility.yul\":4150:4154   */\n  dup3\n    /* \"#utility.yul\":4144:4155   */\n  sload\n    /* \"#utility.yul\":4118:4156   */\n  tag_17\n  jump\t// in\ntag_93:\n    /* \"#utility.yul\":4203:4270   */\n  tag_94\n    /* \"#utility.yul\":4263:4269   */\n  dup3\n    /* \"#utility.yul\":4255:4261   */\n  dup3\n    /* \"#utility.yul\":4249:4253   */\n  dup6\n    /* \"#utility.yul\":4203:4270   */\n  tag_39\n  jump\t// in\ntag_94:\n    /* \"#utility.yul\":4297:4298   */\n  0x00\n    /* \"#utility.yul\":4321:4325   */\n  0x20\n    /* \"#utility.yul\":4308:4325   */\n  swap1\n  pop\n    /* \"#utility.yul\":4353:4355   */\n  0x1f\n    /* \"#utility.yul\":4345:4351   */\n  dup4\n    /* \"#utility.yul\":4342:4356   */\n  gt\n    /* \"#utility.yul\":4370:4371   */\n  0x01\n    /* \"#utility.yul\":4365:4983   */\n  dup2\n  eq\n  tag_96\n  jumpi\n    /* \"#utility.yul\":5027:5028   */\n  0x00\n    /* \"#utility.yul\":5044:5050   */\n  dup5\n    /* \"#utility.yul\":5041:5118   */\n  iszero\n  tag_97\n  jumpi\n    /* \"#utility.yul\":5093:5102   */\n  dup3\n    /* \"#utility.yul\":5088:5091   */\n  dup8\n    /* \"#utility.yul\":5084:5103   */\n  add\n    /* \"#utility.yul\":5078:5104   */\n  mload\n    /* \"#utility.yul\":5069:5104   */\n  swap1\n  pop\n    /* \"#utility.yul\":5041:5118   */\ntag_97:\n    /* \"#utility.yul\":5144:5211   */\n  tag_98\n    /* \"#utility.yul\":5204:5210   */\n  dup6\n    /* \"#utility.yul\":5197:5202   */\n  dup3\n    /* \"#utility.yul\":5144:5211   */\n  tag_42\n  jump\t// in\ntag_98:\n    /* \"#utility.yul\":5138:5142   */\n  dup7\n    /* \"#utility.yul\":5131:5212   */\n  sstore\n    /* \"#utility.yul\":5000:5222   */\n  pop\n    /* \"#utility.yul\":4335:5222   */\n  jump(tag_95)\n    /* \"#utility.yul\":4365:4983   */\ntag_96:\n    /* \"#utility.yul\":4417:4421   */\n  0x1f\n    /* \"#utility.yul\":4413:4422   */\n  not\n    /* \"#utility.yul\":4405:4411   */\n  dup5\n    /* \"#utility.yul\":4401:4423   */\n  and\n    /* \"#utility.yul\":4451:4488   */\n  tag_99\n    /* \"#utility.yul\":4483:4487   */\n  dup7\n    /* \"#utility.yul\":4451:4488   */\n  tag_27\n  jump\t// in\ntag_99:\n    /* \"#utility.yul\":4510:4511   */\n  0x00\n    /* \"#utility.yul\":4524:4732   */\ntag_100:\n    /* \"#utility.yul\":4538:4545   */\n  dup3\n    /* \"#utility.yul\":4535:4536   */\n  dup2\n    /* \"#utility.yul\":4532:4546   */\n  lt\n    /* \"#utility.yul\":4524:4732   */\n  iszero\n  tag_102\n  jumpi\n    /* \"#utility.yul\":4617:4626   */\n  dup5\n    /* \"#utility.yul\":4612:4615   */\n  dup10\n    /* \"#utility.yul\":4608:4627   */\n  add\n    /* \"#utility.yul\":4602:4628   */\n  mload\n    /* \"#utility.yul\":4594:4600   */\n  dup3\n    /* \"#utility.yul\":4587:4629   */\n  sstore\n    /* \"#utility.yul\":4668:4669   */\n  0x01\n    /* \"#utility.yul\":4660:4666   */\n  dup3\n    /* \"#utility.yul\":4656:4670   */\n  add\n    /* \"#utility.yul\":4646:4670   */\n  swap2\n  pop\n    /* \"#utility.yul\":4715:4717   */\n  0x20\n    /* \"#utility.yul\":4704:4713   */\n  dup6\n    /* \"#utility.yul\":4700:4718   */\n  add\n    /* \"#utility.yul\":4687:4718   */\n  swap5\n  pop\n    /* \"#utility.yul\":4561:4565   */\n  0x20\n    /* \"#utility.yul\":4558:4559   */\n  dup2\n    /* \"#utility.yul\":4554:4566   */\n  add\n    /* \"#utility.yul\":4549:4566   */\n  swap1\n  pop\n    /* \"#utility.yul\":4524:4732   */\n  jump(tag_100)\ntag_102:\n    /* \"#utility.yul\":4760:4766   */\n  dup7\n    /* \"#utility.yul\":4751:4758   */\n  dup4\n    /* \"#utility.yul\":4748:4767   */\n  lt\n    /* \"#utility.yul\":4745:4924   */\n  iszero\n  tag_103\n  jumpi\n    /* \"#utility.yul\":4818:4827   */\n  dup5\n    /* \"#utility.yul\":4813:4816   */\n  dup10\n    /* \"#utility.yul\":4809:4828   */\n  add\n    /* \"#utility.yul\":4803:4829   */\n  mload\n    /* \"#utility.yul\":4861:4909   */\n  tag_104\n    /* \"#utility.yul\":4903:4907   */\n  0x1f\n    /* \"#utility.yul\":4895:4901   */\n  dup10\n    /* \"#utility.yul\":4891:4908   */\n  and\n    /* \"#utility.yul\":4880:4889   */\n  dup3\n    /* \"#utility.yul\":4861:4909   */\n  tag_41\n  jump\t// in\ntag_104:\n    /* \"#utility.yul\":4853:4859   */\n  dup4\n    /* \"#utility.yul\":4846:4910   */\n  sstore\n    /* \"#utility.yul\":4768:4924   */\n  pop\n    /* \"#utility.yul\":4745:4924   */\ntag_103:\n    /* \"#utility.yul\":4970:4971   */\n  0x01\n    /* \"#utility.yul\":4966:4967   */\n  0x02\n    /* \"#utility.yul\":4958:4964   */\n  dup9\n    /* \"#utility.yul\":4954:4968   */\n  mul\n    /* \"#utility.yul\":4950:4972   */\n  add\n    /* \"#utility.yul\":4944:4948   */\n  dup9\n    /* \"#utility.yul\":4937:4973   */\n  sstore\n    /* \"#utility.yul\":4372:4983   */\n  pop\n  pop\n  pop\n    /* \"#utility.yul\":4335:5222   */\ntag_95:\n  pop\n    /* \"#utility.yul\":3925:5228   */\n  pop\n  pop\n  pop\n    /* \"#utility.yul\":3833:5228   */\n  pop\n  pop\n  jump\t// out\n    /* \"contracts/superleagueversion.sol\":0:930  contract SuperLigTeamSelector {... */\ntag_4:\n  dataSize(sub_0)\n  dup1\n  dataOffset(sub_0)\n  0x00\n  codecopy\n  0x00\n  return\nstop\n\nsub_0: assembly {\n        /* \"contracts/superleagueversion.sol\":0:930  contract SuperLigTeamSelector {... */\n      mstore(0x40, 0x80)\n      callvalue\n      dup1\n      iszero\n      tag_1\n      jumpi\n      revert(0x00, 0x00)\n    tag_1:\n      pop\n      jumpi(tag_2, lt(calldatasize, 0x04))\n      shr(0xe0, calldataload(0x00))\n      dup1\n      0x112d5c65\n      eq\n      tag_3\n      jumpi\n      dup1\n      0x775e779e\n      eq\n      tag_4\n      jumpi\n      dup1\n      0x9c8c3e80\n      eq\n      tag_5\n      jumpi\n      dup1\n      0xbcb4ab0e\n      eq\n      tag_6\n      jumpi\n    tag_2:\n      revert(0x00, 0x00)\n        /* \"contracts/superleagueversion.sol\":402:444  mapping(address => string) public userTeam */\n    tag_3:\n      tag_7\n      0x04\n      dup1\n      calldatasize\n      sub\n      dup2\n      add\n      swap1\n      tag_8\n      swap2\n      swap1\n      tag_9\n      jump\t// in\n    tag_8:\n      tag_10\n      jump\t// in\n    tag_7:\n      mload(0x40)\n      tag_11\n      swap2\n      swap1\n      tag_12\n      jump\t// in\n    tag_11:\n      mload(0x40)\n      dup1\n      swap2\n      sub\n      swap1\n      return\n        /* \"contracts/superleagueversion.sol\":451:490  mapping(address => bool) public hasTeam */\n    tag_4:\n      tag_13\n      0x04\n      dup1\n      calldatasize\n      sub\n      dup2\n      add\n      swap1\n      tag_14\n      swap2\n      swap1\n      tag_9\n      jump\t// in\n    tag_14:\n      tag_15\n      jump\t// in\n    tag_13:\n      mload(0x40)\n      tag_16\n      swap2\n      swap1\n      tag_17\n      jump\t// in\n    tag_16:\n      mload(0x40)\n      dup1\n      swap2\n      sub\n      swap1\n      return\n        /* \"contracts/superleagueversion.sol\":747:927  function getMyTeam() external view returns (string memory) {... */\n    tag_5:\n      tag_18\n      tag_19\n      jump\t// in\n    tag_18:\n      mload(0x40)\n      tag_20\n      swap2\n      swap1\n      tag_12\n      jump\t// in\n    tag_20:\n      mload(0x40)\n      dup1\n      swap2\n      sub\n      swap1\n      return\n        /* \"contracts/superleagueversion.sol\":532:739  function write() external {... */\n    tag_6:\n      tag_21\n      tag_22\n      jump\t// in\n    tag_21:\n      stop\n        /* \"contracts/superleagueversion.sol\":402:444  mapping(address => string) public userTeam */\n    tag_10:\n      mstore(0x20, 0x01)\n      dup1\n      0x00\n      mstore\n      keccak256(0x00, 0x40)\n      0x00\n      swap2\n      pop\n      swap1\n      pop\n      dup1\n      sload\n      tag_23\n      swap1\n      tag_24\n      jump\t// in\n    tag_23:\n      dup1\n      0x1f\n      add\n      0x20\n      dup1\n      swap2\n      div\n      mul\n      0x20\n      add\n      mload(0x40)\n      swap1\n      dup2\n      add\n      0x40\n      mstore\n      dup1\n      swap3\n      swap2\n      swap1\n      dup2\n      dup2\n      mstore\n      0x20\n      add\n      dup3\n      dup1\n      sload\n      tag_25\n      swap1\n      tag_24\n      jump\t// in\n    tag_25:\n      dup1\n      iszero\n      tag_26\n      jumpi\n      dup1\n      0x1f\n      lt\n      tag_27\n      jumpi\n      0x0100\n      dup1\n      dup4\n      sload\n      div\n      mul\n      dup4\n      mstore\n      swap2\n      0x20\n      add\n      swap2\n      jump(tag_26)\n    tag_27:\n      dup3\n      add\n      swap2\n      swap1\n      0x00\n      mstore\n      keccak256(0x00, 0x20)\n      swap1\n    tag_28:\n      dup2\n      sload\n      dup2\n      mstore\n      swap1\n      0x01\n      add\n      swap1\n      0x20\n      add\n      dup1\n      dup4\n      gt\n      tag_28\n      jumpi\n      dup3\n      swap1\n      sub\n      0x1f\n      and\n      dup3\n      add\n      swap2\n    tag_26:\n      pop\n      pop\n      pop\n      pop\n      pop\n      dup2\n      jump\t// out\n        /* \"contracts/superleagueversion.sol\":451:490  mapping(address => bool) public hasTeam */\n    tag_15:\n      mstore(0x20, 0x02)\n      dup1\n      0x00\n      mstore\n      keccak256(0x00, 0x40)\n      0x00\n      swap2\n      pop\n      sload\n      swap1\n      0x0100\n      exp\n      swap1\n      div\n      0xff\n      and\n      dup2\n      jump\t// out\n        /* \"contracts/superleagueversion.sol\":747:927  function getMyTeam() external view returns (string memory) {... */\n    tag_19:\n        /* \"contracts/superleagueversion.sol\":791:804  string memory */\n      0x60\n        /* \"contracts/superleagueversion.sol\":825:832  hasTeam */\n      0x02\n        /* \"contracts/superleagueversion.sol\":825:844  hasTeam[msg.sender] */\n      0x00\n        /* \"contracts/superleagueversion.sol\":833:843  msg.sender */\n      caller\n        /* \"contracts/superleagueversion.sol\":825:844  hasTeam[msg.sender] */\n      0xffffffffffffffffffffffffffffffffffffffff\n      and\n      0xffffffffffffffffffffffffffffffffffffffff\n      and\n      dup2\n      mstore\n      0x20\n      add\n      swap1\n      dup2\n      mstore\n      0x20\n      add\n      0x00\n      keccak256\n      0x00\n      swap1\n      sload\n      swap1\n      0x0100\n      exp\n      swap1\n      div\n      0xff\n      and\n        /* \"contracts/superleagueversion.sol\":817:881  require(hasTeam[msg.sender], \"You haven't selected a team yet!\") */\n      tag_30\n      jumpi\n      mload(0x40)\n      0x08c379a000000000000000000000000000000000000000000000000000000000\n      dup2\n      mstore\n      0x04\n      add\n      tag_31\n      swap1\n      tag_32\n      jump\t// in\n    tag_31:\n      mload(0x40)\n      dup1\n      swap2\n      sub\n      swap1\n      revert\n    tag_30:\n        /* \"contracts/superleagueversion.sol\":899:907  userTeam */\n      0x01\n        /* \"contracts/superleagueversion.sol\":899:919  userTeam[msg.sender] */\n      0x00\n        /* \"contracts/superleagueversion.sol\":908:918  msg.sender */\n      caller\n        /* \"contracts/superleagueversion.sol\":899:919  userTeam[msg.sender] */\n      0xffffffffffffffffffffffffffffffffffffffff\n      and\n      0xffffffffffffffffffffffffffffffffffffffff\n      and\n      dup2\n      mstore\n      0x20\n      add\n      swap1\n      dup2\n      mstore\n      0x20\n      add\n      0x00\n      keccak256\n        /* \"contracts/superleagueversion.sol\":892:919  return userTeam[msg.sender] */\n      dup1\n      sload\n      tag_33\n      swap1\n      tag_24\n      jump\t// in\n    tag_33:\n      dup1\n      0x1f\n      add\n      0x20\n      dup1\n      swap2\n      div\n      mul\n      0x20\n      add\n      mload(0x40)\n      swap1\n      dup2\n      add\n      0x40\n      mstore\n      dup1\n      swap3\n      swap2\n      swap1\n      dup2\n      dup2\n      mstore\n      0x20\n      add\n      dup3\n      dup1\n      sload\n      tag_34\n      swap1\n      tag_24\n      jump\t// in\n    tag_34:\n      dup1\n      iszero\n      tag_35\n      jumpi\n      dup1\n      0x1f\n      lt\n      tag_36\n      jumpi\n      0x0100\n      dup1\n      dup4\n      sload\n      div\n      mul\n      dup4\n      mstore\n      swap2\n      0x20\n      add\n      swap2\n      jump(tag_35)\n    tag_36:\n      dup3\n      add\n      swap2\n      swap1\n      0x00\n      mstore\n      keccak256(0x00, 0x20)\n      swap1\n    tag_37:\n      dup2\n      sload\n      dup2\n      mstore\n      swap1\n      0x01\n      add\n      swap1\n      0x20\n      add\n      dup1\n      dup4\n      gt\n      tag_37\n      jumpi\n      dup3\n      swap1\n      sub\n      0x1f\n      and\n      dup3\n      add\n      swap2\n    tag_35:\n      pop\n      pop\n      pop\n      pop\n      pop\n      swap1\n      pop\n        /* \"contracts/superleagueversion.sol\":747:927  function getMyTeam() external view returns (string memory) {... */\n      swap1\n      jump\t// out\n        /* \"contracts/superleagueversion.sol\":532:739  function write() external {... */\n    tag_22:\n        /* \"contracts/superleagueversion.sol\":569:586  uint256 teamIndex */\n      0x00\n        /* \"contracts/superleagueversion.sol\":607:612  teams */\n      0x00\n        /* \"contracts/superleagueversion.sol\":607:619  teams.length */\n      dup1\n      sload\n      swap1\n      pop\n        /* \"contracts/superleagueversion.sol\":589:604  block.timestamp */\n      timestamp\n        /* \"contracts/superleagueversion.sol\":589:619  block.timestamp % teams.length */\n      tag_39\n      swap2\n      swap1\n      tag_40\n      jump\t// in\n    tag_39:\n        /* \"contracts/superleagueversion.sol\":569:619  uint256 teamIndex = block.timestamp % teams.length */\n      swap1\n      pop\n        /* \"contracts/superleagueversion.sol\":653:658  teams */\n      0x00\n        /* \"contracts/superleagueversion.sol\":659:668  teamIndex */\n      dup2\n        /* \"contracts/superleagueversion.sol\":653:669  teams[teamIndex] */\n      dup2\n      sload\n      dup2\n      lt\n      tag_41\n      jumpi\n      tag_42\n      tag_43\n      jump\t// in\n    tag_42:\n    tag_41:\n      swap1\n      0x00\n      mstore\n      keccak256(0x00, 0x20)\n      add\n        /* \"contracts/superleagueversion.sol\":630:638  userTeam */\n      0x01\n        /* \"contracts/superleagueversion.sol\":630:650  userTeam[msg.sender] */\n      0x00\n        /* \"contracts/superleagueversion.sol\":639:649  msg.sender */\n      caller\n        /* \"contracts/superleagueversion.sol\":630:650  userTeam[msg.sender] */\n      0xffffffffffffffffffffffffffffffffffffffff\n      and\n      0xffffffffffffffffffffffffffffffffffffffff\n      and\n      dup2\n      mstore\n      0x20\n      add\n      swap1\n      dup2\n      mstore\n      0x20\n      add\n      0x00\n      keccak256\n        /* \"contracts/superleagueversion.sol\":630:669  userTeam[msg.sender] = teams[teamIndex] */\n      swap1\n      dup2\n      tag_45\n      swap2\n      swap1\n      tag_46\n      jump\t// in\n    tag_45:\n      pop\n        /* \"contracts/superleagueversion.sol\":702:706  true */\n      0x01\n        /* \"contracts/superleagueversion.sol\":680:687  hasTeam */\n      0x02\n        /* \"contracts/superleagueversion.sol\":680:699  hasTeam[msg.sender] */\n      0x00\n        /* \"contracts/superleagueversion.sol\":688:698  msg.sender */\n      caller\n        /* \"contracts/superleagueversion.sol\":680:699  hasTeam[msg.sender] */\n      0xffffffffffffffffffffffffffffffffffffffff\n      and\n      0xffffffffffffffffffffffffffffffffffffffff\n      and\n      dup2\n      mstore\n      0x20\n      add\n      swap1\n      dup2\n      mstore\n      0x20\n      add\n      0x00\n      keccak256\n      0x00\n        /* \"contracts/superleagueversion.sol\":680:706  hasTeam[msg.sender] = true */\n      0x0100\n      exp\n      dup2\n      sload\n      dup2\n      0xff\n      mul\n      not\n      and\n      swap1\n      dup4\n      iszero\n      iszero\n      mul\n      or\n      swap1\n      sstore\n      pop\n        /* \"contracts/superleagueversion.sol\":558:739  {... */\n      pop\n        /* \"contracts/superleagueversion.sol\":532:739  function write() external {... */\n      jump\t// out\n        /* \"#utility.yul\":88:205   */\n    tag_48:\n        /* \"#utility.yul\":197:198   */\n      0x00\n        /* \"#utility.yul\":194:195   */\n      0x00\n        /* \"#utility.yul\":187:199   */\n      revert\n        /* \"#utility.yul\":334:460   */\n    tag_50:\n        /* \"#utility.yul\":371:378   */\n      0x00\n        /* \"#utility.yul\":411:453   */\n      0xffffffffffffffffffffffffffffffffffffffff\n        /* \"#utility.yul\":404:409   */\n      dup3\n        /* \"#utility.yul\":400:454   */\n      and\n        /* \"#utility.yul\":389:454   */\n      swap1\n      pop\n        /* \"#utility.yul\":334:460   */\n      swap2\n      swap1\n      pop\n      jump\t// out\n        /* \"#utility.yul\":466:562   */\n    tag_51:\n        /* \"#utility.yul\":503:510   */\n      0x00\n        /* \"#utility.yul\":532:556   */\n      tag_90\n        /* \"#utility.yul\":550:555   */\n      dup3\n        /* \"#utility.yul\":532:556   */\n      tag_50\n      jump\t// in\n    tag_90:\n        /* \"#utility.yul\":521:556   */\n      swap1\n      pop\n        /* \"#utility.yul\":466:562   */\n      swap2\n      swap1\n      pop\n      jump\t// out\n        /* \"#utility.yul\":568:690   */\n    tag_52:\n        /* \"#utility.yul\":641:665   */\n      tag_92\n        /* \"#utility.yul\":659:664   */\n      dup2\n        /* \"#utility.yul\":641:665   */\n      tag_51\n      jump\t// in\n    tag_92:\n        /* \"#utility.yul\":634:639   */\n      dup2\n        /* \"#utility.yul\":631:666   */\n      eq\n        /* \"#utility.yul\":621:684   */\n      tag_93\n      jumpi\n        /* \"#utility.yul\":680:681   */\n      0x00\n        /* \"#utility.yul\":677:678   */\n      0x00\n        /* \"#utility.yul\":670:682   */\n      revert\n        /* \"#utility.yul\":621:684   */\n    tag_93:\n        /* \"#utility.yul\":568:690   */\n      pop\n      jump\t// out\n        /* \"#utility.yul\":696:835   */\n    tag_53:\n        /* \"#utility.yul\":742:747   */\n      0x00\n        /* \"#utility.yul\":780:786   */\n      dup2\n        /* \"#utility.yul\":767:787   */\n      calldataload\n        /* \"#utility.yul\":758:787   */\n      swap1\n      pop\n        /* \"#utility.yul\":796:829   */\n      tag_95\n        /* \"#utility.yul\":823:828   */\n      dup2\n        /* \"#utility.yul\":796:829   */\n      tag_52\n      jump\t// in\n    tag_95:\n        /* \"#utility.yul\":696:835   */\n      swap3\n      swap2\n      pop\n      pop\n      jump\t// out\n        /* \"#utility.yul\":841:1170   */\n    tag_9:\n        /* \"#utility.yul\":900:906   */\n      0x00\n        /* \"#utility.yul\":949:951   */\n      0x20\n        /* \"#utility.yul\":937:946   */\n      dup3\n        /* \"#utility.yul\":928:935   */\n      dup5\n        /* \"#utility.yul\":924:947   */\n      sub\n        /* \"#utility.yul\":920:952   */\n      slt\n        /* \"#utility.yul\":917:1036   */\n      iszero\n      tag_97\n      jumpi\n        /* \"#utility.yul\":955:1034   */\n      tag_98\n      tag_48\n      jump\t// in\n    tag_98:\n        /* \"#utility.yul\":917:1036   */\n    tag_97:\n        /* \"#utility.yul\":1075:1076   */\n      0x00\n        /* \"#utility.yul\":1100:1153   */\n      tag_99\n        /* \"#utility.yul\":1145:1152   */\n      dup5\n        /* \"#utility.yul\":1136:1142   */\n      dup3\n        /* \"#utility.yul\":1125:1134   */\n      dup6\n        /* \"#utility.yul\":1121:1143   */\n      add\n        /* \"#utility.yul\":1100:1153   */\n      tag_53\n      jump\t// in\n    tag_99:\n        /* \"#utility.yul\":1090:1153   */\n      swap2\n      pop\n        /* \"#utility.yul\":1046:1163   */\n      pop\n        /* \"#utility.yul\":841:1170   */\n      swap3\n      swap2\n      pop\n      pop\n      jump\t// out\n        /* \"#utility.yul\":1176:1275   */\n    tag_54:\n        /* \"#utility.yul\":1228:1234   */\n      0x00\n        /* \"#utility.yul\":1262:1267   */\n      dup2\n        /* \"#utility.yul\":1256:1268   */\n      mload\n        /* \"#utility.yul\":1246:1268   */\n      swap1\n      pop\n        /* \"#utility.yul\":1176:1275   */\n      swap2\n      swap1\n      pop\n      jump\t// out\n        /* \"#utility.yul\":1281:1450   */\n    tag_55:\n        /* \"#utility.yul\":1365:1376   */\n      0x00\n        /* \"#utility.yul\":1399:1405   */\n      dup3\n        /* \"#utility.yul\":1394:1397   */\n      dup3\n        /* \"#utility.yul\":1387:1406   */\n      mstore\n        /* \"#utility.yul\":1439:1443   */\n      0x20\n        /* \"#utility.yul\":1434:1437   */\n      dup3\n        /* \"#utility.yul\":1430:1444   */\n      add\n        /* \"#utility.yul\":1415:1444   */\n      swap1\n      pop\n        /* \"#utility.yul\":1281:1450   */\n      swap3\n      swap2\n      pop\n      pop\n      jump\t// out\n        /* \"#utility.yul\":1456:1595   */\n    tag_56:\n        /* \"#utility.yul\":1545:1551   */\n      dup3\n        /* \"#utility.yul\":1540:1543   */\n      dup2\n        /* \"#utility.yul\":1535:1538   */\n      dup4\n        /* \"#utility.yul\":1529:1552   */\n      mcopy\n        /* \"#utility.yul\":1586:1587   */\n      0x00\n        /* \"#utility.yul\":1577:1583   */\n      dup4\n        /* \"#utility.yul\":1572:1575   */\n      dup4\n        /* \"#utility.yul\":1568:1584   */\n      add\n        /* \"#utility.yul\":1561:1588   */\n      mstore\n        /* \"#utility.yul\":1456:1595   */\n      pop\n      pop\n      pop\n      jump\t// out\n        /* \"#utility.yul\":1601:1703   */\n    tag_57:\n        /* \"#utility.yul\":1642:1648   */\n      0x00\n        /* \"#utility.yul\":1693:1695   */\n      0x1f\n        /* \"#utility.yul\":1689:1696   */\n      not\n        /* \"#utility.yul\":1684:1686   */\n      0x1f\n        /* \"#utility.yul\":1677:1682   */\n      dup4\n        /* \"#utility.yul\":1673:1687   */\n      add\n        /* \"#utility.yul\":1669:1697   */\n      and\n        /* \"#utility.yul\":1659:1697   */\n      swap1\n      pop\n        /* \"#utility.yul\":1601:1703   */\n      swap2\n      swap1\n      pop\n      jump\t// out\n        /* \"#utility.yul\":1709:2086   */\n    tag_58:\n        /* \"#utility.yul\":1797:1800   */\n      0x00\n        /* \"#utility.yul\":1825:1864   */\n      tag_105\n        /* \"#utility.yul\":1858:1863   */\n      dup3\n        /* \"#utility.yul\":1825:1864   */\n      tag_54\n      jump\t// in\n    tag_105:\n        /* \"#utility.yul\":1880:1951   */\n      tag_106\n        /* \"#utility.yul\":1944:1950   */\n      dup2\n        /* \"#utility.yul\":1939:1942   */\n      dup6\n        /* \"#utility.yul\":1880:1951   */\n      tag_55\n      jump\t// in\n    tag_106:\n        /* \"#utility.yul\":1873:1951   */\n      swap4\n      pop\n        /* \"#utility.yul\":1960:2025   */\n      tag_107\n        /* \"#utility.yul\":2018:2024   */\n      dup2\n        /* \"#utility.yul\":2013:2016   */\n      dup6\n        /* \"#utility.yul\":2006:2010   */\n      0x20\n        /* \"#utility.yul\":1999:2004   */\n      dup7\n        /* \"#utility.yul\":1995:2011   */\n      add\n        /* \"#utility.yul\":1960:2025   */\n      tag_56\n      jump\t// in\n    tag_107:\n        /* \"#utility.yul\":2050:2079   */\n      tag_108\n        /* \"#utility.yul\":2072:2078   */\n      dup2\n        /* \"#utility.yul\":2050:2079   */\n      tag_57\n      jump\t// in\n    tag_108:\n        /* \"#utility.yul\":2045:2048   */\n      dup5\n        /* \"#utility.yul\":2041:2080   */\n      add\n        /* \"#utility.yul\":2034:2080   */\n      swap2\n      pop\n        /* \"#utility.yul\":1801:2086   */\n      pop\n        /* \"#utility.yul\":1709:2086   */\n      swap3\n      swap2\n      pop\n      pop\n      jump\t// out\n        /* \"#utility.yul\":2092:2405   */\n    tag_12:\n        /* \"#utility.yul\":2205:2209   */\n      0x00\n        /* \"#utility.yul\":2243:2245   */\n      0x20\n        /* \"#utility.yul\":2232:2241   */\n      dup3\n        /* \"#utility.yul\":2228:2246   */\n      add\n        /* \"#utility.yul\":2220:2246   */\n      swap1\n      pop\n        /* \"#utility.yul\":2292:2301   */\n      dup2\n        /* \"#utility.yul\":2286:2290   */\n      dup2\n        /* \"#utility.yul\":2282:2302   */\n      sub\n        /* \"#utility.yul\":2278:2279   */\n      0x00\n        /* \"#utility.yul\":2267:2276   */\n      dup4\n        /* \"#utility.yul\":2263:2280   */\n      add\n        /* \"#utility.yul\":2256:2303   */\n      mstore\n        /* \"#utility.yul\":2320:2398   */\n      tag_110\n        /* \"#utility.yul\":2393:2397   */\n      dup2\n        /* \"#utility.yul\":2384:2390   */\n      dup5\n        /* \"#utility.yul\":2320:2398   */\n      tag_58\n      jump\t// in\n    tag_110:\n        /* \"#utility.yul\":2312:2398   */\n      swap1\n      pop\n        /* \"#utility.yul\":2092:2405   */\n      swap3\n      swap2\n      pop\n      pop\n      jump\t// out\n        /* \"#utility.yul\":2411:2501   */\n    tag_59:\n        /* \"#utility.yul\":2445:2452   */\n      0x00\n        /* \"#utility.yul\":2488:2493   */\n      dup2\n        /* \"#utility.yul\":2481:2494   */\n      iszero\n        /* \"#utility.yul\":2474:2495   */\n      iszero\n        /* \"#utility.yul\":2463:2495   */\n      swap1\n      pop\n        /* \"#utility.yul\":2411:2501   */\n      swap2\n      swap1\n      pop\n      jump\t// out\n        /* \"#utility.yul\":2507:2616   */\n    tag_60:\n        /* \"#utility.yul\":2588:2609   */\n      tag_113\n        /* \"#utility.yul\":2603:2608   */\n      dup2\n        /* \"#utility.yul\":2588:2609   */\n      tag_59\n      jump\t// in\n    tag_113:\n        /* \"#utility.yul\":2583:2586   */\n      dup3\n        /* \"#utility.yul\":2576:2610   */\n      mstore\n        /* \"#utility.yul\":2507:2616   */\n      pop\n      pop\n      jump\t// out\n        /* \"#utility.yul\":2622:2832   */\n    tag_17:\n        /* \"#utility.yul\":2709:2713   */\n      0x00\n        /* \"#utility.yul\":2747:2749   */\n      0x20\n        /* \"#utility.yul\":2736:2745   */\n      dup3\n        /* \"#utility.yul\":2732:2750   */\n      add\n        /* \"#utility.yul\":2724:2750   */\n      swap1\n      pop\n        /* \"#utility.yul\":2760:2825   */\n      tag_115\n        /* \"#utility.yul\":2822:2823   */\n      0x00\n        /* \"#utility.yul\":2811:2820   */\n      dup4\n        /* \"#utility.yul\":2807:2824   */\n      add\n        /* \"#utility.yul\":2798:2804   */\n      dup5\n        /* \"#utility.yul\":2760:2825   */\n      tag_60\n      jump\t// in\n    tag_115:\n        /* \"#utility.yul\":2622:2832   */\n      swap3\n      swap2\n      pop\n      pop\n      jump\t// out\n        /* \"#utility.yul\":2838:3018   */\n    tag_61:\n        /* \"#utility.yul\":2886:2963   */\n      0x4e487b7100000000000000000000000000000000000000000000000000000000\n        /* \"#utility.yul\":2883:2884   */\n      0x00\n        /* \"#utility.yul\":2876:2964   */\n      mstore\n        /* \"#utility.yul\":2983:2987   */\n      0x22\n        /* \"#utility.yul\":2980:2981   */\n      0x04\n        /* \"#utility.yul\":2973:2988   */\n      mstore\n        /* \"#utility.yul\":3007:3011   */\n      0x24\n        /* \"#utility.yul\":3004:3005   */\n      0x00\n        /* \"#utility.yul\":2997:3012   */\n      revert\n        /* \"#utility.yul\":3024:3344   */\n    tag_24:\n        /* \"#utility.yul\":3068:3074   */\n      0x00\n        /* \"#utility.yul\":3105:3106   */\n      0x02\n        /* \"#utility.yul\":3099:3103   */\n      dup3\n        /* \"#utility.yul\":3095:3107   */\n      div\n        /* \"#utility.yul\":3085:3107   */\n      swap1\n      pop\n        /* \"#utility.yul\":3152:3153   */\n      0x01\n        /* \"#utility.yul\":3146:3150   */\n      dup3\n        /* \"#utility.yul\":3142:3154   */\n      and\n        /* \"#utility.yul\":3173:3191   */\n      dup1\n        /* \"#utility.yul\":3163:3244   */\n      tag_118\n      jumpi\n        /* \"#utility.yul\":3229:3233   */\n      0x7f\n        /* \"#utility.yul\":3221:3227   */\n      dup3\n        /* \"#utility.yul\":3217:3234   */\n      and\n        /* \"#utility.yul\":3207:3234   */\n      swap2\n      pop\n        /* \"#utility.yul\":3163:3244   */\n    tag_118:\n        /* \"#utility.yul\":3291:3293   */\n      0x20\n        /* \"#utility.yul\":3283:3289   */\n      dup3\n        /* \"#utility.yul\":3280:3294   */\n      lt\n        /* \"#utility.yul\":3260:3278   */\n      dup2\n        /* \"#utility.yul\":3257:3295   */\n      sub\n        /* \"#utility.yul\":3254:3338   */\n      tag_119\n      jumpi\n        /* \"#utility.yul\":3310:3328   */\n      tag_120\n      tag_61\n      jump\t// in\n    tag_120:\n        /* \"#utility.yul\":3254:3338   */\n    tag_119:\n        /* \"#utility.yul\":3075:3344   */\n      pop\n        /* \"#utility.yul\":3024:3344   */\n      swap2\n      swap1\n      pop\n      jump\t// out\n        /* \"#utility.yul\":3350:3532   */\n    tag_62:\n        /* \"#utility.yul\":3490:3524   */\n      0x596f7520686176656e27742073656c65637465642061207465616d2079657421\n        /* \"#utility.yul\":3486:3487   */\n      0x00\n        /* \"#utility.yul\":3478:3484   */\n      dup3\n        /* \"#utility.yul\":3474:3488   */\n      add\n        /* \"#utility.yul\":3467:3525   */\n      mstore\n        /* \"#utility.yul\":3350:3532   */\n      pop\n      jump\t// out\n        /* \"#utility.yul\":3538:3904   */\n    tag_63:\n        /* \"#utility.yul\":3680:3683   */\n      0x00\n        /* \"#utility.yul\":3701:3768   */\n      tag_123\n        /* \"#utility.yul\":3765:3767   */\n      0x20\n        /* \"#utility.yul\":3760:3763   */\n      dup4\n        /* \"#utility.yul\":3701:3768   */\n      tag_55\n      jump\t// in\n    tag_123:\n        /* \"#utility.yul\":3694:3768   */\n      swap2\n      pop\n        /* \"#utility.yul\":3777:3870   */\n      tag_124\n        /* \"#utility.yul\":3866:3869   */\n      dup3\n        /* \"#utility.yul\":3777:3870   */\n      tag_62\n      jump\t// in\n    tag_124:\n        /* \"#utility.yul\":3895:3897   */\n      0x20\n        /* \"#utility.yul\":3890:3893   */\n      dup3\n        /* \"#utility.yul\":3886:3898   */\n      add\n        /* \"#utility.yul\":3879:3898   */\n      swap1\n      pop\n        /* \"#utility.yul\":3538:3904   */\n      swap2\n      swap1\n      pop\n      jump\t// out\n        /* \"#utility.yul\":3910:4329   */\n    tag_32:\n        /* \"#utility.yul\":4076:4080   */\n      0x00\n        /* \"#utility.yul\":4114:4116   */\n      0x20\n        /* \"#utility.yul\":4103:4112   */\n      dup3\n        /* \"#utility.yul\":4099:4117   */\n      add\n        /* \"#utility.yul\":4091:4117   */\n      swap1\n      pop\n        /* \"#utility.yul\":4163:4172   */\n      dup2\n        /* \"#utility.yul\":4157:4161   */\n      dup2\n        /* \"#utility.yul\":4153:4173   */\n      sub\n        /* \"#utility.yul\":4149:4150   */\n      0x00\n        /* \"#utility.yul\":4138:4147   */\n      dup4\n        /* \"#utility.yul\":4134:4151   */\n      add\n        /* \"#utility.yul\":4127:4174   */\n      mstore\n        /* \"#utility.yul\":4191:4322   */\n      tag_126\n        /* \"#utility.yul\":4317:4321   */\n      dup2\n        /* \"#utility.yul\":4191:4322   */\n      tag_63\n      jump\t// in\n    tag_126:\n        /* \"#utility.yul\":4183:4322   */\n      swap1\n      pop\n        /* \"#utility.yul\":3910:4329   */\n      swap2\n      swap1\n      pop\n      jump\t// out\n        /* \"#utility.yul\":4335:4412   */\n    tag_64:\n        /* \"#utility.yul\":4372:4379   */\n      0x00\n        /* \"#utility.yul\":4401:4406   */\n      dup2\n        /* \"#utility.yul\":4390:4406   */\n      swap1\n      pop\n        /* \"#utility.yul\":4335:4412   */\n      swap2\n      swap1\n      pop\n      jump\t// out\n        /* \"#utility.yul\":4418:4598   */\n    tag_65:\n        /* \"#utility.yul\":4466:4543   */\n      0x4e487b7100000000000000000000000000000000000000000000000000000000\n        /* \"#utility.yul\":4463:4464   */\n      0x00\n        /* \"#utility.yul\":4456:4544   */\n      mstore\n        /* \"#utility.yul\":4563:4567   */\n      0x12\n        /* \"#utility.yul\":4560:4561   */\n      0x04\n        /* \"#utility.yul\":4553:4568   */\n      mstore\n        /* \"#utility.yul\":4587:4591   */\n      0x24\n        /* \"#utility.yul\":4584:4585   */\n      0x00\n        /* \"#utility.yul\":4577:4592   */\n      revert\n        /* \"#utility.yul\":4604:4780   */\n    tag_40:\n        /* \"#utility.yul\":4636:4637   */\n      0x00\n        /* \"#utility.yul\":4653:4673   */\n      tag_130\n        /* \"#utility.yul\":4671:4672   */\n      dup3\n        /* \"#utility.yul\":4653:4673   */\n      tag_64\n      jump\t// in\n    tag_130:\n        /* \"#utility.yul\":4648:4673   */\n      swap2\n      pop\n        /* \"#utility.yul\":4687:4707   */\n      tag_131\n        /* \"#utility.yul\":4705:4706   */\n      dup4\n        /* \"#utility.yul\":4687:4707   */\n      tag_64\n      jump\t// in\n    tag_131:\n        /* \"#utility.yul\":4682:4707   */\n      swap3\n      pop\n        /* \"#utility.yul\":4726:4727   */\n      dup3\n        /* \"#utility.yul\":4716:4751   */\n      tag_132\n      jumpi\n        /* \"#utility.yul\":4731:4749   */\n      tag_133\n      tag_65\n      jump\t// in\n    tag_133:\n        /* \"#utility.yul\":4716:4751   */\n    tag_132:\n        /* \"#utility.yul\":4772:4773   */\n      dup3\n        /* \"#utility.yul\":4769:4770   */\n      dup3\n        /* \"#utility.yul\":4765:4774   */\n      mod\n        /* \"#utility.yul\":4760:4774   */\n      swap1\n      pop\n        /* \"#utility.yul\":4604:4780   */\n      swap3\n      swap2\n      pop\n      pop\n      jump\t// out\n        /* \"#utility.yul\":4786:4966   */\n    tag_43:\n        /* \"#utility.yul\":4834:4911   */\n      0x4e487b7100000000000000000000000000000000000000000000000000000000\n        /* \"#utility.yul\":4831:4832   */\n      0x00\n        /* \"#utility.yul\":4824:4912   */\n      mstore\n        /* \"#utility.yul\":4931:4935   */\n      0x32\n        /* \"#utility.yul\":4928:4929   */\n      0x04\n        /* \"#utility.yul\":4921:4936   */\n      mstore\n        /* \"#utility.yul\":4955:4959   */\n      0x24\n        /* \"#utility.yul\":4952:4953   */\n      0x00\n        /* \"#utility.yul\":4945:4960   */\n      revert\n        /* \"#utility.yul\":4972:5125   */\n    tag_66:\n        /* \"#utility.yul\":5025:5031   */\n      0x00\n        /* \"#utility.yul\":5059:5064   */\n      dup2\n        /* \"#utility.yul\":5053:5065   */\n      sload\n        /* \"#utility.yul\":5043:5065   */\n      swap1\n      pop\n        /* \"#utility.yul\":5085:5118   */\n      tag_136\n        /* \"#utility.yul\":5111:5117   */\n      dup2\n        /* \"#utility.yul\":5085:5118   */\n      tag_24\n      jump\t// in\n    tag_136:\n        /* \"#utility.yul\":5075:5118   */\n      swap1\n      pop\n        /* \"#utility.yul\":4972:5125   */\n      swap2\n      swap1\n      pop\n      jump\t// out\n        /* \"#utility.yul\":5131:5311   */\n    tag_67:\n        /* \"#utility.yul\":5179:5256   */\n      0x4e487b7100000000000000000000000000000000000000000000000000000000\n        /* \"#utility.yul\":5176:5177   */\n      0x00\n        /* \"#utility.yul\":5169:5257   */\n      mstore\n        /* \"#utility.yul\":5276:5280   */\n      0x41\n        /* \"#utility.yul\":5273:5274   */\n      0x04\n        /* \"#utility.yul\":5266:5281   */\n      mstore\n        /* \"#utility.yul\":5300:5304   */\n      0x24\n        /* \"#utility.yul\":5297:5298   */\n      0x00\n        /* \"#utility.yul\":5290:5305   */\n      revert\n        /* \"#utility.yul\":5317:5458   */\n    tag_68:\n        /* \"#utility.yul\":5366:5370   */\n      0x00\n        /* \"#utility.yul\":5389:5392   */\n      dup2\n        /* \"#utility.yul\":5381:5392   */\n      swap1\n      pop\n        /* \"#utility.yul\":5412:5415   */\n      dup2\n        /* \"#utility.yul\":5409:5410   */\n      0x00\n        /* \"#utility.yul\":5402:5416   */\n      mstore\n        /* \"#utility.yul\":5446:5450   */\n      0x20\n        /* \"#utility.yul\":5443:5444   */\n      0x00\n        /* \"#utility.yul\":5433:5451   */\n      keccak256\n        /* \"#utility.yul\":5425:5451   */\n      swap1\n      pop\n        /* \"#utility.yul\":5317:5458   */\n      swap2\n      swap1\n      pop\n      jump\t// out\n        /* \"#utility.yul\":5464:5609   */\n    tag_69:\n        /* \"#utility.yul\":5517:5521   */\n      0x00\n        /* \"#utility.yul\":5540:5543   */\n      dup2\n        /* \"#utility.yul\":5532:5543   */\n      swap1\n      pop\n        /* \"#utility.yul\":5563:5566   */\n      dup2\n        /* \"#utility.yul\":5560:5561   */\n      0x00\n        /* \"#utility.yul\":5553:5567   */\n      mstore\n        /* \"#utility.yul\":5597:5601   */\n      0x20\n        /* \"#utility.yul\":5594:5595   */\n      0x00\n        /* \"#utility.yul\":5584:5602   */\n      keccak256\n        /* \"#utility.yul\":5576:5602   */\n      swap1\n      pop\n        /* \"#utility.yul\":5464:5609   */\n      swap2\n      swap1\n      pop\n      jump\t// out\n        /* \"#utility.yul\":5615:5708   */\n    tag_70:\n        /* \"#utility.yul\":5652:5658   */\n      0x00\n        /* \"#utility.yul\":5699:5701   */\n      0x20\n        /* \"#utility.yul\":5694:5696   */\n      0x1f\n        /* \"#utility.yul\":5687:5692   */\n      dup4\n        /* \"#utility.yul\":5683:5697   */\n      add\n        /* \"#utility.yul\":5679:5702   */\n      div\n        /* \"#utility.yul\":5669:5702   */\n      swap1\n      pop\n        /* \"#utility.yul\":5615:5708   */\n      swap2\n      swap1\n      pop\n      jump\t// out\n        /* \"#utility.yul\":5714:5821   */\n    tag_71:\n        /* \"#utility.yul\":5758:5766   */\n      0x00\n        /* \"#utility.yul\":5808:5813   */\n      dup3\n        /* \"#utility.yul\":5802:5806   */\n      dup3\n        /* \"#utility.yul\":5798:5814   */\n      shl\n        /* \"#utility.yul\":5777:5814   */\n      swap1\n      pop\n        /* \"#utility.yul\":5714:5821   */\n      swap3\n      swap2\n      pop\n      pop\n      jump\t// out\n        /* \"#utility.yul\":5827:6220   */\n    tag_72:\n        /* \"#utility.yul\":5896:5902   */\n      0x00\n        /* \"#utility.yul\":5946:5947   */\n      0x08\n        /* \"#utility.yul\":5934:5944   */\n      dup4\n        /* \"#utility.yul\":5930:5948   */\n      mul\n        /* \"#utility.yul\":5969:6066   */\n      tag_143\n        /* \"#utility.yul\":5999:6065   */\n      0xffffffffffffffffffffffffffffffffffffffffffffffffffffffffffffffff\n        /* \"#utility.yul\":5988:5997   */\n      dup3\n        /* \"#utility.yul\":5969:6066   */\n      tag_71\n      jump\t// in\n    tag_143:\n        /* \"#utility.yul\":6087:6126   */\n      tag_144\n        /* \"#utility.yul\":6117:6125   */\n      dup7\n        /* \"#utility.yul\":6106:6115   */\n      dup4\n        /* \"#utility.yul\":6087:6126   */\n      tag_71\n      jump\t// in\n    tag_144:\n        /* \"#utility.yul\":6075:6126   */\n      swap6\n      pop\n        /* \"#utility.yul\":6159:6163   */\n      dup1\n        /* \"#utility.yul\":6155:6164   */\n      not\n        /* \"#utility.yul\":6148:6153   */\n      dup5\n        /* \"#utility.yul\":6144:6165   */\n      and\n        /* \"#utility.yul\":6135:6165   */\n      swap4\n      pop\n        /* \"#utility.yul\":6208:6212   */\n      dup1\n        /* \"#utility.yul\":6198:6206   */\n      dup7\n        /* \"#utility.yul\":6194:6213   */\n      and\n        /* \"#utility.yul\":6187:6192   */\n      dup5\n        /* \"#utility.yul\":6184:6214   */\n      or\n        /* \"#utility.yul\":6174:6214   */\n      swap3\n      pop\n        /* \"#utility.yul\":5903:6220   */\n      pop\n      pop\n        /* \"#utility.yul\":5827:6220   */\n      swap4\n      swap3\n      pop\n      pop\n      pop\n      jump\t// out\n        /* \"#utility.yul\":6226:6286   */\n    tag_73:\n        /* \"#utility.yul\":6254:6257   */\n      0x00\n        /* \"#utility.yul\":6275:6280   */\n      dup2\n        /* \"#utility.yul\":6268:6280   */\n      swap1\n      pop\n        /* \"#utility.yul\":6226:6286   */\n      swap2\n      swap1\n      pop\n      jump\t// out\n        /* \"#utility.yul\":6292:6434   */\n    tag_74:\n        /* \"#utility.yul\":6342:6351   */\n      0x00\n        /* \"#utility.yul\":6375:6428   */\n      tag_147\n        /* \"#utility.yul\":6393:6427   */\n      tag_148\n        /* \"#utility.yul\":6402:6426   */\n      tag_149\n        /* \"#utility.yul\":6420:6425   */\n      dup5\n        /* \"#utility.yul\":6402:6426   */\n      tag_64\n      jump\t// in\n    tag_149:\n        /* \"#utility.yul\":6393:6427   */\n      tag_73\n      jump\t// in\n    tag_148:\n        /* \"#utility.yul\":6375:6428   */\n      tag_64\n      jump\t// in\n    tag_147:\n        /* \"#utility.yul\":6362:6428   */\n      swap1\n      pop\n        /* \"#utility.yul\":6292:6434   */\n      swap2\n      swap1\n      pop\n      jump\t// out\n        /* \"#utility.yul\":6440:6515   */\n    tag_75:\n        /* \"#utility.yul\":6483:6486   */\n      0x00\n        /* \"#utility.yul\":6504:6509   */\n      dup2\n        /* \"#utility.yul\":6497:6509   */\n      swap1\n      pop\n        /* \"#utility.yul\":6440:6515   */\n      swap2\n      swap1\n      pop\n      jump\t// out\n        /* \"#utility.yul\":6521:6790   */\n    tag_76:\n        /* \"#utility.yul\":6631:6670   */\n      tag_152\n        /* \"#utility.yul\":6662:6669   */\n      dup4\n        /* \"#utility.yul\":6631:6670   */\n      tag_74\n      jump\t// in\n    tag_152:\n        /* \"#utility.yul\":6692:6783   */\n      tag_153\n        /* \"#utility.yul\":6741:6782   */\n      tag_154\n        /* \"#utility.yul\":6765:6781   */\n      dup3\n        /* \"#utility.yul\":6741:6782   */\n      tag_75\n      jump\t// in\n    tag_154:\n        /* \"#utility.yul\":6733:6739   */\n      dup5\n        /* \"#utility.yul\":6726:6730   */\n      dup5\n        /* \"#utility.yul\":6720:6731   */\n      sload\n        /* \"#utility.yul\":6692:6783   */\n      tag_72\n      jump\t// in\n    tag_153:\n        /* \"#utility.yul\":6686:6690   */\n      dup3\n        /* \"#utility.yul\":6679:6784   */\n      sstore\n        /* \"#utility.yul\":6597:6790   */\n      pop\n        /* \"#utility.yul\":6521:6790   */\n      pop\n      pop\n      pop\n      jump\t// out\n        /* \"#utility.yul\":6796:6869   */\n    tag_77:\n        /* \"#utility.yul\":6841:6844   */\n      0x00\n        /* \"#utility.yul\":6862:6863   */\n      0x00\n        /* \"#utility.yul\":6855:6863   */\n      swap1\n      pop\n        /* \"#utility.yul\":6796:6869   */\n      swap1\n      jump\t// out\n        /* \"#utility.yul\":6875:7064   */\n    tag_78:\n        /* \"#utility.yul\":6952:6984   */\n      tag_157\n      tag_77\n      jump\t// in\n    tag_157:\n        /* \"#utility.yul\":6993:7058   */\n      tag_158\n        /* \"#utility.yul\":7051:7057   */\n      dup2\n        /* \"#utility.yul\":7043:7049   */\n      dup5\n        /* \"#utility.yul\":7037:7041   */\n      dup5\n        /* \"#utility.yul\":6993:7058   */\n      tag_76\n      jump\t// in\n    tag_158:\n        /* \"#utility.yul\":6928:7064   */\n      pop\n        /* \"#utility.yul\":6875:7064   */\n      pop\n      pop\n      jump\t// out\n        /* \"#utility.yul\":7070:7256   */\n    tag_79:\n        /* \"#utility.yul\":7130:7250   */\n    tag_160:\n        /* \"#utility.yul\":7147:7150   */\n      dup2\n        /* \"#utility.yul\":7140:7145   */\n      dup2\n        /* \"#utility.yul\":7137:7151   */\n      lt\n        /* \"#utility.yul\":7130:7250   */\n      iszero\n      tag_162\n      jumpi\n        /* \"#utility.yul\":7201:7240   */\n      tag_163\n        /* \"#utility.yul\":7238:7239   */\n      0x00\n        /* \"#utility.yul\":7231:7236   */\n      dup3\n        /* \"#utility.yul\":7201:7240   */\n      tag_78\n      jump\t// in\n    tag_163:\n        /* \"#utility.yul\":7174:7175   */\n      0x01\n        /* \"#utility.yul\":7167:7172   */\n      dup2\n        /* \"#utility.yul\":7163:7176   */\n      add\n        /* \"#utility.yul\":7154:7176   */\n      swap1\n      pop\n        /* \"#utility.yul\":7130:7250   */\n      jump(tag_160)\n    tag_162:\n        /* \"#utility.yul\":7070:7256   */\n      pop\n      pop\n      jump\t// out\n        /* \"#utility.yul\":7262:7805   */\n    tag_80:\n        /* \"#utility.yul\":7363:7365   */\n      0x1f\n        /* \"#utility.yul\":7358:7361   */\n      dup3\n        /* \"#utility.yul\":7355:7366   */\n      gt\n        /* \"#utility.yul\":7352:7798   */\n      iszero\n      tag_165\n      jumpi\n        /* \"#utility.yul\":7397:7435   */\n      tag_166\n        /* \"#utility.yul\":7429:7434   */\n      dup2\n        /* \"#utility.yul\":7397:7435   */\n      tag_68\n      jump\t// in\n    tag_166:\n        /* \"#utility.yul\":7481:7510   */\n      tag_167\n        /* \"#utility.yul\":7499:7509   */\n      dup5\n        /* \"#utility.yul\":7481:7510   */\n      tag_70\n      jump\t// in\n    tag_167:\n        /* \"#utility.yul\":7471:7479   */\n      dup2\n        /* \"#utility.yul\":7467:7511   */\n      add\n        /* \"#utility.yul\":7664:7666   */\n      0x20\n        /* \"#utility.yul\":7652:7662   */\n      dup6\n        /* \"#utility.yul\":7649:7667   */\n      lt\n        /* \"#utility.yul\":7646:7695   */\n      iszero\n      tag_168\n      jumpi\n        /* \"#utility.yul\":7685:7693   */\n      dup2\n        /* \"#utility.yul\":7670:7693   */\n      swap1\n      pop\n        /* \"#utility.yul\":7646:7695   */\n    tag_168:\n        /* \"#utility.yul\":7708:7788   */\n      tag_169\n        /* \"#utility.yul\":7764:7786   */\n      tag_170\n        /* \"#utility.yul\":7782:7785   */\n      dup6\n        /* \"#utility.yul\":7764:7786   */\n      tag_70\n      jump\t// in\n    tag_170:\n        /* \"#utility.yul\":7754:7762   */\n      dup4\n        /* \"#utility.yul\":7750:7787   */\n      add\n        /* \"#utility.yul\":7737:7748   */\n      dup3\n        /* \"#utility.yul\":7708:7788   */\n      tag_79\n      jump\t// in\n    tag_169:\n        /* \"#utility.yul\":7367:7798   */\n      pop\n      pop\n        /* \"#utility.yul\":7352:7798   */\n    tag_165:\n        /* \"#utility.yul\":7262:7805   */\n      pop\n      pop\n      pop\n      jump\t// out\n        /* \"#utility.yul\":7811:7928   */\n    tag_81:\n        /* \"#utility.yul\":7865:7873   */\n      0x00\n        /* \"#utility.yul\":7915:7920   */\n      dup3\n        /* \"#utility.yul\":7909:7913   */\n      dup3\n        /* \"#utility.yul\":7905:7921   */\n      shr\n        /* \"#utility.yul\":7884:7921   */\n      swap1\n      pop\n        /* \"#utility.yul\":7811:7928   */\n      swap3\n      swap2\n      pop\n      pop\n      jump\t// out\n        /* \"#utility.yul\":7934:8103   */\n    tag_82:\n        /* \"#utility.yul\":7978:7984   */\n      0x00\n        /* \"#utility.yul\":8011:8062   */\n      tag_173\n        /* \"#utility.yul\":8059:8060   */\n      0x00\n        /* \"#utility.yul\":8055:8061   */\n      not\n        /* \"#utility.yul\":8047:8052   */\n      dup5\n        /* \"#utility.yul\":8044:8045   */\n      0x08\n        /* \"#utility.yul\":8040:8053   */\n      mul\n        /* \"#utility.yul\":8011:8062   */\n      tag_81\n      jump\t// in\n    tag_173:\n        /* \"#utility.yul\":8007:8063   */\n      not\n        /* \"#utility.yul\":8092:8096   */\n      dup1\n        /* \"#utility.yul\":8086:8090   */\n      dup4\n        /* \"#utility.yul\":8082:8097   */\n      and\n        /* \"#utility.yul\":8072:8097   */\n      swap2\n      pop\n        /* \"#utility.yul\":7985:8103   */\n      pop\n        /* \"#utility.yul\":7934:8103   */\n      swap3\n      swap2\n      pop\n      pop\n      jump\t// out\n        /* \"#utility.yul\":8108:8403   */\n    tag_83:\n        /* \"#utility.yul\":8184:8188   */\n      0x00\n        /* \"#utility.yul\":8330:8359   */\n      tag_175\n        /* \"#utility.yul\":8355:8358   */\n      dup4\n        /* \"#utility.yul\":8349:8353   */\n      dup4\n        /* \"#utility.yul\":8330:8359   */\n      tag_82\n      jump\t// in\n    tag_175:\n        /* \"#utility.yul\":8322:8359   */\n      swap2\n      pop\n        /* \"#utility.yul\":8392:8395   */\n      dup3\n        /* \"#utility.yul\":8389:8390   */\n      0x02\n        /* \"#utility.yul\":8385:8396   */\n      mul\n        /* \"#utility.yul\":8379:8383   */\n      dup3\n        /* \"#utility.yul\":8376:8397   */\n      or\n        /* \"#utility.yul\":8368:8397   */\n      swap1\n      pop\n        /* \"#utility.yul\":8108:8403   */\n      swap3\n      swap2\n      pop\n      pop\n      jump\t// out\n        /* \"#utility.yul\":8408:9871   */\n    tag_46:\n        /* \"#utility.yul\":8523:8526   */\n      dup2\n        /* \"#utility.yul\":8517:8521   */\n      dup2\n        /* \"#utility.yul\":8514:8527   */\n      sub\n        /* \"#utility.yul\":8511:8537   */\n      tag_177\n      jumpi\n        /* \"#utility.yul\":8530:8535   */\n      pop\n      pop\n      jump(tag_176)\n        /* \"#utility.yul\":8511:8537   */\n    tag_177:\n        /* \"#utility.yul\":8561:8599   */\n      tag_178\n        /* \"#utility.yul\":8595:8598   */\n      dup3\n        /* \"#utility.yul\":8561:8599   */\n      tag_66\n      jump\t// in\n    tag_178:\n        /* \"#utility.yul\":8664:8682   */\n      0xffffffffffffffff\n        /* \"#utility.yul\":8656:8662   */\n      dup2\n        /* \"#utility.yul\":8653:8683   */\n      gt\n        /* \"#utility.yul\":8650:8706   */\n      iszero\n      tag_179\n      jumpi\n        /* \"#utility.yul\":8686:8704   */\n      tag_180\n      tag_67\n      jump\t// in\n    tag_180:\n        /* \"#utility.yul\":8650:8706   */\n    tag_179:\n        /* \"#utility.yul\":8730:8768   */\n      tag_181\n        /* \"#utility.yul\":8762:8766   */\n      dup3\n        /* \"#utility.yul\":8756:8767   */\n      sload\n        /* \"#utility.yul\":8730:8768   */\n      tag_24\n      jump\t// in\n    tag_181:\n        /* \"#utility.yul\":8815:8882   */\n      tag_182\n        /* \"#utility.yul\":8875:8881   */\n      dup3\n        /* \"#utility.yul\":8867:8873   */\n      dup3\n        /* \"#utility.yul\":8861:8865   */\n      dup6\n        /* \"#utility.yul\":8815:8882   */\n      tag_80\n      jump\t// in\n    tag_182:\n        /* \"#utility.yul\":8909:8910   */\n      0x00\n        /* \"#utility.yul\":8938:8940   */\n      0x1f\n        /* \"#utility.yul\":8930:8936   */\n      dup4\n        /* \"#utility.yul\":8927:8941   */\n      gt\n        /* \"#utility.yul\":8955:8956   */\n      0x01\n        /* \"#utility.yul\":8950:9626   */\n      dup2\n      eq\n      tag_184\n      jumpi\n        /* \"#utility.yul\":9670:9671   */\n      0x00\n        /* \"#utility.yul\":9687:9693   */\n      dup5\n        /* \"#utility.yul\":9684:9761   */\n      iszero\n      tag_185\n      jumpi\n        /* \"#utility.yul\":9736:9745   */\n      dup3\n        /* \"#utility.yul\":9731:9734   */\n      dup8\n        /* \"#utility.yul\":9727:9746   */\n      add\n        /* \"#utility.yul\":9721:9747   */\n      sload\n        /* \"#utility.yul\":9712:9747   */\n      swap1\n      pop\n        /* \"#utility.yul\":9684:9761   */\n    tag_185:\n        /* \"#utility.yul\":9787:9854   */\n      tag_186\n        /* \"#utility.yul\":9847:9853   */\n      dup6\n        /* \"#utility.yul\":9840:9845   */\n      dup3\n        /* \"#utility.yul\":9787:9854   */\n      tag_83\n      jump\t// in\n    tag_186:\n        /* \"#utility.yul\":9781:9785   */\n      dup7\n        /* \"#utility.yul\":9774:9855   */\n      sstore\n        /* \"#utility.yul\":9643:9865   */\n      pop\n        /* \"#utility.yul\":8920:9865   */\n      jump(tag_183)\n        /* \"#utility.yul\":8950:9626   */\n    tag_184:\n        /* \"#utility.yul\":9002:9006   */\n      0x1f\n        /* \"#utility.yul\":8998:9007   */\n      not\n        /* \"#utility.yul\":8990:8996   */\n      dup5\n        /* \"#utility.yul\":8986:9008   */\n      and\n        /* \"#utility.yul\":9028:9068   */\n      tag_187\n        /* \"#utility.yul\":9064:9067   */\n      dup8\n        /* \"#utility.yul\":9028:9068   */\n      tag_69\n      jump\t// in\n    tag_187:\n        /* \"#utility.yul\":9021:9068   */\n      swap7\n      pop\n        /* \"#utility.yul\":9095:9132   */\n      tag_188\n        /* \"#utility.yul\":9127:9131   */\n      dup7\n        /* \"#utility.yul\":9095:9132   */\n      tag_68\n      jump\t// in\n    tag_188:\n        /* \"#utility.yul\":9154:9155   */\n      0x00\n        /* \"#utility.yul\":9168:9375   */\n    tag_189:\n        /* \"#utility.yul\":9182:9189   */\n      dup3\n        /* \"#utility.yul\":9179:9180   */\n      dup2\n        /* \"#utility.yul\":9176:9190   */\n      lt\n        /* \"#utility.yul\":9168:9375   */\n      iszero\n      tag_191\n      jumpi\n        /* \"#utility.yul\":9261:9270   */\n      dup5\n        /* \"#utility.yul\":9256:9259   */\n      dup10\n        /* \"#utility.yul\":9252:9271   */\n      add\n        /* \"#utility.yul\":9246:9272   */\n      sload\n        /* \"#utility.yul\":9238:9244   */\n      dup3\n        /* \"#utility.yul\":9231:9273   */\n      sstore\n        /* \"#utility.yul\":9312:9313   */\n      0x01\n        /* \"#utility.yul\":9304:9310   */\n      dup3\n        /* \"#utility.yul\":9300:9314   */\n      add\n        /* \"#utility.yul\":9290:9314   */\n      swap2\n      pop\n        /* \"#utility.yul\":9359:9360   */\n      0x01\n        /* \"#utility.yul\":9348:9357   */\n      dup6\n        /* \"#utility.yul\":9344:9361   */\n      add\n        /* \"#utility.yul\":9331:9361   */\n      swap5\n      pop\n        /* \"#utility.yul\":9205:9209   */\n      0x20\n        /* \"#utility.yul\":9202:9203   */\n      dup2\n        /* \"#utility.yul\":9198:9210   */\n      add\n        /* \"#utility.yul\":9193:9210   */\n      swap1\n      pop\n        /* \"#utility.yul\":9168:9375   */\n      jump(tag_189)\n    tag_191:\n        /* \"#utility.yul\":9403:9409   */\n      dup7\n        /* \"#utility.yul\":9394:9401   */\n      dup4\n        /* \"#utility.yul\":9391:9410   */\n      lt\n        /* \"#utility.yul\":9388:9567   */\n      iszero\n      tag_192\n      jumpi\n        /* \"#utility.yul\":9461:9470   */\n      dup5\n        /* \"#utility.yul\":9456:9459   */\n      dup10\n        /* \"#utility.yul\":9452:9471   */\n      add\n        /* \"#utility.yul\":9446:9472   */\n      sload\n        /* \"#utility.yul\":9504:9552   */\n      tag_193\n        /* \"#utility.yul\":9546:9550   */\n      0x1f\n        /* \"#utility.yul\":9538:9544   */\n      dup10\n        /* \"#utility.yul\":9534:9551   */\n      and\n        /* \"#utility.yul\":9523:9532   */\n      dup3\n        /* \"#utility.yul\":9504:9552   */\n      tag_82\n      jump\t// in\n    tag_193:\n        /* \"#utility.yul\":9496:9502   */\n      dup4\n        /* \"#utility.yul\":9489:9553   */\n      sstore\n        /* \"#utility.yul\":9411:9567   */\n      pop\n        /* \"#utility.yul\":9388:9567   */\n    tag_192:\n        /* \"#utility.yul\":9613:9614   */\n      0x01\n        /* \"#utility.yul\":9609:9610   */\n      0x02\n        /* \"#utility.yul\":9601:9607   */\n      dup9\n        /* \"#utility.yul\":9597:9611   */\n      mul\n        /* \"#utility.yul\":9593:9615   */\n      add\n        /* \"#utility.yul\":9587:9591   */\n      dup9\n        /* \"#utility.yul\":9580:9616   */\n      sstore\n        /* \"#utility.yul\":8957:9626   */\n      pop\n      pop\n      pop\n        /* \"#utility.yul\":8920:9865   */\n    tag_183:\n      pop\n        /* \"#utility.yul\":8501:9871   */\n      pop\n      pop\n      pop\n        /* \"#utility.yul\":8408:9871   */\n      pop\n      pop\n    tag_176:\n      jump\t// out\n\n    auxdata: 0xa2646970667358221220f0d4a3ae40b89a958f5ffb3207b5f0f3c929f8214ac8d3cbf736933dc915777f64736f6c634300081e0033\n}\n",
				"bytecode": {
					"linkReferences": {},
					"object": "60806040526040518061024001604052806040518060400160405280600f81526020017f4164616e612044656d697273706f72000000000000000000000000000000000081525081526020016040518060400160405280600a81526020017f416c616e796173706f720000000000000000000000000000000000000000000081525081526020016040518060400160405280600b81526020017f416e74616c796173706f7200000000000000000000000000000000000000000081525081526020016040518060400160405280600881526020017f426573696b74617300000000000000000000000000000000000000000000000081525081526020016040518060400160405280601081526020017f4661746968204b61726167756d72756b0000000000000000000000000000000081525081526020016040518060400160405280600a81526020017f46656e657262616863650000000000000000000000000000000000000000000081525081526020016040518060400160405280600b81526020017f47616c617461736172617900000000000000000000000000000000000000000081525081526020016040518060400160405280600c81526020017f47617a69616e74657020464b000000000000000000000000000000000000000081525081526020016040518060400160405280600b81526020017f4769726573756e73706f7200000000000000000000000000000000000000000081525081526020016040518060400160405280600981526020017f486174617973706f72000000000000000000000000000000000000000000000081525081526020016040518060400160405280601381526020017f497374616e62756c20426173616b73656869720000000000000000000000000081525081526020016040518060400160405280600c81526020017f497374616e62756c73706f72000000000000000000000000000000000000000081525081526020016040518060400160405280600981526020017f4b6173696d70617361000000000000000000000000000000000000000000000081525081526020016040518060400160405280600b81526020017f4b61797365726973706f7200000000000000000000000000000000000000000081525081526020016040518060400160405280600981526020017f4b6f6e796173706f72000000000000000000000000000000000000000000000081525081526020016040518060400160405280600e81526020017f4d4b4520416e6b6172616775637500000000000000000000000000000000000081525081526020016040518060400160405280600981526020017f536976617373706f72000000000000000000000000000000000000000000000081525081526020016040518060400160405280600b81526020017f547261627a6f6e73706f720000000000000000000000000000000000000000008152508152505f906012610443929190610455565b5034801561044f575f5ffd5b50610833565b828054828255905f5260205f2090810192821561049b579160200282015b8281111561049a57825182908161048a9190610764565b5091602001919060010190610473565b5b5090506104a891906104ac565b5090565b5b808211156104cb575f81816104c291906104cf565b506001016104ad565b5090565b5080546104db9061058b565b5f825580601f106104ec5750610509565b601f0160209004905f5260205f2090810190610508919061050c565b5b50565b5b80821115610523575f815f90555060010161050d565b5090565b5f81519050919050565b7f4e487b71000000000000000000000000000000000000000000000000000000005f52604160045260245ffd5b7f4e487b71000000000000000000000000000000000000000000000000000000005f52602260045260245ffd5b5f60028204905060018216806105a257607f821691505b6020821081036105b5576105b461055e565b5b50919050565b5f819050815f5260205f209050919050565b5f6020601f8301049050919050565b5f82821b905092915050565b5f600883026106177fffffffffffffffffffffffffffffffffffffffffffffffffffffffffffffffff826105dc565b61062186836105dc565b95508019841693508086168417925050509392505050565b5f819050919050565b5f819050919050565b5f61066561066061065b84610639565b610642565b610639565b9050919050565b5f819050919050565b61067e8361064b565b61069261068a8261066c565b8484546105e8565b825550505050565b5f5f905090565b6106a961069a565b6106b4818484610675565b505050565b5b818110156106d7576106cc5f826106a1565b6001810190506106ba565b5050565b601f82111561071c576106ed816105bb565b6106f6846105cd565b81016020851015610705578190505b610719610711856105cd565b8301826106b9565b50505b505050565b5f82821c905092915050565b5f61073c5f1984600802610721565b1980831691505092915050565b5f610754838361072d565b9150826002028217905092915050565b61076d82610527565b67ffffffffffffffff81111561078657610785610531565b5b610790825461058b565b61079b8282856106db565b5f60209050601f8311600181146107cc575f84156107ba578287015190505b6107c48582610749565b86555061082b565b601f1984166107da866105bb565b5f5b82811015610801578489015182556001820191506020850194506020810190506107dc565b8683101561081e578489015161081a601f89168261072d565b8355505b6001600288020188555050505b505050505050565b610965806108405f395ff3fe608060405234801561000f575f5ffd5b506004361061004a575f3560e01c8063112d5c651461004e578063775e779e1461007e5780639c8c3e80146100ae578063bcb4ab0e146100cc575b5f5ffd5b61006860048036038101906100639190610410565b6100d6565b60405161007591906104ab565b60405180910390f35b61009860048036038101906100939190610410565b610171565b6040516100a591906104e5565b60405180910390f35b6100b661018e565b6040516100c391906104ab565b60405180910390f35b6100d46102e2565b005b6001602052805f5260405f205f9150905080546100f29061052b565b80601f016020809104026020016040519081016040528092919081815260200182805461011e9061052b565b80156101695780601f1061014057610100808354040283529160200191610169565b820191905f5260205f20905b81548152906001019060200180831161014c57829003601f168201915b505050505081565b6002602052805f5260405f205f915054906101000a900460ff1681565b606060025f3373ffffffffffffffffffffffffffffffffffffffff1673ffffffffffffffffffffffffffffffffffffffff1681526020019081526020015f205f9054906101000a900460ff16610219576040517f08c379a0000000000000000000000000000000000000000000000000000000008152600401610210906105a5565b60405180910390fd5b60015f3373ffffffffffffffffffffffffffffffffffffffff1673ffffffffffffffffffffffffffffffffffffffff1681526020019081526020015f2080546102619061052b565b80601f016020809104026020016040519081016040528092919081815260200182805461028d9061052b565b80156102d85780601f106102af576101008083540402835291602001916102d8565b820191905f5260205f20905b8154815290600101906020018083116102bb57829003601f168201915b5050505050905090565b5f5f80549050426102f391906105f9565b90505f818154811061030857610307610629565b5b905f5260205f200160015f3373ffffffffffffffffffffffffffffffffffffffff1673ffffffffffffffffffffffffffffffffffffffff1681526020019081526020015f209081610359919061084a565b50600160025f3373ffffffffffffffffffffffffffffffffffffffff1673ffffffffffffffffffffffffffffffffffffffff1681526020019081526020015f205f6101000a81548160ff02191690831515021790555050565b5f5ffd5b5f73ffffffffffffffffffffffffffffffffffffffff82169050919050565b5f6103df826103b6565b9050919050565b6103ef816103d5565b81146103f9575f5ffd5b50565b5f8135905061040a816103e6565b92915050565b5f60208284031215610425576104246103b2565b5b5f610432848285016103fc565b91505092915050565b5f81519050919050565b5f82825260208201905092915050565b8281835e5f83830152505050565b5f601f19601f8301169050919050565b5f61047d8261043b565b6104878185610445565b9350610497818560208601610455565b6104a081610463565b840191505092915050565b5f6020820190508181035f8301526104c38184610473565b905092915050565b5f8115159050919050565b6104df816104cb565b82525050565b5f6020820190506104f85f8301846104d6565b92915050565b7f4e487b71000000000000000000000000000000000000000000000000000000005f52602260045260245ffd5b5f600282049050600182168061054257607f821691505b602082108103610555576105546104fe565b5b50919050565b7f596f7520686176656e27742073656c65637465642061207465616d20796574215f82015250565b5f61058f602083610445565b915061059a8261055b565b602082019050919050565b5f6020820190508181035f8301526105bc81610583565b9050919050565b5f819050919050565b7f4e487b71000000000000000000000000000000000000000000000000000000005f52601260045260245ffd5b5f610603826105c3565b915061060e836105c3565b92508261061e5761061d6105cc565b5b828206905092915050565b7f4e487b71000000000000000000000000000000000000000000000000000000005f52603260045260245ffd5b5f815490506106648161052b565b9050919050565b7f4e487b71000000000000000000000000000000000000000000000000000000005f52604160045260245ffd5b5f819050815f5260205f209050919050565b5f819050815f5260205f209050919050565b5f6020601f8301049050919050565b5f82821b905092915050565b5f600883026107067fffffffffffffffffffffffffffffffffffffffffffffffffffffffffffffffff826106cb565b61071086836106cb565b95508019841693508086168417925050509392505050565b5f819050919050565b5f61074b610746610741846105c3565b610728565b6105c3565b9050919050565b5f819050919050565b61076483610731565b61077861077082610752565b8484546106d7565b825550505050565b5f5f905090565b61078f610780565b61079a81848461075b565b505050565b5b818110156107bd576107b25f82610787565b6001810190506107a0565b5050565b601f821115610802576107d381610698565b6107dc846106bc565b810160208510156107eb578190505b6107ff6107f7856106bc565b83018261079f565b50505b505050565b5f82821c905092915050565b5f6108225f1984600802610807565b1980831691505092915050565b5f61083a8383610813565b9150826002028217905092915050565b81810361085857505061092d565b61086182610656565b67ffffffffffffffff81111561087a5761087961066b565b5b610884825461052b565b61088f8282856107c1565b5f601f8311600181146108bc575f84156108aa578287015490505b6108b4858261082f565b865550610926565b601f1984166108ca876106aa565b96506108d586610698565b5f5b828110156108fc578489015482556001820191506001850194506020810190506108d7565b868310156109195784890154610915601f891682610813565b8355505b6001600288020188555050505b5050505050505b56fea2646970667358221220f0d4a3ae40b89a958f5ffb3207b5f0f3c929f8214ac8d3cbf736933dc915777f64736f6c634300081e0033",
					"opcodes": "PUSH1 0x80 PUSH1 0x40 MSTORE PUSH1 0x40 MLOAD DUP1 PUSH2 0x240 ADD PUSH1 0x40 MSTORE DUP1 PUSH1 0x40 MLOAD DUP1 PUSH1 0x40 ADD PUSH1 0x40 MSTORE DUP1 PUSH1 0xF DUP2 MSTORE PUSH1 0x20 ADD PUSH32 0x4164616E612044656D697273706F720000000000000000000000000000000000 DUP2 MSTORE POP DUP2 MSTORE PUSH1 0x20 ADD PUSH1 0x40 MLOAD DUP1 PUSH1 0x40 ADD PUSH1 0x40 MSTORE DUP1 PUSH1 0xA DUP2 MSTORE PUSH1 0x20 ADD PUSH32 0x416C616E796173706F7200000000000000000000000000000000000000000000 DUP2 MSTORE POP DUP2 MSTORE PUSH1 0x20 ADD PUSH1 0x40 MLOAD DUP1 PUSH1 0x40 ADD PUSH1 0x40 MSTORE DUP1 PUSH1 0xB DUP2 MSTORE PUSH1 0x20 ADD PUSH32 0x416E74616C796173706F72000000000000000000000000000000000000000000 DUP2 MSTORE POP DUP2 MSTORE PUSH1 0x20 ADD PUSH1 0x40 MLOAD DUP1 PUSH1 0x40 ADD PUSH1 0x40 MSTORE DUP1 PUSH1 0x8 DUP2 MSTORE PUSH1 0x20 ADD PUSH32 0x426573696B746173000000000000000000000000000000000000000000000000 DUP2 MSTORE POP DUP2 MSTORE PUSH1 0x20 ADD PUSH1 0x40 MLOAD DUP1 PUSH1 0x40 ADD PUSH1 0x40 MSTORE DUP1 PUSH1 0x10 DUP2 MSTORE PUSH1 0x20 ADD PUSH32 0x4661746968204B61726167756D72756B00000000000000000000000000000000 DUP2 MSTORE POP DUP2 MSTORE PUSH1 0x20 ADD PUSH1 0x40 MLOAD DUP1 PUSH1 0x40 ADD PUSH1 0x40 MSTORE DUP1 PUSH1 0xA DUP2 MSTORE PUSH1 0x20 ADD PUSH32 0x46656E6572626168636500000000000000000000000000000000000000000000 DUP2 MSTORE POP DUP2 MSTORE PUSH1 0x20 ADD PUSH1 0x40 MLOAD DUP1 PUSH1 0x40 ADD PUSH1 0x40 MSTORE DUP1 PUSH1 0xB DUP2 MSTORE PUSH1 0x20 ADD PUSH32 0x47616C6174617361726179000000000000000000000000000000000000000000 DUP2 MSTORE POP DUP2 MSTORE PUSH1 0x20 ADD PUSH1 0x40 MLOAD DUP1 PUSH1 0x40 ADD PUSH1 0x40 MSTORE DUP1 PUSH1 0xC DUP2 MSTORE PUSH1 0x20 ADD PUSH32 0x47617A69616E74657020464B0000000000000000000000000000000000000000 DUP2 MSTORE POP DUP2 MSTORE PUSH1 0x20 ADD PUSH1 0x40 MLOAD DUP1 PUSH1 0x40 ADD PUSH1 0x40 MSTORE DUP1 PUSH1 0xB DUP2 MSTORE PUSH1 0x20 ADD PUSH32 0x4769726573756E73706F72000000000000000000000000000000000000000000 DUP2 MSTORE POP DUP2 MSTORE PUSH1 0x20 ADD PUSH1 0x40 MLOAD DUP1 PUSH1 0x40 ADD PUSH1 0x40 MSTORE DUP1 PUSH1 0x9 DUP2 MSTORE PUSH1 0x20 ADD PUSH32 0x486174617973706F720000000000000000000000000000000000000000000000 DUP2 MSTORE POP DUP2 MSTORE PUSH1 0x20 ADD PUSH1 0x40 MLOAD DUP1 PUSH1 0x40 ADD PUSH1 0x40 MSTORE DUP1 PUSH1 0x13 DUP2 MSTORE PUSH1 0x20 ADD PUSH32 0x497374616E62756C20426173616B736568697200000000000000000000000000 DUP2 MSTORE POP DUP2 MSTORE PUSH1 0x20 ADD PUSH1 0x40 MLOAD DUP1 PUSH1 0x40 ADD PUSH1 0x40 MSTORE DUP1 PUSH1 0xC DUP2 MSTORE PUSH1 0x20 ADD PUSH32 0x497374616E62756C73706F720000000000000000000000000000000000000000 DUP2 MSTORE POP DUP2 MSTORE PUSH1 0x20 ADD PUSH1 0x40 MLOAD DUP1 PUSH1 0x40 ADD PUSH1 0x40 MSTORE DUP1 PUSH1 0x9 DUP2 MSTORE PUSH1 0x20 ADD PUSH32 0x4B6173696D706173610000000000000000000000000000000000000000000000 DUP2 MSTORE POP DUP2 MSTORE PUSH1 0x20 ADD PUSH1 0x40 MLOAD DUP1 PUSH1 0x40 ADD PUSH1 0x40 MSTORE DUP1 PUSH1 0xB DUP2 MSTORE PUSH1 0x20 ADD PUSH32 0x4B61797365726973706F72000000000000000000000000000000000000000000 DUP2 MSTORE POP DUP2 MSTORE PUSH1 0x20 ADD PUSH1 0x40 MLOAD DUP1 PUSH1 0x40 ADD PUSH1 0x40 MSTORE DUP1 PUSH1 0x9 DUP2 MSTORE PUSH1 0x20 ADD PUSH32 0x4B6F6E796173706F720000000000000000000000000000000000000000000000 DUP2 MSTORE POP DUP2 MSTORE PUSH1 0x20 ADD PUSH1 0x40 MLOAD DUP1 PUSH1 0x40 ADD PUSH1 0x40 MSTORE DUP1 PUSH1 0xE DUP2 MSTORE PUSH1 0x20 ADD PUSH32 0x4D4B4520416E6B61726167756375000000000000000000000000000000000000 DUP2 MSTORE POP DUP2 MSTORE PUSH1 0x20 ADD PUSH1 0x40 MLOAD DUP1 PUSH1 0x40 ADD PUSH1 0x40 MSTORE DUP1 PUSH1 0x9 DUP2 MSTORE PUSH1 0x20 ADD PUSH32 0x536976617373706F720000000000000000000000000000000000000000000000 DUP2 MSTORE POP DUP2 MSTORE PUSH1 0x20 ADD PUSH1 0x40 MLOAD DUP1 PUSH1 0x40 ADD PUSH1 0x40 MSTORE DUP1 PUSH1 0xB DUP2 MSTORE PUSH1 0x20 ADD PUSH32 0x547261627A6F6E73706F72000000000000000000000000000000000000000000 DUP2 MSTORE POP DUP2 MSTORE POP PUSH0 SWAP1 PUSH1 0x12 PUSH2 0x443 SWAP3 SWAP2 SWAP1 PUSH2 0x455 JUMP JUMPDEST POP CALLVALUE DUP1 ISZERO PUSH2 0x44F JUMPI PUSH0 PUSH0 REVERT JUMPDEST POP PUSH2 0x833 JUMP JUMPDEST DUP3 DUP1 SLOAD DUP3 DUP3 SSTORE SWAP1 PUSH0 MSTORE PUSH1 0x20 PUSH0 KECCAK256 SWAP1 DUP2 ADD SWAP3 DUP3 ISZERO PUSH2 0x49B JUMPI SWAP2 PUSH1 0x20 MUL DUP3 ADD JUMPDEST DUP3 DUP2 GT ISZERO PUSH2 0x49A JUMPI DUP3 MLOAD DUP3 SWAP1 DUP2 PUSH2 0x48A SWAP2 SWAP1 PUSH2 0x764 JUMP JUMPDEST POP SWAP2 PUSH1 0x20 ADD SWAP2 SWAP1 PUSH1 0x1 ADD SWAP1 PUSH2 0x473 JUMP JUMPDEST JUMPDEST POP SWAP1 POP PUSH2 0x4A8 SWAP2 SWAP1 PUSH2 0x4AC JUMP JUMPDEST POP SWAP1 JUMP JUMPDEST JUMPDEST DUP1 DUP3 GT ISZERO PUSH2 0x4CB JUMPI PUSH0 DUP2 DUP2 PUSH2 0x4C2 SWAP2 SWAP1 PUSH2 0x4CF JUMP JUMPDEST POP PUSH1 0x1 ADD PUSH2 0x4AD JUMP JUMPDEST POP SWAP1 JUMP JUMPDEST POP DUP1 SLOAD PUSH2 0x4DB SWAP1 PUSH2 0x58B JUMP JUMPDEST PUSH0 DUP3 SSTORE DUP1 PUSH1 0x1F LT PUSH2 0x4EC JUMPI POP PUSH2 0x509 JUMP JUMPDEST PUSH1 0x1F ADD PUSH1 0x20 SWAP1 DIV SWAP1 PUSH0 MSTORE PUSH1 0x20 PUSH0 KECCAK256 SWAP1 DUP2 ADD SWAP1 PUSH2 0x508 SWAP2 SWAP1 PUSH2 0x50C JUMP JUMPDEST JUMPDEST POP JUMP JUMPDEST JUMPDEST DUP1 DUP3 GT ISZERO PUSH2 0x523 JUMPI PUSH0 DUP2 PUSH0 SWAP1 SSTORE POP PUSH1 0x1 ADD PUSH2 0x50D JUMP JUMPDEST POP SWAP1 JUMP JUMPDEST PUSH0 DUP2 MLOAD SWAP1 POP SWAP2 SWAP1 POP JUMP JUMPDEST PUSH32 0x4E487B7100000000000000000000000000000000000000000000000000000000 PUSH0 MSTORE PUSH1 0x41 PUSH1 0x4 MSTORE PUSH1 0x24 PUSH0 REVERT JUMPDEST PUSH32 0x4E487B7100000000000000000000000000000000000000000000000000000000 PUSH0 MSTORE PUSH1 0x22 PUSH1 0x4 MSTORE PUSH1 0x24 PUSH0 REVERT JUMPDEST PUSH0 PUSH1 0x2 DUP3 DIV SWAP1 POP PUSH1 0x1 DUP3 AND DUP1 PUSH2 0x5A2 JUMPI PUSH1 0x7F DUP3 AND SWAP2 POP JUMPDEST PUSH1 0x20 DUP3 LT DUP2 SUB PUSH2 0x5B5 JUMPI PUSH2 0x5B4 PUSH2 0x55E JUMP JUMPDEST JUMPDEST POP SWAP2 SWAP1 POP JUMP JUMPDEST PUSH0 DUP2 SWAP1 POP DUP2 PUSH0 MSTORE PUSH1 0x20 PUSH0 KECCAK256 SWAP1 POP SWAP2 SWAP1 POP JUMP JUMPDEST PUSH0 PUSH1 0x20 PUSH1 0x1F DUP4 ADD DIV SWAP1 POP SWAP2 SWAP1 POP JUMP JUMPDEST PUSH0 DUP3 DUP3 SHL SWAP1 POP SWAP3 SWAP2 POP POP JUMP JUMPDEST PUSH0 PUSH1 0x8 DUP4 MUL PUSH2 0x617 PUSH32 0xFFFFFFFFFFFFFFFFFFFFFFFFFFFFFFFFFFFFFFFFFFFFFFFFFFFFFFFFFFFFFFFF DUP3 PUSH2 0x5DC JUMP JUMPDEST PUSH2 0x621 DUP7 DUP4 PUSH2 0x5DC JUMP JUMPDEST SWAP6 POP DUP1 NOT DUP5 AND SWAP4 POP DUP1 DUP7 AND DUP5 OR SWAP3 POP POP POP SWAP4 SWAP3 POP POP POP JUMP JUMPDEST PUSH0 DUP2 SWAP1 POP SWAP2 SWAP1 POP JUMP JUMPDEST PUSH0 DUP2 SWAP1 POP SWAP2 SWAP1 POP JUMP JUMPDEST PUSH0 PUSH2 0x665 PUSH2 0x660 PUSH2 0x65B DUP5 PUSH2 0x639 JUMP JUMPDEST PUSH2 0x642 JUMP JUMPDEST PUSH2 0x639 JUMP JUMPDEST SWAP1 POP SWAP2 SWAP1 POP JUMP JUMPDEST PUSH0 DUP2 SWAP1 POP SWAP2 SWAP1 POP JUMP JUMPDEST PUSH2 0x67E DUP4 PUSH2 0x64B JUMP JUMPDEST PUSH2 0x692 PUSH2 0x68A DUP3 PUSH2 0x66C JUMP JUMPDEST DUP5 DUP5 SLOAD PUSH2 0x5E8 JUMP JUMPDEST DUP3 SSTORE POP POP POP POP JUMP JUMPDEST PUSH0 PUSH0 SWAP1 POP SWAP1 JUMP JUMPDEST PUSH2 0x6A9 PUSH2 0x69A JUMP JUMPDEST PUSH2 0x6B4 DUP2 DUP5 DUP5 PUSH2 0x675 JUMP JUMPDEST POP POP POP JUMP JUMPDEST JUMPDEST DUP2 DUP2 LT ISZERO PUSH2 0x6D7 JUMPI PUSH2 0x6CC PUSH0 DUP3 PUSH2 0x6A1 JUMP JUMPDEST PUSH1 0x1 DUP2 ADD SWAP1 POP PUSH2 0x6BA JUMP JUMPDEST POP POP JUMP JUMPDEST PUSH1 0x1F DUP3 GT ISZERO PUSH2 0x71C JUMPI PUSH2 0x6ED DUP2 PUSH2 0x5BB JUMP JUMPDEST PUSH2 0x6F6 DUP5 PUSH2 0x5CD JUMP JUMPDEST DUP2 ADD PUSH1 0x20 DUP6 LT ISZERO PUSH2 0x705 JUMPI DUP2 SWAP1 POP JUMPDEST PUSH2 0x719 PUSH2 0x711 DUP6 PUSH2 0x5CD JUMP JUMPDEST DUP4 ADD DUP3 PUSH2 0x6B9 JUMP JUMPDEST POP POP JUMPDEST POP POP POP JUMP JUMPDEST PUSH0 DUP3 DUP3 SHR SWAP1 POP SWAP3 SWAP2 POP POP JUMP JUMPDEST PUSH0 PUSH2 0x73C PUSH0 NOT DUP5 PUSH1 0x8 MUL PUSH2 0x721 JUMP JUMPDEST NOT DUP1 DUP4 AND SWAP2 POP POP SWAP3 SWAP2 POP POP JUMP JUMPDEST PUSH0 PUSH2 0x754 DUP4 DUP4 PUSH2 0x72D JUMP JUMPDEST SWAP2 POP DUP3 PUSH1 0x2 MUL DUP3 OR SWAP1 POP SWAP3 SWAP2 POP POP JUMP JUMPDEST PUSH2 0x76D DUP3 PUSH2 0x527 JUMP JUMPDEST PUSH8 0xFFFFFFFFFFFFFFFF DUP2 GT ISZERO PUSH2 0x786 JUMPI PUSH2 0x785 PUSH2 0x531 JUMP JUMPDEST JUMPDEST PUSH2 0x790 DUP3 SLOAD PUSH2 0x58B JUMP JUMPDEST PUSH2 0x79B DUP3 DUP3 DUP6 PUSH2 0x6DB JUMP JUMPDEST PUSH0 PUSH1 0x20 SWAP1 POP PUSH1 0x1F DUP4 GT PUSH1 0x1 DUP2 EQ PUSH2 0x7CC JUMPI PUSH0 DUP5 ISZERO PUSH2 0x7BA JUMPI DUP3 DUP8 ADD MLOAD SWAP1 POP JUMPDEST PUSH2 0x7C4 DUP6 DUP3 PUSH2 0x749 JUMP JUMPDEST DUP7 SSTORE POP PUSH2 0x82B JUMP JUMPDEST PUSH1 0x1F NOT DUP5 AND PUSH2 0x7DA DUP7 PUSH2 0x5BB JUMP JUMPDEST PUSH0 JUMPDEST DUP3 DUP2 LT ISZERO PUSH2 0x801 JUMPI DUP5 DUP10 ADD MLOAD DUP3 SSTORE PUSH1 0x1 DUP3 ADD SWAP2 POP PUSH1 0x20 DUP6 ADD SWAP5 POP PUSH1 0x20 DUP2 ADD SWAP1 POP PUSH2 0x7DC JUMP JUMPDEST DUP7 DUP4 LT ISZERO PUSH2 0x81E JUMPI DUP5 DUP10 ADD MLOAD PUSH2 0x81A PUSH1 0x1F DUP10 AND DUP3 PUSH2 0x72D JUMP JUMPDEST DUP4 SSTORE POP JUMPDEST PUSH1 0x1 PUSH1 0x2 DUP9 MUL ADD DUP9 SSTORE POP POP POP JUMPDEST POP POP POP POP POP POP JUMP JUMPDEST PUSH2 0x965 DUP1 PUSH2 0x840 PUSH0 CODECOPY PUSH0 RETURN INVALID PUSH1 0x80 PUSH1 0x40 MSTORE CALLVALUE DUP1 ISZERO PUSH2 0xF JUMPI PUSH0 PUSH0 REVERT JUMPDEST POP PUSH1 0x4 CALLDATASIZE LT PUSH2 0x4A JUMPI PUSH0 CALLDATALOAD PUSH1 0xE0 SHR DUP1 PUSH4 0x112D5C65 EQ PUSH2 0x4E JUMPI DUP1 PUSH4 0x775E779E EQ PUSH2 0x7E JUMPI DUP1 PUSH4 0x9C8C3E80 EQ PUSH2 0xAE JUMPI DUP1 PUSH4 0xBCB4AB0E EQ PUSH2 0xCC JUMPI JUMPDEST PUSH0 PUSH0 REVERT JUMPDEST PUSH2 0x68 PUSH1 0x4 DUP1 CALLDATASIZE SUB DUP2 ADD SWAP1 PUSH2 0x63 SWAP2 SWAP1 PUSH2 0x410 JUMP JUMPDEST PUSH2 0xD6 JUMP JUMPDEST PUSH1 0x40 MLOAD PUSH2 0x75 SWAP2 SWAP1 PUSH2 0x4AB JUMP JUMPDEST PUSH1 0x40 MLOAD DUP1 SWAP2 SUB SWAP1 RETURN JUMPDEST PUSH2 0x98 PUSH1 0x4 DUP1 CALLDATASIZE SUB DUP2 ADD SWAP1 PUSH2 0x93 SWAP2 SWAP1 PUSH2 0x410 JUMP JUMPDEST PUSH2 0x171 JUMP JUMPDEST PUSH1 0x40 MLOAD PUSH2 0xA5 SWAP2 SWAP1 PUSH2 0x4E5 JUMP JUMPDEST PUSH1 0x40 MLOAD DUP1 SWAP2 SUB SWAP1 RETURN JUMPDEST PUSH2 0xB6 PUSH2 0x18E JUMP JUMPDEST PUSH1 0x40 MLOAD PUSH2 0xC3 SWAP2 SWAP1 PUSH2 0x4AB JUMP JUMPDEST PUSH1 0x40 MLOAD DUP1 SWAP2 SUB SWAP1 RETURN JUMPDEST PUSH2 0xD4 PUSH2 0x2E2 JUMP JUMPDEST STOP JUMPDEST PUSH1 0x1 PUSH1 0x20 MSTORE DUP1 PUSH0 MSTORE PUSH1 0x40 PUSH0 KECCAK256 PUSH0 SWAP2 POP SWAP1 POP DUP1 SLOAD PUSH2 0xF2 SWAP1 PUSH2 0x52B JUMP JUMPDEST DUP1 PUSH1 0x1F ADD PUSH1 0x20 DUP1 SWAP2 DIV MUL PUSH1 0x20 ADD PUSH1 0x40 MLOAD SWAP1 DUP2 ADD PUSH1 0x40 MSTORE DUP1 SWAP3 SWAP2 SWAP1 DUP2 DUP2 MSTORE PUSH1 0x20 ADD DUP3 DUP1 SLOAD PUSH2 0x11E SWAP1 PUSH2 0x52B JUMP JUMPDEST DUP1 ISZERO PUSH2 0x169 JUMPI DUP1 PUSH1 0x1F LT PUSH2 0x140 JUMPI PUSH2 0x100 DUP1 DUP4 SLOAD DIV MUL DUP4 MSTORE SWAP2 PUSH1 0x20 ADD SWAP2 PUSH2 0x169 JUMP JUMPDEST DUP3 ADD SWAP2 SWAP1 PUSH0 MSTORE PUSH1 0x20 PUSH0 KECCAK256 SWAP1 JUMPDEST DUP2 SLOAD DUP2 MSTORE SWAP1 PUSH1 0x1 ADD SWAP1 PUSH1 0x20 ADD DUP1 DUP4 GT PUSH2 0x14C JUMPI DUP3 SWAP1 SUB PUSH1 0x1F AND DUP3 ADD SWAP2 JUMPDEST POP POP POP POP POP DUP2 JUMP JUMPDEST PUSH1 0x2 PUSH1 0x20 MSTORE DUP1 PUSH0 MSTORE PUSH1 0x40 PUSH0 KECCAK256 PUSH0 SWAP2 POP SLOAD SWAP1 PUSH2 0x100 EXP SWAP1 DIV PUSH1 0xFF AND DUP2 JUMP JUMPDEST PUSH1 0x60 PUSH1 0x2 PUSH0 CALLER PUSH20 0xFFFFFFFFFFFFFFFFFFFFFFFFFFFFFFFFFFFFFFFF AND PUSH20 0xFFFFFFFFFFFFFFFFFFFFFFFFFFFFFFFFFFFFFFFF AND DUP2 MSTORE PUSH1 0x20 ADD SWAP1 DUP2 MSTORE PUSH1 0x20 ADD PUSH0 KECCAK256 PUSH0 SWAP1 SLOAD SWAP1 PUSH2 0x100 EXP SWAP1 DIV PUSH1 0xFF AND PUSH2 0x219 JUMPI PUSH1 0x40 MLOAD PUSH32 0x8C379A000000000000000000000000000000000000000000000000000000000 DUP2 MSTORE PUSH1 0x4 ADD PUSH2 0x210 SWAP1 PUSH2 0x5A5 JUMP JUMPDEST PUSH1 0x40 MLOAD DUP1 SWAP2 SUB SWAP1 REVERT JUMPDEST PUSH1 0x1 PUSH0 CALLER PUSH20 0xFFFFFFFFFFFFFFFFFFFFFFFFFFFFFFFFFFFFFFFF AND PUSH20 0xFFFFFFFFFFFFFFFFFFFFFFFFFFFFFFFFFFFFFFFF AND DUP2 MSTORE PUSH1 0x20 ADD SWAP1 DUP2 MSTORE PUSH1 0x20 ADD PUSH0 KECCAK256 DUP1 SLOAD PUSH2 0x261 SWAP1 PUSH2 0x52B JUMP JUMPDEST DUP1 PUSH1 0x1F ADD PUSH1 0x20 DUP1 SWAP2 DIV MUL PUSH1 0x20 ADD PUSH1 0x40 MLOAD SWAP1 DUP2 ADD PUSH1 0x40 MSTORE DUP1 SWAP3 SWAP2 SWAP1 DUP2 DUP2 MSTORE PUSH1 0x20 ADD DUP3 DUP1 SLOAD PUSH2 0x28D SWAP1 PUSH2 0x52B JUMP JUMPDEST DUP1 ISZERO PUSH2 0x2D8 JUMPI DUP1 PUSH1 0x1F LT PUSH2 0x2AF JUMPI PUSH2 0x100 DUP1 DUP4 SLOAD DIV MUL DUP4 MSTORE SWAP2 PUSH1 0x20 ADD SWAP2 PUSH2 0x2D8 JUMP JUMPDEST DUP3 ADD SWAP2 SWAP1 PUSH0 MSTORE PUSH1 0x20 PUSH0 KECCAK256 SWAP1 JUMPDEST DUP2 SLOAD DUP2 MSTORE SWAP1 PUSH1 0x1 ADD SWAP1 PUSH1 0x20 ADD DUP1 DUP4 GT PUSH2 0x2BB JUMPI DUP3 SWAP1 SUB PUSH1 0x1F AND DUP3 ADD SWAP2 JUMPDEST POP POP POP POP POP SWAP1 POP SWAP1 JUMP JUMPDEST PUSH0 PUSH0 DUP1 SLOAD SWAP1 POP TIMESTAMP PUSH2 0x2F3 SWAP2 SWAP1 PUSH2 0x5F9 JUMP JUMPDEST SWAP1 POP PUSH0 DUP2 DUP2 SLOAD DUP2 LT PUSH2 0x308 JUMPI PUSH2 0x307 PUSH2 0x629 JUMP JUMPDEST JUMPDEST SWAP1 PUSH0 MSTORE PUSH1 0x20 PUSH0 KECCAK256 ADD PUSH1 0x1 PUSH0 CALLER PUSH20 0xFFFFFFFFFFFFFFFFFFFFFFFFFFFFFFFFFFFFFFFF AND PUSH20 0xFFFFFFFFFFFFFFFFFFFFFFFFFFFFFFFFFFFFFFFF AND DUP2 MSTORE PUSH1 0x20 ADD SWAP1 DUP2 MSTORE PUSH1 0x20 ADD PUSH0 KECCAK256 SWAP1 DUP2 PUSH2 0x359 SWAP2 SWAP1 PUSH2 0x84A JUMP JUMPDEST POP PUSH1 0x1 PUSH1 0x2 PUSH0 CALLER PUSH20 0xFFFFFFFFFFFFFFFFFFFFFFFFFFFFFFFFFFFFFFFF AND PUSH20 0xFFFFFFFFFFFFFFFFFFFFFFFFFFFFFFFFFFFFFFFF AND DUP2 MSTORE PUSH1 0x20 ADD SWAP1 DUP2 MSTORE PUSH1 0x20 ADD PUSH0 KECCAK256 PUSH0 PUSH2 0x100 EXP DUP2 SLOAD DUP2 PUSH1 0xFF MUL NOT AND SWAP1 DUP4 ISZERO ISZERO MUL OR SWAP1 SSTORE POP POP JUMP JUMPDEST PUSH0 PUSH0 REVERT JUMPDEST PUSH0 PUSH20 0xFFFFFFFFFFFFFFFFFFFFFFFFFFFFFFFFFFFFFFFF DUP3 AND SWAP1 POP SWAP2 SWAP1 POP JUMP JUMPDEST PUSH0 PUSH2 0x3DF DUP3 PUSH2 0x3B6 JUMP JUMPDEST SWAP1 POP SWAP2 SWAP1 POP JUMP JUMPDEST PUSH2 0x3EF DUP2 PUSH2 0x3D5 JUMP JUMPDEST DUP2 EQ PUSH2 0x3F9 JUMPI PUSH0 PUSH0 REVERT JUMPDEST POP JUMP JUMPDEST PUSH0 DUP2 CALLDATALOAD SWAP1 POP PUSH2 0x40A DUP2 PUSH2 0x3E6 JUMP JUMPDEST SWAP3 SWAP2 POP POP JUMP JUMPDEST PUSH0 PUSH1 0x20 DUP3 DUP5 SUB SLT ISZERO PUSH2 0x425 JUMPI PUSH2 0x424 PUSH2 0x3B2 JUMP JUMPDEST JUMPDEST PUSH0 PUSH2 0x432 DUP5 DUP3 DUP6 ADD PUSH2 0x3FC JUMP JUMPDEST SWAP2 POP POP SWAP3 SWAP2 POP POP JUMP JUMPDEST PUSH0 DUP2 MLOAD SWAP1 POP SWAP2 SWAP1 POP JUMP JUMPDEST PUSH0 DUP3 DUP3 MSTORE PUSH1 0x20 DUP3 ADD SWAP1 POP SWAP3 SWAP2 POP POP JUMP JUMPDEST DUP3 DUP2 DUP4 MCOPY PUSH0 DUP4 DUP4 ADD MSTORE POP POP POP JUMP JUMPDEST PUSH0 PUSH1 0x1F NOT PUSH1 0x1F DUP4 ADD AND SWAP1 POP SWAP2 SWAP1 POP JUMP JUMPDEST PUSH0 PUSH2 0x47D DUP3 PUSH2 0x43B JUMP JUMPDEST PUSH2 0x487 DUP2 DUP6 PUSH2 0x445 JUMP JUMPDEST SWAP4 POP PUSH2 0x497 DUP2 DUP6 PUSH1 0x20 DUP7 ADD PUSH2 0x455 JUMP JUMPDEST PUSH2 0x4A0 DUP2 PUSH2 0x463 JUMP JUMPDEST DUP5 ADD SWAP2 POP POP SWAP3 SWAP2 POP POP JUMP JUMPDEST PUSH0 PUSH1 0x20 DUP3 ADD SWAP1 POP DUP2 DUP2 SUB PUSH0 DUP4 ADD MSTORE PUSH2 0x4C3 DUP2 DUP5 PUSH2 0x473 JUMP JUMPDEST SWAP1 POP SWAP3 SWAP2 POP POP JUMP JUMPDEST PUSH0 DUP2 ISZERO ISZERO SWAP1 POP SWAP2 SWAP1 POP JUMP JUMPDEST PUSH2 0x4DF DUP2 PUSH2 0x4CB JUMP JUMPDEST DUP3 MSTORE POP POP JUMP JUMPDEST PUSH0 PUSH1 0x20 DUP3 ADD SWAP1 POP PUSH2 0x4F8 PUSH0 DUP4 ADD DUP5 PUSH2 0x4D6 JUMP JUMPDEST SWAP3 SWAP2 POP POP JUMP JUMPDEST PUSH32 0x4E487B7100000000000000000000000000000000000000000000000000000000 PUSH0 MSTORE PUSH1 0x22 PUSH1 0x4 MSTORE PUSH1 0x24 PUSH0 REVERT JUMPDEST PUSH0 PUSH1 0x2 DUP3 DIV SWAP1 POP PUSH1 0x1 DUP3 AND DUP1 PUSH2 0x542 JUMPI PUSH1 0x7F DUP3 AND SWAP2 POP JUMPDEST PUSH1 0x20 DUP3 LT DUP2 SUB PUSH2 0x555 JUMPI PUSH2 0x554 PUSH2 0x4FE JUMP JUMPDEST JUMPDEST POP SWAP2 SWAP1 POP JUMP JUMPDEST PUSH32 0x596F7520686176656E27742073656C65637465642061207465616D2079657421 PUSH0 DUP3 ADD MSTORE POP JUMP JUMPDEST PUSH0 PUSH2 0x58F PUSH1 0x20 DUP4 PUSH2 0x445 JUMP JUMPDEST SWAP2 POP PUSH2 0x59A DUP3 PUSH2 0x55B JUMP JUMPDEST PUSH1 0x20 DUP3 ADD SWAP1 POP SWAP2 SWAP1 POP JUMP JUMPDEST PUSH0 PUSH1 0x20 DUP3 ADD SWAP1 POP DUP2 DUP2 SUB PUSH0 DUP4 ADD MSTORE PUSH2 0x5BC DUP2 PUSH2 0x583 JUMP JUMPDEST SWAP1 POP SWAP2 SWAP1 POP JUMP JUMPDEST PUSH0 DUP2 SWAP1 POP SWAP2 SWAP1 POP JUMP JUMPDEST PUSH32 0x4E487B7100000000000000000000000000000000000000000000000000000000 PUSH0 MSTORE PUSH1 0x12 PUSH1 0x4 MSTORE PUSH1 0x24 PUSH0 REVERT JUMPDEST PUSH0 PUSH2 0x603 DUP3 PUSH2 0x5C3 JUMP JUMPDEST SWAP2 POP PUSH2 0x60E DUP4 PUSH2 0x5C3 JUMP JUMPDEST SWAP3 POP DUP3 PUSH2 0x61E JUMPI PUSH2 0x61D PUSH2 0x5CC JUMP JUMPDEST JUMPDEST DUP3 DUP3 MOD SWAP1 POP SWAP3 SWAP2 POP POP JUMP JUMPDEST PUSH32 0x4E487B7100000000000000000000000000000000000000000000000000000000 PUSH0 MSTORE PUSH1 0x32 PUSH1 0x4 MSTORE PUSH1 0x24 PUSH0 REVERT JUMPDEST PUSH0 DUP2 SLOAD SWAP1 POP PUSH2 0x664 DUP2 PUSH2 0x52B JUMP JUMPDEST SWAP1 POP SWAP2 SWAP1 POP JUMP JUMPDEST PUSH32 0x4E487B7100000000000000000000000000000000000000000000000000000000 PUSH0 MSTORE PUSH1 0x41 PUSH1 0x4 MSTORE PUSH1 0x24 PUSH0 REVERT JUMPDEST PUSH0 DUP2 SWAP1 POP DUP2 PUSH0 MSTORE PUSH1 0x20 PUSH0 KECCAK256 SWAP1 POP SWAP2 SWAP1 POP JUMP JUMPDEST PUSH0 DUP2 SWAP1 POP DUP2 PUSH0 MSTORE PUSH1 0x20 PUSH0 KECCAK256 SWAP1 POP SWAP2 SWAP1 POP JUMP JUMPDEST PUSH0 PUSH1 0x20 PUSH1 0x1F DUP4 ADD DIV SWAP1 POP SWAP2 SWAP1 POP JUMP JUMPDEST PUSH0 DUP3 DUP3 SHL SWAP1 POP SWAP3 SWAP2 POP POP JUMP JUMPDEST PUSH0 PUSH1 0x8 DUP4 MUL PUSH2 0x706 PUSH32 0xFFFFFFFFFFFFFFFFFFFFFFFFFFFFFFFFFFFFFFFFFFFFFFFFFFFFFFFFFFFFFFFF DUP3 PUSH2 0x6CB JUMP JUMPDEST PUSH2 0x710 DUP7 DUP4 PUSH2 0x6CB JUMP JUMPDEST SWAP6 POP DUP1 NOT DUP5 AND SWAP4 POP DUP1 DUP7 AND DUP5 OR SWAP3 POP POP POP SWAP4 SWAP3 POP POP POP JUMP JUMPDEST PUSH0 DUP2 SWAP1 POP SWAP2 SWAP1 POP JUMP JUMPDEST PUSH0 PUSH2 0x74B PUSH2 0x746 PUSH2 0x741 DUP5 PUSH2 0x5C3 JUMP JUMPDEST PUSH2 0x728 JUMP JUMPDEST PUSH2 0x5C3 JUMP JUMPDEST SWAP1 POP SWAP2 SWAP1 POP JUMP JUMPDEST PUSH0 DUP2 SWAP1 POP SWAP2 SWAP1 POP JUMP JUMPDEST PUSH2 0x764 DUP4 PUSH2 0x731 JUMP JUMPDEST PUSH2 0x778 PUSH2 0x770 DUP3 PUSH2 0x752 JUMP JUMPDEST DUP5 DUP5 SLOAD PUSH2 0x6D7 JUMP JUMPDEST DUP3 SSTORE POP POP POP POP JUMP JUMPDEST PUSH0 PUSH0 SWAP1 POP SWAP1 JUMP JUMPDEST PUSH2 0x78F PUSH2 0x780 JUMP JUMPDEST PUSH2 0x79A DUP2 DUP5 DUP5 PUSH2 0x75B JUMP JUMPDEST POP POP POP JUMP JUMPDEST JUMPDEST DUP2 DUP2 LT ISZERO PUSH2 0x7BD JUMPI PUSH2 0x7B2 PUSH0 DUP3 PUSH2 0x787 JUMP JUMPDEST PUSH1 0x1 DUP2 ADD SWAP1 POP PUSH2 0x7A0 JUMP JUMPDEST POP POP JUMP JUMPDEST PUSH1 0x1F DUP3 GT ISZERO PUSH2 0x802 JUMPI PUSH2 0x7D3 DUP2 PUSH2 0x698 JUMP JUMPDEST PUSH2 0x7DC DUP5 PUSH2 0x6BC JUMP JUMPDEST DUP2 ADD PUSH1 0x20 DUP6 LT ISZERO PUSH2 0x7EB JUMPI DUP2 SWAP1 POP JUMPDEST PUSH2 0x7FF PUSH2 0x7F7 DUP6 PUSH2 0x6BC JUMP JUMPDEST DUP4 ADD DUP3 PUSH2 0x79F JUMP JUMPDEST POP POP JUMPDEST POP POP POP JUMP JUMPDEST PUSH0 DUP3 DUP3 SHR SWAP1 POP SWAP3 SWAP2 POP POP JUMP JUMPDEST PUSH0 PUSH2 0x822 PUSH0 NOT DUP5 PUSH1 0x8 MUL PUSH2 0x807 JUMP JUMPDEST NOT DUP1 DUP4 AND SWAP2 POP POP SWAP3 SWAP2 POP POP JUMP JUMPDEST PUSH0 PUSH2 0x83A DUP4 DUP4 PUSH2 0x813 JUMP JUMPDEST SWAP2 POP DUP3 PUSH1 0x2 MUL DUP3 OR SWAP1 POP SWAP3 SWAP2 POP POP JUMP JUMPDEST DUP2 DUP2 SUB PUSH2 0x858 JUMPI POP POP PUSH2 0x92D JUMP JUMPDEST PUSH2 0x861 DUP3 PUSH2 0x656 JUMP JUMPDEST PUSH8 0xFFFFFFFFFFFFFFFF DUP2 GT ISZERO PUSH2 0x87A JUMPI PUSH2 0x879 PUSH2 0x66B JUMP JUMPDEST JUMPDEST PUSH2 0x884 DUP3 SLOAD PUSH2 0x52B JUMP JUMPDEST PUSH2 0x88F DUP3 DUP3 DUP6 PUSH2 0x7C1 JUMP JUMPDEST PUSH0 PUSH1 0x1F DUP4 GT PUSH1 0x1 DUP2 EQ PUSH2 0x8BC JUMPI PUSH0 DUP5 ISZERO PUSH2 0x8AA JUMPI DUP3 DUP8 ADD SLOAD SWAP1 POP JUMPDEST PUSH2 0x8B4 DUP6 DUP3 PUSH2 0x82F JUMP JUMPDEST DUP7 SSTORE POP PUSH2 0x926 JUMP JUMPDEST PUSH1 0x1F NOT DUP5 AND PUSH2 0x8CA DUP8 PUSH2 0x6AA JUMP JUMPDEST SWAP7 POP PUSH2 0x8D5 DUP7 PUSH2 0x698 JUMP JUMPDEST PUSH0 JUMPDEST DUP3 DUP2 LT ISZERO PUSH2 0x8FC JUMPI DUP5 DUP10 ADD SLOAD DUP3 SSTORE PUSH1 0x1 DUP3 ADD SWAP2 POP PUSH1 0x1 DUP6 ADD SWAP5 POP PUSH1 0x20 DUP2 ADD SWAP1 POP PUSH2 0x8D7 JUMP JUMPDEST DUP7 DUP4 LT ISZERO PUSH2 0x919 JUMPI DUP5 DUP10 ADD SLOAD PUSH2 0x915 PUSH1 0x1F DUP10 AND DUP3 PUSH2 0x813 JUMP JUMPDEST DUP4 SSTORE POP JUMPDEST PUSH1 0x1 PUSH1 0x2 DUP9 MUL ADD DUP9 SSTORE POP POP POP JUMPDEST POP POP POP POP POP POP JUMPDEST JUMP INVALID LOG2 PUSH5 0x6970667358 0x22 SLT KECCAK256 CREATE 0xD4 LOG3 0xAE BLOCKHASH 0xB8 SWAP11 SWAP6 DUP16 PUSH0 EXTSTATICCALL ORIGIN SMOD 0xB5 CREATE RETURN 0xC9 0x29 EXTCALL 0x21 BLOBBASEFEE 0xC8 0xD3 0xCB 0xF7 CALLDATASIZE SWAP4 RETURNDATASIZE 0xC9 ISZERO PUSH24 0x7F64736F6C634300081E0033000000000000000000000000 "
				},
				"gasEstimates": {
					"creation": {
						"codeDepositCost": "481000",
						"executionCost": "infinite",
						"totalCost": "infinite"
					},
					"external": {
						"getMyTeam()": "infinite",
						"hasTeam(address)": "2833",
						"userTeam(address)": "infinite",
						"write()": "infinite"
					}
				},
				"methodIdentifiers": {
					"getMyTeam()": "9c8c3e80",
					"hasTeam(address)": "775e779e",
					"userTeam(address)": "112d5c65",
					"write()": "bcb4ab0e"
				}
			},
			"storageLayout": {
				"storage": [
					{
						"astId": 22,
						"contract": "contracts/superleagueversion.sol:SuperLigTeamSelector",
						"label": "teams",
						"offset": 0,
						"slot": "0",
						"type": "t_array(t_string_storage)dyn_storage"
					},
					{
						"astId": 26,
						"contract": "contracts/superleagueversion.sol:SuperLigTeamSelector",
						"label": "userTeam",
						"offset": 0,
						"slot": "1",
						"type": "t_mapping(t_address,t_string_storage)"
					},
					{
						"astId": 30,
						"contract": "contracts/superleagueversion.sol:SuperLigTeamSelector",
						"label": "hasTeam",
						"offset": 0,
						"slot": "2",
						"type": "t_mapping(t_address,t_bool)"
					}
				],
				"types": {
					"t_address": {
						"encoding": "inplace",
						"label": "address",
						"numberOfBytes": "20"
					},
					"t_array(t_string_storage)dyn_storage": {
						"base": "t_string_storage",
						"encoding": "dynamic_array",
						"label": "string[]",
						"numberOfBytes": "32"
					},
					"t_bool": {
						"encoding": "inplace",
						"label": "bool",
						"numberOfBytes": "1"
					},
					"t_mapping(t_address,t_bool)": {
						"encoding": "mapping",
						"key": "t_address",
						"label": "mapping(address => bool)",
						"numberOfBytes": "32",
						"value": "t_bool"
					},
					"t_mapping(t_address,t_string_storage)": {
						"encoding": "mapping",
						"key": "t_address",
						"label": "mapping(address => string)",
						"numberOfBytes": "32",
						"value": "t_string_storage"
					},
					"t_string_storage": {
						"encoding": "bytes",
						"label": "string",
						"numberOfBytes": "32"
					}
				}
			},
			"userdoc": {
				"kind": "user",
				"methods": {},
				"version": 1
			}
		}
	}
}