{
	"contracts/nbateamselector.sol": {
		"NBATeamSelector": {
			"abi": [
				{
					"inputs": [],
					"name": "getMyTeam",
					"outputs": [
						{
							"internalType": "string",
							"name": "",
							"type": "string"
						}
					],
					"stateMutability": "view",
					"type": "function"
				},
				{
					"inputs": [
						{
							"internalType": "address",
							"name": "",
							"type": "address"
						}
					],
					"name": "userTeam",
					"outputs": [
						{
							"internalType": "string",
							"name": "",
							"type": "string"
						}
					],
					"stateMutability": "view",
					"type": "function"
				},
				{
					"inputs": [],
					"name": "write",
					"outputs": [],
					"stateMutability": "nonpayable",
					"type": "function"
				}
			],
			"devdoc": {
				"kind": "dev",
				"methods": {},
				"version": 1
			},
			"evm": {
				"assembly": "    /* \"contracts/nbateamselector.sol\":60:1471  contract NBATeamSelector {... */\n  mstore(0x40, 0x80)\n    /* \"contracts/nbateamselector.sol\":126:832  string[] private teams = [... */\n  mload(0x40)\n  dup1\n  0x03c0\n  add\n  0x40\n  mstore\n  dup1\n  mload(0x40)\n  dup1\n  0x40\n  add\n  0x40\n  mstore\n  dup1\n  0x0d\n  dup2\n  mstore\n  0x20\n  add\n  0x41746c616e7461204861776b7300000000000000000000000000000000000000\n  dup2\n  mstore\n  pop\n  dup2\n  mstore\n  0x20\n  add\n  mload(0x40)\n  dup1\n  0x40\n  add\n  0x40\n  mstore\n  dup1\n  0x0e\n  dup2\n  mstore\n  0x20\n  add\n  0x426f73746f6e2043656c74696373000000000000000000000000000000000000\n  dup2\n  mstore\n  pop\n  dup2\n  mstore\n  0x20\n  add\n  mload(0x40)\n  dup1\n  0x40\n  add\n  0x40\n  mstore\n  dup1\n  0x0d\n  dup2\n  mstore\n  0x20\n  add\n  0x42726f6f6b6c796e204e65747300000000000000000000000000000000000000\n  dup2\n  mstore\n  pop\n  dup2\n  mstore\n  0x20\n  add\n  mload(0x40)\n  dup1\n  0x40\n  add\n  0x40\n  mstore\n  dup1\n  0x11\n  dup2\n  mstore\n  0x20\n  add\n  0x436861726c6f74746520486f726e657473000000000000000000000000000000\n  dup2\n  mstore\n  pop\n  dup2\n  mstore\n  0x20\n  add\n  mload(0x40)\n  dup1\n  0x40\n  add\n  0x40\n  mstore\n  dup1\n  0x0d\n  dup2\n  mstore\n  0x20\n  add\n  0x4368696361676f2042756c6c7300000000000000000000000000000000000000\n  dup2\n  mstore\n  pop\n  dup2\n  mstore\n  0x20\n  add\n  mload(0x40)\n  dup1\n  0x40\n  add\n  0x40\n  mstore\n  dup1\n  0x13\n  dup2\n  mstore\n  0x20\n  add\n  0x436c6576656c616e6420436176616c6965727300000000000000000000000000\n  dup2\n  mstore\n  pop\n  dup2\n  mstore\n  0x20\n  add\n  mload(0x40)\n  dup1\n  0x40\n  add\n  0x40\n  mstore\n  dup1\n  0x10\n  dup2\n  mstore\n  0x20\n  add\n  0x44616c6c6173204d6176657269636b7300000000000000000000000000000000\n  dup2\n  mstore\n  pop\n  dup2\n  mstore\n  0x20\n  add\n  mload(0x40)\n  dup1\n  0x40\n  add\n  0x40\n  mstore\n  dup1\n  0x0e\n  dup2\n  mstore\n  0x20\n  add\n  0x44656e766572204e756767657473000000000000000000000000000000000000\n  dup2\n  mstore\n  pop\n  dup2\n  mstore\n  0x20\n  add\n  mload(0x40)\n  dup1\n  0x40\n  add\n  0x40\n  mstore\n  dup1\n  0x0f\n  dup2\n  mstore\n  0x20\n  add\n  0x446574726f697420506973746f6e730000000000000000000000000000000000\n  dup2\n  mstore\n  pop\n  dup2\n  mstore\n  0x20\n  add\n  mload(0x40)\n  dup1\n  0x40\n  add\n  0x40\n  mstore\n  dup1\n  0x15\n  dup2\n  mstore\n  0x20\n  add\n  0x476f6c64656e2053746174652057617272696f72730000000000000000000000\n  dup2\n  mstore\n  pop\n  dup2\n  mstore\n  0x20\n  add\n  mload(0x40)\n  dup1\n  0x40\n  add\n  0x40\n  mstore\n  dup1\n  0x0f\n  dup2\n  mstore\n  0x20\n  add\n  0x486f7573746f6e20526f636b6574730000000000000000000000000000000000\n  dup2\n  mstore\n  pop\n  dup2\n  mstore\n  0x20\n  add\n  mload(0x40)\n  dup1\n  0x40\n  add\n  0x40\n  mstore\n  dup1\n  0x0e\n  dup2\n  mstore\n  0x20\n  add\n  0x496e6469616e6120506163657273000000000000000000000000000000000000\n  dup2\n  mstore\n  pop\n  dup2\n  mstore\n  0x20\n  add\n  mload(0x40)\n  dup1\n  0x40\n  add\n  0x40\n  mstore\n  dup1\n  0x14\n  dup2\n  mstore\n  0x20\n  add\n  0x4c6f7320416e67656c657320436c697070657273000000000000000000000000\n  dup2\n  mstore\n  pop\n  dup2\n  mstore\n  0x20\n  add\n  mload(0x40)\n  dup1\n  0x40\n  add\n  0x40\n  mstore\n  dup1\n  0x12\n  dup2\n  mstore\n  0x20\n  add\n  0x4c6f7320416e67656c6573204c616b6572730000000000000000000000000000\n  dup2\n  mstore\n  pop\n  dup2\n  mstore\n  0x20\n  add\n  mload(0x40)\n  dup1\n  0x40\n  add\n  0x40\n  mstore\n  dup1\n  0x11\n  dup2\n  mstore\n  0x20\n  add\n  0x4d656d70686973204772697a7a6c696573000000000000000000000000000000\n  dup2\n  mstore\n  pop\n  dup2\n  mstore\n  0x20\n  add\n  mload(0x40)\n  dup1\n  0x40\n  add\n  0x40\n  mstore\n  dup1\n  0x0a\n  dup2\n  mstore\n  0x20\n  add\n  0x4d69616d69204865617400000000000000000000000000000000000000000000\n  dup2\n  mstore\n  pop\n  dup2\n  mstore\n  0x20\n  add\n  mload(0x40)\n  dup1\n  0x40\n  add\n  0x40\n  mstore\n  dup1\n  0x0f\n  dup2\n  mstore\n  0x20\n  add\n  0x4d696c7761756b6565204275636b730000000000000000000000000000000000\n  dup2\n  mstore\n  pop\n  dup2\n  mstore\n  0x20\n  add\n  mload(0x40)\n  dup1\n  0x40\n  add\n  0x40\n  mstore\n  dup1\n  0x16\n  dup2\n  mstore\n  0x20\n  add\n  0x4d696e6e65736f74612054696d626572776f6c76657300000000000000000000\n  dup2\n  mstore\n  pop\n  dup2\n  mstore\n  0x20\n  add\n  mload(0x40)\n  dup1\n  0x40\n  add\n  0x40\n  mstore\n  dup1\n  0x14\n  dup2\n  mstore\n  0x20\n  add\n  0x4e6577204f726c65616e732050656c6963616e73000000000000000000000000\n  dup2\n  mstore\n  pop\n  dup2\n  mstore\n  0x20\n  add\n  mload(0x40)\n  dup1\n  0x40\n  add\n  0x40\n  mstore\n  dup1\n  0x0f\n  dup2\n  mstore\n  0x20\n  add\n  0x4e657720596f726b204b6e69636b730000000000000000000000000000000000\n  dup2\n  mstore\n  pop\n  dup2\n  mstore\n  0x20\n  add\n  mload(0x40)\n  dup1\n  0x40\n  add\n  0x40\n  mstore\n  dup1\n  0x15\n  dup2\n  mstore\n  0x20\n  add\n  0x4f6b6c61686f6d612043697479205468756e6465720000000000000000000000\n  dup2\n  mstore\n  pop\n  dup2\n  mstore\n  0x20\n  add\n  mload(0x40)\n  dup1\n  0x40\n  add\n  0x40\n  mstore\n  dup1\n  0x0d\n  dup2\n  mstore\n  0x20\n  add\n  0x4f726c616e646f204d6167696300000000000000000000000000000000000000\n  dup2\n  mstore\n  pop\n  dup2\n  mstore\n  0x20\n  add\n  mload(0x40)\n  dup1\n  0x40\n  add\n  0x40\n  mstore\n  dup1\n  0x12\n  dup2\n  mstore\n  0x20\n  add\n  0x5068696c6164656c706869612037366572730000000000000000000000000000\n  dup2\n  mstore\n  pop\n  dup2\n  mstore\n  0x20\n  add\n  mload(0x40)\n  dup1\n  0x40\n  add\n  0x40\n  mstore\n  dup1\n  0x0c\n  dup2\n  mstore\n  0x20\n  add\n  0x50686f656e69782053756e730000000000000000000000000000000000000000\n  dup2\n  mstore\n  pop\n  dup2\n  mstore\n  0x20\n  add\n  mload(0x40)\n  dup1\n  0x40\n  add\n  0x40\n  mstore\n  dup1\n  0x16\n  dup2\n  mstore\n  0x20\n  add\n  0x506f72746c616e6420547261696c20426c617a65727300000000000000000000\n  dup2\n  mstore\n  pop\n  dup2\n  mstore\n  0x20\n  add\n  mload(0x40)\n  dup1\n  0x40\n  add\n  0x40\n  mstore\n  dup1\n  0x10\n  dup2\n  mstore\n  0x20\n  add\n  0x53616372616d656e746f204b696e677300000000000000000000000000000000\n  dup2\n  mstore\n  pop\n  dup2\n  mstore\n  0x20\n  add\n  mload(0x40)\n  dup1\n  0x40\n  add\n  0x40\n  mstore\n  dup1\n  0x11\n  dup2\n  mstore\n  0x20\n  add\n  0x53616e20416e746f6e696f205370757273000000000000000000000000000000\n  dup2\n  mstore\n  pop\n  dup2\n  mstore\n  0x20\n  add\n  mload(0x40)\n  dup1\n  0x40\n  add\n  0x40\n  mstore\n  dup1\n  0x0f\n  dup2\n  mstore\n  0x20\n  add\n  0x546f726f6e746f20526170746f72730000000000000000000000000000000000\n  dup2\n  mstore\n  pop\n  dup2\n  mstore\n  0x20\n  add\n  mload(0x40)\n  dup1\n  0x40\n  add\n  0x40\n  mstore\n  dup1\n  0x09\n  dup2\n  mstore\n  0x20\n  add\n  0x55746168204a617a7a0000000000000000000000000000000000000000000000\n  dup2\n  mstore\n  pop\n  dup2\n  mstore\n  0x20\n  add\n  mload(0x40)\n  dup1\n  0x40\n  add\n  0x40\n  mstore\n  dup1\n  0x12\n  dup2\n  mstore\n  0x20\n  add\n  0x57617368696e67746f6e2057697a617264730000000000000000000000000000\n  dup2\n  mstore\n  pop\n  dup2\n  mstore\n  pop\n  0x00\n  swap1\n  0x1e\n  tag_1\n  swap3\n  swap2\n  swap1\n  tag_2\n  jump\t// in\ntag_1:\n  pop\n    /* \"contracts/nbateamselector.sol\":60:1471  contract NBATeamSelector {... */\n  callvalue\n  dup1\n  iszero\n  tag_3\n  jumpi\n  revert(0x00, 0x00)\ntag_3:\n  pop\n  jump(tag_4)\ntag_2:\n  dup3\n  dup1\n  sload\n  dup3\n  dup3\n  sstore\n  swap1\n  0x00\n  mstore\n  keccak256(0x00, 0x20)\n  swap1\n  dup2\n  add\n  swap3\n  dup3\n  iszero\n  tag_5\n  jumpi\n  swap2\n  0x20\n  mul\n  dup3\n  add\ntag_6:\n  dup3\n  dup2\n  gt\n  iszero\n  tag_7\n  jumpi\n  dup3\n  mload\n  dup3\n  swap1\n  dup2\n  tag_8\n  swap2\n  swap1\n  tag_9\n  jump\t// in\ntag_8:\n  pop\n  swap2\n  0x20\n  add\n  swap2\n  swap1\n  0x01\n  add\n  swap1\n  jump(tag_6)\ntag_7:\ntag_5:\n  pop\n  swap1\n  pop\n  tag_10\n  swap2\n  swap1\n  tag_11\n  jump\t// in\ntag_10:\n  pop\n  swap1\n  jump\t// out\ntag_11:\ntag_12:\n  dup1\n  dup3\n  gt\n  iszero\n  tag_13\n  jumpi\n  0x00\n  dup2\n  dup2\n  tag_14\n  swap2\n  swap1\n  tag_15\n  jump\t// in\ntag_14:\n  pop\n  0x01\n  add\n  jump(tag_12)\ntag_13:\n  pop\n  swap1\n  jump\t// out\ntag_15:\n  pop\n  dup1\n  sload\n  tag_16\n  swap1\n  tag_17\n  jump\t// in\ntag_16:\n  0x00\n  dup3\n  sstore\n  dup1\n  0x1f\n  lt\n  tag_19\n  jumpi\n  pop\n  jump(tag_18)\ntag_19:\n  0x1f\n  add\n  0x20\n  swap1\n  div\n  swap1\n  0x00\n  mstore\n  keccak256(0x00, 0x20)\n  swap1\n  dup2\n  add\n  swap1\n  tag_20\n  swap2\n  swap1\n  tag_21\n  jump\t// in\ntag_20:\ntag_18:\n  pop\n  jump\t// out\ntag_21:\ntag_22:\n  dup1\n  dup3\n  gt\n  iszero\n  tag_23\n  jumpi\n  0x00\n  dup2\n  0x00\n  swap1\n  sstore\n  pop\n  0x01\n  add\n  jump(tag_22)\ntag_23:\n  pop\n  swap1\n  jump\t// out\n    /* \"#utility.yul\":7:106   */\ntag_24:\n    /* \"#utility.yul\":59:65   */\n  0x00\n    /* \"#utility.yul\":93:98   */\n  dup2\n    /* \"#utility.yul\":87:99   */\n  mload\n    /* \"#utility.yul\":77:99   */\n  swap1\n  pop\n    /* \"#utility.yul\":7:106   */\n  swap2\n  swap1\n  pop\n  jump\t// out\n    /* \"#utility.yul\":112:292   */\ntag_25:\n    /* \"#utility.yul\":160:237   */\n  0x4e487b7100000000000000000000000000000000000000000000000000000000\n    /* \"#utility.yul\":157:158   */\n  0x00\n    /* \"#utility.yul\":150:238   */\n  mstore\n    /* \"#utility.yul\":257:261   */\n  0x41\n    /* \"#utility.yul\":254:255   */\n  0x04\n    /* \"#utility.yul\":247:262   */\n  mstore\n    /* \"#utility.yul\":281:285   */\n  0x24\n    /* \"#utility.yul\":278:279   */\n  0x00\n    /* \"#utility.yul\":271:286   */\n  revert\n    /* \"#utility.yul\":298:478   */\ntag_26:\n    /* \"#utility.yul\":346:423   */\n  0x4e487b7100000000000000000000000000000000000000000000000000000000\n    /* \"#utility.yul\":343:344   */\n  0x00\n    /* \"#utility.yul\":336:424   */\n  mstore\n    /* \"#utility.yul\":443:447   */\n  0x22\n    /* \"#utility.yul\":440:441   */\n  0x04\n    /* \"#utility.yul\":433:448   */\n  mstore\n    /* \"#utility.yul\":467:471   */\n  0x24\n    /* \"#utility.yul\":464:465   */\n  0x00\n    /* \"#utility.yul\":457:472   */\n  revert\n    /* \"#utility.yul\":484:804   */\ntag_17:\n    /* \"#utility.yul\":528:534   */\n  0x00\n    /* \"#utility.yul\":565:566   */\n  0x02\n    /* \"#utility.yul\":559:563   */\n  dup3\n    /* \"#utility.yul\":555:567   */\n  div\n    /* \"#utility.yul\":545:567   */\n  swap1\n  pop\n    /* \"#utility.yul\":612:613   */\n  0x01\n    /* \"#utility.yul\":606:610   */\n  dup3\n    /* \"#utility.yul\":602:614   */\n  and\n    /* \"#utility.yul\":633:651   */\n  dup1\n    /* \"#utility.yul\":623:704   */\n  tag_48\n  jumpi\n    /* \"#utility.yul\":689:693   */\n  0x7f\n    /* \"#utility.yul\":681:687   */\n  dup3\n    /* \"#utility.yul\":677:694   */\n  and\n    /* \"#utility.yul\":667:694   */\n  swap2\n  pop\n    /* \"#utility.yul\":623:704   */\ntag_48:\n    /* \"#utility.yul\":751:753   */\n  0x20\n    /* \"#utility.yul\":743:749   */\n  dup3\n    /* \"#utility.yul\":740:754   */\n  lt\n    /* \"#utility.yul\":720:738   */\n  dup2\n    /* \"#utility.yul\":717:755   */\n  sub\n    /* \"#utility.yul\":714:798   */\n  tag_49\n  jumpi\n    /* \"#utility.yul\":770:788   */\n  tag_50\n  tag_26\n  jump\t// in\ntag_50:\n    /* \"#utility.yul\":714:798   */\ntag_49:\n    /* \"#utility.yul\":535:804   */\n  pop\n    /* \"#utility.yul\":484:804   */\n  swap2\n  swap1\n  pop\n  jump\t// out\n    /* \"#utility.yul\":810:951   */\ntag_27:\n    /* \"#utility.yul\":859:863   */\n  0x00\n    /* \"#utility.yul\":882:885   */\n  dup2\n    /* \"#utility.yul\":874:885   */\n  swap1\n  pop\n    /* \"#utility.yul\":905:908   */\n  dup2\n    /* \"#utility.yul\":902:903   */\n  0x00\n    /* \"#utility.yul\":895:909   */\n  mstore\n    /* \"#utility.yul\":939:943   */\n  0x20\n    /* \"#utility.yul\":936:937   */\n  0x00\n    /* \"#utility.yul\":926:944   */\n  keccak256\n    /* \"#utility.yul\":918:944   */\n  swap1\n  pop\n    /* \"#utility.yul\":810:951   */\n  swap2\n  swap1\n  pop\n  jump\t// out\n    /* \"#utility.yul\":957:1050   */\ntag_28:\n    /* \"#utility.yul\":994:1000   */\n  0x00\n    /* \"#utility.yul\":1041:1043   */\n  0x20\n    /* \"#utility.yul\":1036:1038   */\n  0x1f\n    /* \"#utility.yul\":1029:1034   */\n  dup4\n    /* \"#utility.yul\":1025:1039   */\n  add\n    /* \"#utility.yul\":1021:1044   */\n  div\n    /* \"#utility.yul\":1011:1044   */\n  swap1\n  pop\n    /* \"#utility.yul\":957:1050   */\n  swap2\n  swap1\n  pop\n  jump\t// out\n    /* \"#utility.yul\":1056:1163   */\ntag_29:\n    /* \"#utility.yul\":1100:1108   */\n  0x00\n    /* \"#utility.yul\":1150:1155   */\n  dup3\n    /* \"#utility.yul\":1144:1148   */\n  dup3\n    /* \"#utility.yul\":1140:1156   */\n  shl\n    /* \"#utility.yul\":1119:1156   */\n  swap1\n  pop\n    /* \"#utility.yul\":1056:1163   */\n  swap3\n  swap2\n  pop\n  pop\n  jump\t// out\n    /* \"#utility.yul\":1169:1562   */\ntag_30:\n    /* \"#utility.yul\":1238:1244   */\n  0x00\n    /* \"#utility.yul\":1288:1289   */\n  0x08\n    /* \"#utility.yul\":1276:1286   */\n  dup4\n    /* \"#utility.yul\":1272:1290   */\n  mul\n    /* \"#utility.yul\":1311:1408   */\n  tag_55\n    /* \"#utility.yul\":1341:1407   */\n  0xffffffffffffffffffffffffffffffffffffffffffffffffffffffffffffffff\n    /* \"#utility.yul\":1330:1339   */\n  dup3\n    /* \"#utility.yul\":1311:1408   */\n  tag_29\n  jump\t// in\ntag_55:\n    /* \"#utility.yul\":1429:1468   */\n  tag_56\n    /* \"#utility.yul\":1459:1467   */\n  dup7\n    /* \"#utility.yul\":1448:1457   */\n  dup4\n    /* \"#utility.yul\":1429:1468   */\n  tag_29\n  jump\t// in\ntag_56:\n    /* \"#utility.yul\":1417:1468   */\n  swap6\n  pop\n    /* \"#utility.yul\":1501:1505   */\n  dup1\n    /* \"#utility.yul\":1497:1506   */\n  not\n    /* \"#utility.yul\":1490:1495   */\n  dup5\n    /* \"#utility.yul\":1486:1507   */\n  and\n    /* \"#utility.yul\":1477:1507   */\n  swap4\n  pop\n    /* \"#utility.yul\":1550:1554   */\n  dup1\n    /* \"#utility.yul\":1540:1548   */\n  dup7\n    /* \"#utility.yul\":1536:1555   */\n  and\n    /* \"#utility.yul\":1529:1534   */\n  dup5\n    /* \"#utility.yul\":1526:1556   */\n  or\n    /* \"#utility.yul\":1516:1556   */\n  swap3\n  pop\n    /* \"#utility.yul\":1245:1562   */\n  pop\n  pop\n    /* \"#utility.yul\":1169:1562   */\n  swap4\n  swap3\n  pop\n  pop\n  pop\n  jump\t// out\n    /* \"#utility.yul\":1568:1645   */\ntag_31:\n    /* \"#utility.yul\":1605:1612   */\n  0x00\n    /* \"#utility.yul\":1634:1639   */\n  dup2\n    /* \"#utility.yul\":1623:1639   */\n  swap1\n  pop\n    /* \"#utility.yul\":1568:1645   */\n  swap2\n  swap1\n  pop\n  jump\t// out\n    /* \"#utility.yul\":1651:1711   */\ntag_32:\n    /* \"#utility.yul\":1679:1682   */\n  0x00\n    /* \"#utility.yul\":1700:1705   */\n  dup2\n    /* \"#utility.yul\":1693:1705   */\n  swap1\n  pop\n    /* \"#utility.yul\":1651:1711   */\n  swap2\n  swap1\n  pop\n  jump\t// out\n    /* \"#utility.yul\":1717:1859   */\ntag_33:\n    /* \"#utility.yul\":1767:1776   */\n  0x00\n    /* \"#utility.yul\":1800:1853   */\n  tag_60\n    /* \"#utility.yul\":1818:1852   */\n  tag_61\n    /* \"#utility.yul\":1827:1851   */\n  tag_62\n    /* \"#utility.yul\":1845:1850   */\n  dup5\n    /* \"#utility.yul\":1827:1851   */\n  tag_31\n  jump\t// in\ntag_62:\n    /* \"#utility.yul\":1818:1852   */\n  tag_32\n  jump\t// in\ntag_61:\n    /* \"#utility.yul\":1800:1853   */\n  tag_31\n  jump\t// in\ntag_60:\n    /* \"#utility.yul\":1787:1853   */\n  swap1\n  pop\n    /* \"#utility.yul\":1717:1859   */\n  swap2\n  swap1\n  pop\n  jump\t// out\n    /* \"#utility.yul\":1865:1940   */\ntag_34:\n    /* \"#utility.yul\":1908:1911   */\n  0x00\n    /* \"#utility.yul\":1929:1934   */\n  dup2\n    /* \"#utility.yul\":1922:1934   */\n  swap1\n  pop\n    /* \"#utility.yul\":1865:1940   */\n  swap2\n  swap1\n  pop\n  jump\t// out\n    /* \"#utility.yul\":1946:2215   */\ntag_35:\n    /* \"#utility.yul\":2056:2095   */\n  tag_65\n    /* \"#utility.yul\":2087:2094   */\n  dup4\n    /* \"#utility.yul\":2056:2095   */\n  tag_33\n  jump\t// in\ntag_65:\n    /* \"#utility.yul\":2117:2208   */\n  tag_66\n    /* \"#utility.yul\":2166:2207   */\n  tag_67\n    /* \"#utility.yul\":2190:2206   */\n  dup3\n    /* \"#utility.yul\":2166:2207   */\n  tag_34\n  jump\t// in\ntag_67:\n    /* \"#utility.yul\":2158:2164   */\n  dup5\n    /* \"#utility.yul\":2151:2155   */\n  dup5\n    /* \"#utility.yul\":2145:2156   */\n  sload\n    /* \"#utility.yul\":2117:2208   */\n  tag_30\n  jump\t// in\ntag_66:\n    /* \"#utility.yul\":2111:2115   */\n  dup3\n    /* \"#utility.yul\":2104:2209   */\n  sstore\n    /* \"#utility.yul\":2022:2215   */\n  pop\n    /* \"#utility.yul\":1946:2215   */\n  pop\n  pop\n  pop\n  jump\t// out\n    /* \"#utility.yul\":2221:2294   */\ntag_36:\n    /* \"#utility.yul\":2266:2269   */\n  0x00\n    /* \"#utility.yul\":2287:2288   */\n  0x00\n    /* \"#utility.yul\":2280:2288   */\n  swap1\n  pop\n    /* \"#utility.yul\":2221:2294   */\n  swap1\n  jump\t// out\n    /* \"#utility.yul\":2300:2489   */\ntag_37:\n    /* \"#utility.yul\":2377:2409   */\n  tag_70\n  tag_36\n  jump\t// in\ntag_70:\n    /* \"#utility.yul\":2418:2483   */\n  tag_71\n    /* \"#utility.yul\":2476:2482   */\n  dup2\n    /* \"#utility.yul\":2468:2474   */\n  dup5\n    /* \"#utility.yul\":2462:2466   */\n  dup5\n    /* \"#utility.yul\":2418:2483   */\n  tag_35\n  jump\t// in\ntag_71:\n    /* \"#utility.yul\":2353:2489   */\n  pop\n    /* \"#utility.yul\":2300:2489   */\n  pop\n  pop\n  jump\t// out\n    /* \"#utility.yul\":2495:2681   */\ntag_38:\n    /* \"#utility.yul\":2555:2675   */\ntag_73:\n    /* \"#utility.yul\":2572:2575   */\n  dup2\n    /* \"#utility.yul\":2565:2570   */\n  dup2\n    /* \"#utility.yul\":2562:2576   */\n  lt\n    /* \"#utility.yul\":2555:2675   */\n  iszero\n  tag_75\n  jumpi\n    /* \"#utility.yul\":2626:2665   */\n  tag_76\n    /* \"#utility.yul\":2663:2664   */\n  0x00\n    /* \"#utility.yul\":2656:2661   */\n  dup3\n    /* \"#utility.yul\":2626:2665   */\n  tag_37\n  jump\t// in\ntag_76:\n    /* \"#utility.yul\":2599:2600   */\n  0x01\n    /* \"#utility.yul\":2592:2597   */\n  dup2\n    /* \"#utility.yul\":2588:2601   */\n  add\n    /* \"#utility.yul\":2579:2601   */\n  swap1\n  pop\n    /* \"#utility.yul\":2555:2675   */\n  jump(tag_73)\ntag_75:\n    /* \"#utility.yul\":2495:2681   */\n  pop\n  pop\n  jump\t// out\n    /* \"#utility.yul\":2687:3230   */\ntag_39:\n    /* \"#utility.yul\":2788:2790   */\n  0x1f\n    /* \"#utility.yul\":2783:2786   */\n  dup3\n    /* \"#utility.yul\":2780:2791   */\n  gt\n    /* \"#utility.yul\":2777:3223   */\n  iszero\n  tag_78\n  jumpi\n    /* \"#utility.yul\":2822:2860   */\n  tag_79\n    /* \"#utility.yul\":2854:2859   */\n  dup2\n    /* \"#utility.yul\":2822:2860   */\n  tag_27\n  jump\t// in\ntag_79:\n    /* \"#utility.yul\":2906:2935   */\n  tag_80\n    /* \"#utility.yul\":2924:2934   */\n  dup5\n    /* \"#utility.yul\":2906:2935   */\n  tag_28\n  jump\t// in\ntag_80:\n    /* \"#utility.yul\":2896:2904   */\n  dup2\n    /* \"#utility.yul\":2892:2936   */\n  add\n    /* \"#utility.yul\":3089:3091   */\n  0x20\n    /* \"#utility.yul\":3077:3087   */\n  dup6\n    /* \"#utility.yul\":3074:3092   */\n  lt\n    /* \"#utility.yul\":3071:3120   */\n  iszero\n  tag_81\n  jumpi\n    /* \"#utility.yul\":3110:3118   */\n  dup2\n    /* \"#utility.yul\":3095:3118   */\n  swap1\n  pop\n    /* \"#utility.yul\":3071:3120   */\ntag_81:\n    /* \"#utility.yul\":3133:3213   */\n  tag_82\n    /* \"#utility.yul\":3189:3211   */\n  tag_83\n    /* \"#utility.yul\":3207:3210   */\n  dup6\n    /* \"#utility.yul\":3189:3211   */\n  tag_28\n  jump\t// in\ntag_83:\n    /* \"#utility.yul\":3179:3187   */\n  dup4\n    /* \"#utility.yul\":3175:3212   */\n  add\n    /* \"#utility.yul\":3162:3173   */\n  dup3\n    /* \"#utility.yul\":3133:3213   */\n  tag_38\n  jump\t// in\ntag_82:\n    /* \"#utility.yul\":2792:3223   */\n  pop\n  pop\n    /* \"#utility.yul\":2777:3223   */\ntag_78:\n    /* \"#utility.yul\":2687:3230   */\n  pop\n  pop\n  pop\n  jump\t// out\n    /* \"#utility.yul\":3236:3353   */\ntag_40:\n    /* \"#utility.yul\":3290:3298   */\n  0x00\n    /* \"#utility.yul\":3340:3345   */\n  dup3\n    /* \"#utility.yul\":3334:3338   */\n  dup3\n    /* \"#utility.yul\":3330:3346   */\n  shr\n    /* \"#utility.yul\":3309:3346   */\n  swap1\n  pop\n    /* \"#utility.yul\":3236:3353   */\n  swap3\n  swap2\n  pop\n  pop\n  jump\t// out\n    /* \"#utility.yul\":3359:3528   */\ntag_41:\n    /* \"#utility.yul\":3403:3409   */\n  0x00\n    /* \"#utility.yul\":3436:3487   */\n  tag_86\n    /* \"#utility.yul\":3484:3485   */\n  0x00\n    /* \"#utility.yul\":3480:3486   */\n  not\n    /* \"#utility.yul\":3472:3477   */\n  dup5\n    /* \"#utility.yul\":3469:3470   */\n  0x08\n    /* \"#utility.yul\":3465:3478   */\n  mul\n    /* \"#utility.yul\":3436:3487   */\n  tag_40\n  jump\t// in\ntag_86:\n    /* \"#utility.yul\":3432:3488   */\n  not\n    /* \"#utility.yul\":3517:3521   */\n  dup1\n    /* \"#utility.yul\":3511:3515   */\n  dup4\n    /* \"#utility.yul\":3507:3522   */\n  and\n    /* \"#utility.yul\":3497:3522   */\n  swap2\n  pop\n    /* \"#utility.yul\":3410:3528   */\n  pop\n    /* \"#utility.yul\":3359:3528   */\n  swap3\n  swap2\n  pop\n  pop\n  jump\t// out\n    /* \"#utility.yul\":3533:3828   */\ntag_42:\n    /* \"#utility.yul\":3609:3613   */\n  0x00\n    /* \"#utility.yul\":3755:3784   */\n  tag_88\n    /* \"#utility.yul\":3780:3783   */\n  dup4\n    /* \"#utility.yul\":3774:3778   */\n  dup4\n    /* \"#utility.yul\":3755:3784   */\n  tag_41\n  jump\t// in\ntag_88:\n    /* \"#utility.yul\":3747:3784   */\n  swap2\n  pop\n    /* \"#utility.yul\":3817:3820   */\n  dup3\n    /* \"#utility.yul\":3814:3815   */\n  0x02\n    /* \"#utility.yul\":3810:3821   */\n  mul\n    /* \"#utility.yul\":3804:3808   */\n  dup3\n    /* \"#utility.yul\":3801:3822   */\n  or\n    /* \"#utility.yul\":3793:3822   */\n  swap1\n  pop\n    /* \"#utility.yul\":3533:3828   */\n  swap3\n  swap2\n  pop\n  pop\n  jump\t// out\n    /* \"#utility.yul\":3833:5228   */\ntag_9:\n    /* \"#utility.yul\":3950:3987   */\n  tag_90\n    /* \"#utility.yul\":3983:3986   */\n  dup3\n    /* \"#utility.yul\":3950:3987   */\n  tag_24\n  jump\t// in\ntag_90:\n    /* \"#utility.yul\":4052:4070   */\n  0xffffffffffffffff\n    /* \"#utility.yul\":4044:4050   */\n  dup2\n    /* \"#utility.yul\":4041:4071   */\n  gt\n    /* \"#utility.yul\":4038:4094   */\n  iszero\n  tag_91\n  jumpi\n    /* \"#utility.yul\":4074:4092   */\n  tag_92\n  tag_25\n  jump\t// in\ntag_92:\n    /* \"#utility.yul\":4038:4094   */\ntag_91:\n    /* \"#utility.yul\":4118:4156   */\n  tag_93\n    /* \"#utility.yul\":4150:4154   */\n  dup3\n    /* \"#utility.yul\":4144:4155   */\n  sload\n    /* \"#utility.yul\":4118:4156   */\n  tag_17\n  jump\t// in\ntag_93:\n    /* \"#utility.yul\":4203:4270   */\n  tag_94\n    /* \"#utility.yul\":4263:4269   */\n  dup3\n    /* \"#utility.yul\":4255:4261   */\n  dup3\n    /* \"#utility.yul\":4249:4253   */\n  dup6\n    /* \"#utility.yul\":4203:4270   */\n  tag_39\n  jump\t// in\ntag_94:\n    /* \"#utility.yul\":4297:4298   */\n  0x00\n    /* \"#utility.yul\":4321:4325   */\n  0x20\n    /* \"#utility.yul\":4308:4325   */\n  swap1\n  pop\n    /* \"#utility.yul\":4353:4355   */\n  0x1f\n    /* \"#utility.yul\":4345:4351   */\n  dup4\n    /* \"#utility.yul\":4342:4356   */\n  gt\n    /* \"#utility.yul\":4370:4371   */\n  0x01\n    /* \"#utility.yul\":4365:4983   */\n  dup2\n  eq\n  tag_96\n  jumpi\n    /* \"#utility.yul\":5027:5028   */\n  0x00\n    /* \"#utility.yul\":5044:5050   */\n  dup5\n    /* \"#utility.yul\":5041:5118   */\n  iszero\n  tag_97\n  jumpi\n    /* \"#utility.yul\":5093:5102   */\n  dup3\n    /* \"#utility.yul\":5088:5091   */\n  dup8\n    /* \"#utility.yul\":5084:5103   */\n  add\n    /* \"#utility.yul\":5078:5104   */\n  mload\n    /* \"#utility.yul\":5069:5104   */\n  swap1\n  pop\n    /* \"#utility.yul\":5041:5118   */\ntag_97:\n    /* \"#utility.yul\":5144:5211   */\n  tag_98\n    /* \"#utility.yul\":5204:5210   */\n  dup6\n    /* \"#utility.yul\":5197:5202   */\n  dup3\n    /* \"#utility.yul\":5144:5211   */\n  tag_42\n  jump\t// in\ntag_98:\n    /* \"#utility.yul\":5138:5142   */\n  dup7\n    /* \"#utility.yul\":5131:5212   */\n  sstore\n    /* \"#utility.yul\":5000:5222   */\n  pop\n    /* \"#utility.yul\":4335:5222   */\n  jump(tag_95)\n    /* \"#utility.yul\":4365:4983   */\ntag_96:\n    /* \"#utility.yul\":4417:4421   */\n  0x1f\n    /* \"#utility.yul\":4413:4422   */\n  not\n    /* \"#utility.yul\":4405:4411   */\n  dup5\n    /* \"#utility.yul\":4401:4423   */\n  and\n    /* \"#utility.yul\":4451:4488   */\n  tag_99\n    /* \"#utility.yul\":4483:4487   */\n  dup7\n    /* \"#utility.yul\":4451:4488   */\n  tag_27\n  jump\t// in\ntag_99:\n    /* \"#utility.yul\":4510:4511   */\n  0x00\n    /* \"#utility.yul\":4524:4732   */\ntag_100:\n    /* \"#utility.yul\":4538:4545   */\n  dup3\n    /* \"#utility.yul\":4535:4536   */\n  dup2\n    /* \"#utility.yul\":4532:4546   */\n  lt\n    /* \"#utility.yul\":4524:4732   */\n  iszero\n  tag_102\n  jumpi\n    /* \"#utility.yul\":4617:4626   */\n  dup5\n    /* \"#utility.yul\":4612:4615   */\n  dup10\n    /* \"#utility.yul\":4608:4627   */\n  add\n    /* \"#utility.yul\":4602:4628   */\n  mload\n    /* \"#utility.yul\":4594:4600   */\n  dup3\n    /* \"#utility.yul\":4587:4629   */\n  sstore\n    /* \"#utility.yul\":4668:4669   */\n  0x01\n    /* \"#utility.yul\":4660:4666   */\n  dup3\n    /* \"#utility.yul\":4656:4670   */\n  add\n    /* \"#utility.yul\":4646:4670   */\n  swap2\n  pop\n    /* \"#utility.yul\":4715:4717   */\n  0x20\n    /* \"#utility.yul\":4704:4713   */\n  dup6\n    /* \"#utility.yul\":4700:4718   */\n  add\n    /* \"#utility.yul\":4687:4718   */\n  swap5\n  pop\n    /* \"#utility.yul\":4561:4565   */\n  0x20\n    /* \"#utility.yul\":4558:4559   */\n  dup2\n    /* \"#utility.yul\":4554:4566   */\n  add\n    /* \"#utility.yul\":4549:4566   */\n  swap1\n  pop\n    /* \"#utility.yul\":4524:4732   */\n  jump(tag_100)\ntag_102:\n    /* \"#utility.yul\":4760:4766   */\n  dup7\n    /* \"#utility.yul\":4751:4758   */\n  dup4\n    /* \"#utility.yul\":4748:4767   */\n  lt\n    /* \"#utility.yul\":4745:4924   */\n  iszero\n  tag_103\n  jumpi\n    /* \"#utility.yul\":4818:4827   */\n  dup5\n    /* \"#utility.yul\":4813:4816   */\n  dup10\n    /* \"#utility.yul\":4809:4828   */\n  add\n    /* \"#utility.yul\":4803:4829   */\n  mload\n    /* \"#utility.yul\":4861:4909   */\n  tag_104\n    /* \"#utility.yul\":4903:4907   */\n  0x1f\n    /* \"#utility.yul\":4895:4901   */\n  dup10\n    /* \"#utility.yul\":4891:4908   */\n  and\n    /* \"#utility.yul\":4880:4889   */\n  dup3\n    /* \"#utility.yul\":4861:4909   */\n  tag_41\n  jump\t// in\ntag_104:\n    /* \"#utility.yul\":4853:4859   */\n  dup4\n    /* \"#utility.yul\":4846:4910   */\n  sstore\n    /* \"#utility.yul\":4768:4924   */\n  pop\n    /* \"#utility.yul\":4745:4924   */\ntag_103:\n    /* \"#utility.yul\":4970:4971   */\n  0x01\n    /* \"#utility.yul\":4966:4967   */\n  0x02\n    /* \"#utility.yul\":4958:4964   */\n  dup9\n    /* \"#utility.yul\":4954:4968   */\n  mul\n    /* \"#utility.yul\":4950:4972   */\n  add\n    /* \"#utility.yul\":4944:4948   */\n  dup9\n    /* \"#utility.yul\":4937:4973   */\n  sstore\n    /* \"#utility.yul\":4372:4983   */\n  pop\n  pop\n  pop\n    /* \"#utility.yul\":4335:5222   */\ntag_95:\n  pop\n    /* \"#utility.yul\":3925:5228   */\n  pop\n  pop\n  pop\n    /* \"#utility.yul\":3833:5228   */\n  pop\n  pop\n  jump\t// out\n    /* \"contracts/nbateamselector.sol\":60:1471  contract NBATeamSelector {... */\ntag_4:\n  dataSize(sub_0)\n  dup1\n  dataOffset(sub_0)\n  0x00\n  codecopy\n  0x00\n  return\nstop\n\nsub_0: assembly {\n        /* \"contracts/nbateamselector.sol\":60:1471  contract NBATeamSelector {... */\n      mstore(0x40, 0x80)\n      callvalue\n      dup1\n      iszero\n      tag_1\n      jumpi\n      revert(0x00, 0x00)\n    tag_1:\n      pop\n      jumpi(tag_2, lt(calldatasize, 0x04))\n      shr(0xe0, calldataload(0x00))\n      dup1\n      0x112d5c65\n      eq\n      tag_3\n      jumpi\n      dup1\n      0x9c8c3e80\n      eq\n      tag_4\n      jumpi\n      dup1\n      0xbcb4ab0e\n      eq\n      tag_5\n      jumpi\n    tag_2:\n      revert(0x00, 0x00)\n        /* \"contracts/nbateamselector.sol\":841:883  mapping(address => string) public userTeam */\n    tag_3:\n      tag_6\n      0x04\n      dup1\n      calldatasize\n      sub\n      dup2\n      add\n      swap1\n      tag_7\n      swap2\n      swap1\n      tag_8\n      jump\t// in\n    tag_7:\n      tag_9\n      jump\t// in\n    tag_6:\n      mload(0x40)\n      tag_10\n      swap2\n      swap1\n      tag_11\n      jump\t// in\n    tag_10:\n      mload(0x40)\n      dup1\n      swap2\n      sub\n      swap1\n      return\n        /* \"contracts/nbateamselector.sol\":1288:1468  function getMyTeam() external view returns (string memory) {... */\n    tag_4:\n      tag_12\n      tag_13\n      jump\t// in\n    tag_12:\n      mload(0x40)\n      tag_14\n      swap2\n      swap1\n      tag_11\n      jump\t// in\n    tag_14:\n      mload(0x40)\n      dup1\n      swap2\n      sub\n      swap1\n      return\n        /* \"contracts/nbateamselector.sol\":987:1239  function write() external {... */\n    tag_5:\n      tag_15\n      tag_16\n      jump\t// in\n    tag_15:\n      stop\n        /* \"contracts/nbateamselector.sol\":841:883  mapping(address => string) public userTeam */\n    tag_9:\n      mstore(0x20, 0x01)\n      dup1\n      0x00\n      mstore\n      keccak256(0x00, 0x40)\n      0x00\n      swap2\n      pop\n      swap1\n      pop\n      dup1\n      sload\n      tag_17\n      swap1\n      tag_18\n      jump\t// in\n    tag_17:\n      dup1\n      0x1f\n      add\n      0x20\n      dup1\n      swap2\n      div\n      mul\n      0x20\n      add\n      mload(0x40)\n      swap1\n      dup2\n      add\n      0x40\n      mstore\n      dup1\n      swap3\n      swap2\n      swap1\n      dup2\n      dup2\n      mstore\n      0x20\n      add\n      dup3\n      dup1\n      sload\n      tag_19\n      swap1\n      tag_18\n      jump\t// in\n    tag_19:\n      dup1\n      iszero\n      tag_20\n      jumpi\n      dup1\n      0x1f\n      lt\n      tag_21\n      jumpi\n      0x0100\n      dup1\n      dup4\n      sload\n      div\n      mul\n      dup4\n      mstore\n      swap2\n      0x20\n      add\n      swap2\n      jump(tag_20)\n    tag_21:\n      dup3\n      add\n      swap2\n      swap1\n      0x00\n      mstore\n      keccak256(0x00, 0x20)\n      swap1\n    tag_22:\n      dup2\n      sload\n      dup2\n      mstore\n      swap1\n      0x01\n      add\n      swap1\n      0x20\n      add\n      dup1\n      dup4\n      gt\n      tag_22\n      jumpi\n      dup3\n      swap1\n      sub\n      0x1f\n      and\n      dup3\n      add\n      swap2\n    tag_20:\n      pop\n      pop\n      pop\n      pop\n      pop\n      dup2\n      jump\t// out\n        /* \"contracts/nbateamselector.sol\":1288:1468  function getMyTeam() external view returns (string memory) {... */\n    tag_13:\n        /* \"contracts/nbateamselector.sol\":1332:1345  string memory */\n      0x60\n        /* \"contracts/nbateamselector.sol\":1366:1373  hasTeam */\n      0x02\n        /* \"contracts/nbateamselector.sol\":1366:1385  hasTeam[msg.sender] */\n      0x00\n        /* \"contracts/nbateamselector.sol\":1374:1384  msg.sender */\n      caller\n        /* \"contracts/nbateamselector.sol\":1366:1385  hasTeam[msg.sender] */\n      0xffffffffffffffffffffffffffffffffffffffff\n      and\n      0xffffffffffffffffffffffffffffffffffffffff\n      and\n      dup2\n      mstore\n      0x20\n      add\n      swap1\n      dup2\n      mstore\n      0x20\n      add\n      0x00\n      keccak256\n      0x00\n      swap1\n      sload\n      swap1\n      0x0100\n      exp\n      swap1\n      div\n      0xff\n      and\n        /* \"contracts/nbateamselector.sol\":1358:1422  require(hasTeam[msg.sender], \"You haven't selected a team yet!\") */\n      tag_24\n      jumpi\n      mload(0x40)\n      0x08c379a000000000000000000000000000000000000000000000000000000000\n      dup2\n      mstore\n      0x04\n      add\n      tag_25\n      swap1\n      tag_26\n      jump\t// in\n    tag_25:\n      mload(0x40)\n      dup1\n      swap2\n      sub\n      swap1\n      revert\n    tag_24:\n        /* \"contracts/nbateamselector.sol\":1440:1448  userTeam */\n      0x01\n        /* \"contracts/nbateamselector.sol\":1440:1460  userTeam[msg.sender] */\n      0x00\n        /* \"contracts/nbateamselector.sol\":1449:1459  msg.sender */\n      caller\n        /* \"contracts/nbateamselector.sol\":1440:1460  userTeam[msg.sender] */\n      0xffffffffffffffffffffffffffffffffffffffff\n      and\n      0xffffffffffffffffffffffffffffffffffffffff\n      and\n      dup2\n      mstore\n      0x20\n      add\n      swap1\n      dup2\n      mstore\n      0x20\n      add\n      0x00\n      keccak256\n        /* \"contracts/nbateamselector.sol\":1433:1460  return userTeam[msg.sender] */\n      dup1\n      sload\n      tag_27\n      swap1\n      tag_18\n      jump\t// in\n    tag_27:\n      dup1\n      0x1f\n      add\n      0x20\n      dup1\n      swap2\n      div\n      mul\n      0x20\n      add\n      mload(0x40)\n      swap1\n      dup2\n      add\n      0x40\n      mstore\n      dup1\n      swap3\n      swap2\n      swap1\n      dup2\n      dup2\n      mstore\n      0x20\n      add\n      dup3\n      dup1\n      sload\n      tag_28\n      swap1\n      tag_18\n      jump\t// in\n    tag_28:\n      dup1\n      iszero\n      tag_29\n      jumpi\n      dup1\n      0x1f\n      lt\n      tag_30\n      jumpi\n      0x0100\n      dup1\n      dup4\n      sload\n      div\n      mul\n      dup4\n      mstore\n      swap2\n      0x20\n      add\n      swap2\n      jump(tag_29)\n    tag_30:\n      dup3\n      add\n      swap2\n      swap1\n      0x00\n      mstore\n      keccak256(0x00, 0x20)\n      swap1\n    tag_31:\n      dup2\n      sload\n      dup2\n      mstore\n      swap1\n      0x01\n      add\n      swap1\n      0x20\n      add\n      dup1\n      dup4\n      gt\n      tag_31\n      jumpi\n      dup3\n      swap1\n      sub\n      0x1f\n      and\n      dup3\n      add\n      swap2\n    tag_29:\n      pop\n      pop\n      pop\n      pop\n      pop\n      swap1\n      pop\n        /* \"contracts/nbateamselector.sol\":1288:1468  function getMyTeam() external view returns (string memory) {... */\n      swap1\n      jump\t// out\n        /* \"contracts/nbateamselector.sol\":987:1239  function write() external {... */\n    tag_16:\n        /* \"contracts/nbateamselector.sol\":1033:1040  hasTeam */\n      0x02\n        /* \"contracts/nbateamselector.sol\":1033:1052  hasTeam[msg.sender] */\n      0x00\n        /* \"contracts/nbateamselector.sol\":1041:1051  msg.sender */\n      caller\n        /* \"contracts/nbateamselector.sol\":1033:1052  hasTeam[msg.sender] */\n      0xffffffffffffffffffffffffffffffffffffffff\n      and\n      0xffffffffffffffffffffffffffffffffffffffff\n      and\n      dup2\n      mstore\n      0x20\n      add\n      swap1\n      dup2\n      mstore\n      0x20\n      add\n      0x00\n      keccak256\n      0x00\n      swap1\n      sload\n      swap1\n      0x0100\n      exp\n      swap1\n      div\n      0xff\n      and\n        /* \"contracts/nbateamselector.sol\":1032:1052  !hasTeam[msg.sender] */\n      iszero\n        /* \"contracts/nbateamselector.sol\":1024:1081  require(!hasTeam[msg.sender], \"You already have a team!\") */\n      tag_33\n      jumpi\n      mload(0x40)\n      0x08c379a000000000000000000000000000000000000000000000000000000000\n      dup2\n      mstore\n      0x04\n      add\n      tag_34\n      swap1\n      tag_35\n      jump\t// in\n    tag_34:\n      mload(0x40)\n      dup1\n      swap2\n      sub\n      swap1\n      revert\n    tag_33:\n        /* \"contracts/nbateamselector.sol\":1094:1111  uint256 teamIndex */\n      0x00\n        /* \"contracts/nbateamselector.sol\":1132:1137  teams */\n      0x00\n        /* \"contracts/nbateamselector.sol\":1132:1144  teams.length */\n      dup1\n      sload\n      swap1\n      pop\n        /* \"contracts/nbateamselector.sol\":1114:1129  block.timestamp */\n      timestamp\n        /* \"contracts/nbateamselector.sol\":1114:1144  block.timestamp % teams.length */\n      tag_36\n      swap2\n      swap1\n      tag_37\n      jump\t// in\n    tag_36:\n        /* \"contracts/nbateamselector.sol\":1094:1144  uint256 teamIndex = block.timestamp % teams.length */\n      swap1\n      pop\n        /* \"contracts/nbateamselector.sol\":1178:1183  teams */\n      0x00\n        /* \"contracts/nbateamselector.sol\":1184:1193  teamIndex */\n      dup2\n        /* \"contracts/nbateamselector.sol\":1178:1194  teams[teamIndex] */\n      dup2\n      sload\n      dup2\n      lt\n      tag_38\n      jumpi\n      tag_39\n      tag_40\n      jump\t// in\n    tag_39:\n    tag_38:\n      swap1\n      0x00\n      mstore\n      keccak256(0x00, 0x20)\n      add\n        /* \"contracts/nbateamselector.sol\":1155:1163  userTeam */\n      0x01\n        /* \"contracts/nbateamselector.sol\":1155:1175  userTeam[msg.sender] */\n      0x00\n        /* \"contracts/nbateamselector.sol\":1164:1174  msg.sender */\n      caller\n        /* \"contracts/nbateamselector.sol\":1155:1175  userTeam[msg.sender] */\n      0xffffffffffffffffffffffffffffffffffffffff\n      and\n      0xffffffffffffffffffffffffffffffffffffffff\n      and\n      dup2\n      mstore\n      0x20\n      add\n      swap1\n      dup2\n      mstore\n      0x20\n      add\n      0x00\n      keccak256\n        /* \"contracts/nbateamselector.sol\":1155:1194  userTeam[msg.sender] = teams[teamIndex] */\n      swap1\n      dup2\n      tag_42\n      swap2\n      swap1\n      tag_43\n      jump\t// in\n    tag_42:\n      pop\n        /* \"contracts/nbateamselector.sol\":1227:1231  true */\n      0x01\n        /* \"contracts/nbateamselector.sol\":1205:1212  hasTeam */\n      0x02\n        /* \"contracts/nbateamselector.sol\":1205:1224  hasTeam[msg.sender] */\n      0x00\n        /* \"contracts/nbateamselector.sol\":1213:1223  msg.sender */\n      caller\n        /* \"contracts/nbateamselector.sol\":1205:1224  hasTeam[msg.sender] */\n      0xffffffffffffffffffffffffffffffffffffffff\n      and\n      0xffffffffffffffffffffffffffffffffffffffff\n      and\n      dup2\n      mstore\n      0x20\n      add\n      swap1\n      dup2\n      mstore\n      0x20\n      add\n      0x00\n      keccak256\n      0x00\n        /* \"contracts/nbateamselector.sol\":1205:1231  hasTeam[msg.sender] = true */\n      0x0100\n      exp\n      dup2\n      sload\n      dup2\n      0xff\n      mul\n      not\n      and\n      swap1\n      dup4\n      iszero\n      iszero\n      mul\n      or\n      swap1\n      sstore\n      pop\n        /* \"contracts/nbateamselector.sol\":1013:1239  {... */\n      pop\n        /* \"contracts/nbateamselector.sol\":987:1239  function write() external {... */\n      jump\t// out\n        /* \"#utility.yul\":88:205   */\n    tag_45:\n        /* \"#utility.yul\":197:198   */\n      0x00\n        /* \"#utility.yul\":194:195   */\n      0x00\n        /* \"#utility.yul\":187:199   */\n      revert\n        /* \"#utility.yul\":334:460   */\n    tag_47:\n        /* \"#utility.yul\":371:378   */\n      0x00\n        /* \"#utility.yul\":411:453   */\n      0xffffffffffffffffffffffffffffffffffffffff\n        /* \"#utility.yul\":404:409   */\n      dup3\n        /* \"#utility.yul\":400:454   */\n      and\n        /* \"#utility.yul\":389:454   */\n      swap1\n      pop\n        /* \"#utility.yul\":334:460   */\n      swap2\n      swap1\n      pop\n      jump\t// out\n        /* \"#utility.yul\":466:562   */\n    tag_48:\n        /* \"#utility.yul\":503:510   */\n      0x00\n        /* \"#utility.yul\":532:556   */\n      tag_87\n        /* \"#utility.yul\":550:555   */\n      dup3\n        /* \"#utility.yul\":532:556   */\n      tag_47\n      jump\t// in\n    tag_87:\n        /* \"#utility.yul\":521:556   */\n      swap1\n      pop\n        /* \"#utility.yul\":466:562   */\n      swap2\n      swap1\n      pop\n      jump\t// out\n        /* \"#utility.yul\":568:690   */\n    tag_49:\n        /* \"#utility.yul\":641:665   */\n      tag_89\n        /* \"#utility.yul\":659:664   */\n      dup2\n        /* \"#utility.yul\":641:665   */\n      tag_48\n      jump\t// in\n    tag_89:\n        /* \"#utility.yul\":634:639   */\n      dup2\n        /* \"#utility.yul\":631:666   */\n      eq\n        /* \"#utility.yul\":621:684   */\n      tag_90\n      jumpi\n        /* \"#utility.yul\":680:681   */\n      0x00\n        /* \"#utility.yul\":677:678   */\n      0x00\n        /* \"#utility.yul\":670:682   */\n      revert\n        /* \"#utility.yul\":621:684   */\n    tag_90:\n        /* \"#utility.yul\":568:690   */\n      pop\n      jump\t// out\n        /* \"#utility.yul\":696:835   */\n    tag_50:\n        /* \"#utility.yul\":742:747   */\n      0x00\n        /* \"#utility.yul\":780:786   */\n      dup2\n        /* \"#utility.yul\":767:787   */\n      calldataload\n        /* \"#utility.yul\":758:787   */\n      swap1\n      pop\n        /* \"#utility.yul\":796:829   */\n      tag_92\n        /* \"#utility.yul\":823:828   */\n      dup2\n        /* \"#utility.yul\":796:829   */\n      tag_49\n      jump\t// in\n    tag_92:\n        /* \"#utility.yul\":696:835   */\n      swap3\n      swap2\n      pop\n      pop\n      jump\t// out\n        /* \"#utility.yul\":841:1170   */\n    tag_8:\n        /* \"#utility.yul\":900:906   */\n      0x00\n        /* \"#utility.yul\":949:951   */\n      0x20\n        /* \"#utility.yul\":937:946   */\n      dup3\n        /* \"#utility.yul\":928:935   */\n      dup5\n        /* \"#utility.yul\":924:947   */\n      sub\n        /* \"#utility.yul\":920:952   */\n      slt\n        /* \"#utility.yul\":917:1036   */\n      iszero\n      tag_94\n      jumpi\n        /* \"#utility.yul\":955:1034   */\n      tag_95\n      tag_45\n      jump\t// in\n    tag_95:\n        /* \"#utility.yul\":917:1036   */\n    tag_94:\n        /* \"#utility.yul\":1075:1076   */\n      0x00\n        /* \"#utility.yul\":1100:1153   */\n      tag_96\n        /* \"#utility.yul\":1145:1152   */\n      dup5\n        /* \"#utility.yul\":1136:1142   */\n      dup3\n        /* \"#utility.yul\":1125:1134   */\n      dup6\n        /* \"#utility.yul\":1121:1143   */\n      add\n        /* \"#utility.yul\":1100:1153   */\n      tag_50\n      jump\t// in\n    tag_96:\n        /* \"#utility.yul\":1090:1153   */\n      swap2\n      pop\n        /* \"#utility.yul\":1046:1163   */\n      pop\n        /* \"#utility.yul\":841:1170   */\n      swap3\n      swap2\n      pop\n      pop\n      jump\t// out\n        /* \"#utility.yul\":1176:1275   */\n    tag_51:\n        /* \"#utility.yul\":1228:1234   */\n      0x00\n        /* \"#utility.yul\":1262:1267   */\n      dup2\n        /* \"#utility.yul\":1256:1268   */\n      mload\n        /* \"#utility.yul\":1246:1268   */\n      swap1\n      pop\n        /* \"#utility.yul\":1176:1275   */\n      swap2\n      swap1\n      pop\n      jump\t// out\n        /* \"#utility.yul\":1281:1450   */\n    tag_52:\n        /* \"#utility.yul\":1365:1376   */\n      0x00\n        /* \"#utility.yul\":1399:1405   */\n      dup3\n        /* \"#utility.yul\":1394:1397   */\n      dup3\n        /* \"#utility.yul\":1387:1406   */\n      mstore\n        /* \"#utility.yul\":1439:1443   */\n      0x20\n        /* \"#utility.yul\":1434:1437   */\n      dup3\n        /* \"#utility.yul\":1430:1444   */\n      add\n        /* \"#utility.yul\":1415:1444   */\n      swap1\n      pop\n        /* \"#utility.yul\":1281:1450   */\n      swap3\n      swap2\n      pop\n      pop\n      jump\t// out\n        /* \"#utility.yul\":1456:1595   */\n    tag_53:\n        /* \"#utility.yul\":1545:1551   */\n      dup3\n        /* \"#utility.yul\":1540:1543   */\n      dup2\n        /* \"#utility.yul\":1535:1538   */\n      dup4\n        /* \"#utility.yul\":1529:1552   */\n      mcopy\n        /* \"#utility.yul\":1586:1587   */\n      0x00\n        /* \"#utility.yul\":1577:1583   */\n      dup4\n        /* \"#utility.yul\":1572:1575   */\n      dup4\n        /* \"#utility.yul\":1568:1584   */\n      add\n        /* \"#utility.yul\":1561:1588   */\n      mstore\n        /* \"#utility.yul\":1456:1595   */\n      pop\n      pop\n      pop\n      jump\t// out\n        /* \"#utility.yul\":1601:1703   */\n    tag_54:\n        /* \"#utility.yul\":1642:1648   */\n      0x00\n        /* \"#utility.yul\":1693:1695   */\n      0x1f\n        /* \"#utility.yul\":1689:1696   */\n      not\n        /* \"#utility.yul\":1684:1686   */\n      0x1f\n        /* \"#utility.yul\":1677:1682   */\n      dup4\n        /* \"#utility.yul\":1673:1687   */\n      add\n        /* \"#utility.yul\":1669:1697   */\n      and\n        /* \"#utility.yul\":1659:1697   */\n      swap1\n      pop\n        /* \"#utility.yul\":1601:1703   */\n      swap2\n      swap1\n      pop\n      jump\t// out\n        /* \"#utility.yul\":1709:2086   */\n    tag_55:\n        /* \"#utility.yul\":1797:1800   */\n      0x00\n        /* \"#utility.yul\":1825:1864   */\n      tag_102\n        /* \"#utility.yul\":1858:1863   */\n      dup3\n        /* \"#utility.yul\":1825:1864   */\n      tag_51\n      jump\t// in\n    tag_102:\n        /* \"#utility.yul\":1880:1951   */\n      tag_103\n        /* \"#utility.yul\":1944:1950   */\n      dup2\n        /* \"#utility.yul\":1939:1942   */\n      dup6\n        /* \"#utility.yul\":1880:1951   */\n      tag_52\n      jump\t// in\n    tag_103:\n        /* \"#utility.yul\":1873:1951   */\n      swap4\n      pop\n        /* \"#utility.yul\":1960:2025   */\n      tag_104\n        /* \"#utility.yul\":2018:2024   */\n      dup2\n        /* \"#utility.yul\":2013:2016   */\n      dup6\n        /* \"#utility.yul\":2006:2010   */\n      0x20\n        /* \"#utility.yul\":1999:2004   */\n      dup7\n        /* \"#utility.yul\":1995:2011   */\n      add\n        /* \"#utility.yul\":1960:2025   */\n      tag_53\n      jump\t// in\n    tag_104:\n        /* \"#utility.yul\":2050:2079   */\n      tag_105\n        /* \"#utility.yul\":2072:2078   */\n      dup2\n        /* \"#utility.yul\":2050:2079   */\n      tag_54\n      jump\t// in\n    tag_105:\n        /* \"#utility.yul\":2045:2048   */\n      dup5\n        /* \"#utility.yul\":2041:2080   */\n      add\n        /* \"#utility.yul\":2034:2080   */\n      swap2\n      pop\n        /* \"#utility.yul\":1801:2086   */\n      pop\n        /* \"#utility.yul\":1709:2086   */\n      swap3\n      swap2\n      pop\n      pop\n      jump\t// out\n        /* \"#utility.yul\":2092:2405   */\n    tag_11:\n        /* \"#utility.yul\":2205:2209   */\n      0x00\n        /* \"#utility.yul\":2243:2245   */\n      0x20\n        /* \"#utility.yul\":2232:2241   */\n      dup3\n        /* \"#utility.yul\":2228:2246   */\n      add\n        /* \"#utility.yul\":2220:2246   */\n      swap1\n      pop\n        /* \"#utility.yul\":2292:2301   */\n      dup2\n        /* \"#utility.yul\":2286:2290   */\n      dup2\n        /* \"#utility.yul\":2282:2302   */\n      sub\n        /* \"#utility.yul\":2278:2279   */\n      0x00\n        /* \"#utility.yul\":2267:2276   */\n      dup4\n        /* \"#utility.yul\":2263:2280   */\n      add\n        /* \"#utility.yul\":2256:2303   */\n      mstore\n        /* \"#utility.yul\":2320:2398   */\n      tag_107\n        /* \"#utility.yul\":2393:2397   */\n      dup2\n        /* \"#utility.yul\":2384:2390   */\n      dup5\n        /* \"#utility.yul\":2320:2398   */\n      tag_55\n      jump\t// in\n    tag_107:\n        /* \"#utility.yul\":2312:2398   */\n      swap1\n      pop\n        /* \"#utility.yul\":2092:2405   */\n      swap3\n      swap2\n      pop\n      pop\n      jump\t// out\n        /* \"#utility.yul\":2411:2591   */\n    tag_56:\n        /* \"#utility.yul\":2459:2536   */\n      0x4e487b7100000000000000000000000000000000000000000000000000000000\n        /* \"#utility.yul\":2456:2457   */\n      0x00\n        /* \"#utility.yul\":2449:2537   */\n      mstore\n        /* \"#utility.yul\":2556:2560   */\n      0x22\n        /* \"#utility.yul\":2553:2554   */\n      0x04\n        /* \"#utility.yul\":2546:2561   */\n      mstore\n        /* \"#utility.yul\":2580:2584   */\n      0x24\n        /* \"#utility.yul\":2577:2578   */\n      0x00\n        /* \"#utility.yul\":2570:2585   */\n      revert\n        /* \"#utility.yul\":2597:2917   */\n    tag_18:\n        /* \"#utility.yul\":2641:2647   */\n      0x00\n        /* \"#utility.yul\":2678:2679   */\n      0x02\n        /* \"#utility.yul\":2672:2676   */\n      dup3\n        /* \"#utility.yul\":2668:2680   */\n      div\n        /* \"#utility.yul\":2658:2680   */\n      swap1\n      pop\n        /* \"#utility.yul\":2725:2726   */\n      0x01\n        /* \"#utility.yul\":2719:2723   */\n      dup3\n        /* \"#utility.yul\":2715:2727   */\n      and\n        /* \"#utility.yul\":2746:2764   */\n      dup1\n        /* \"#utility.yul\":2736:2817   */\n      tag_110\n      jumpi\n        /* \"#utility.yul\":2802:2806   */\n      0x7f\n        /* \"#utility.yul\":2794:2800   */\n      dup3\n        /* \"#utility.yul\":2790:2807   */\n      and\n        /* \"#utility.yul\":2780:2807   */\n      swap2\n      pop\n        /* \"#utility.yul\":2736:2817   */\n    tag_110:\n        /* \"#utility.yul\":2864:2866   */\n      0x20\n        /* \"#utility.yul\":2856:2862   */\n      dup3\n        /* \"#utility.yul\":2853:2867   */\n      lt\n        /* \"#utility.yul\":2833:2851   */\n      dup2\n        /* \"#utility.yul\":2830:2868   */\n      sub\n        /* \"#utility.yul\":2827:2911   */\n      tag_111\n      jumpi\n        /* \"#utility.yul\":2883:2901   */\n      tag_112\n      tag_56\n      jump\t// in\n    tag_112:\n        /* \"#utility.yul\":2827:2911   */\n    tag_111:\n        /* \"#utility.yul\":2648:2917   */\n      pop\n        /* \"#utility.yul\":2597:2917   */\n      swap2\n      swap1\n      pop\n      jump\t// out\n        /* \"#utility.yul\":2923:3105   */\n    tag_57:\n        /* \"#utility.yul\":3063:3097   */\n      0x596f7520686176656e27742073656c65637465642061207465616d2079657421\n        /* \"#utility.yul\":3059:3060   */\n      0x00\n        /* \"#utility.yul\":3051:3057   */\n      dup3\n        /* \"#utility.yul\":3047:3061   */\n      add\n        /* \"#utility.yul\":3040:3098   */\n      mstore\n        /* \"#utility.yul\":2923:3105   */\n      pop\n      jump\t// out\n        /* \"#utility.yul\":3111:3477   */\n    tag_58:\n        /* \"#utility.yul\":3253:3256   */\n      0x00\n        /* \"#utility.yul\":3274:3341   */\n      tag_115\n        /* \"#utility.yul\":3338:3340   */\n      0x20\n        /* \"#utility.yul\":3333:3336   */\n      dup4\n        /* \"#utility.yul\":3274:3341   */\n      tag_52\n      jump\t// in\n    tag_115:\n        /* \"#utility.yul\":3267:3341   */\n      swap2\n      pop\n        /* \"#utility.yul\":3350:3443   */\n      tag_116\n        /* \"#utility.yul\":3439:3442   */\n      dup3\n        /* \"#utility.yul\":3350:3443   */\n      tag_57\n      jump\t// in\n    tag_116:\n        /* \"#utility.yul\":3468:3470   */\n      0x20\n        /* \"#utility.yul\":3463:3466   */\n      dup3\n        /* \"#utility.yul\":3459:3471   */\n      add\n        /* \"#utility.yul\":3452:3471   */\n      swap1\n      pop\n        /* \"#utility.yul\":3111:3477   */\n      swap2\n      swap1\n      pop\n      jump\t// out\n        /* \"#utility.yul\":3483:3902   */\n    tag_26:\n        /* \"#utility.yul\":3649:3653   */\n      0x00\n        /* \"#utility.yul\":3687:3689   */\n      0x20\n        /* \"#utility.yul\":3676:3685   */\n      dup3\n        /* \"#utility.yul\":3672:3690   */\n      add\n        /* \"#utility.yul\":3664:3690   */\n      swap1\n      pop\n        /* \"#utility.yul\":3736:3745   */\n      dup2\n        /* \"#utility.yul\":3730:3734   */\n      dup2\n        /* \"#utility.yul\":3726:3746   */\n      sub\n        /* \"#utility.yul\":3722:3723   */\n      0x00\n        /* \"#utility.yul\":3711:3720   */\n      dup4\n        /* \"#utility.yul\":3707:3724   */\n      add\n        /* \"#utility.yul\":3700:3747   */\n      mstore\n        /* \"#utility.yul\":3764:3895   */\n      tag_118\n        /* \"#utility.yul\":3890:3894   */\n      dup2\n        /* \"#utility.yul\":3764:3895   */\n      tag_58\n      jump\t// in\n    tag_118:\n        /* \"#utility.yul\":3756:3895   */\n      swap1\n      pop\n        /* \"#utility.yul\":3483:3902   */\n      swap2\n      swap1\n      pop\n      jump\t// out\n        /* \"#utility.yul\":3908:4082   */\n    tag_59:\n        /* \"#utility.yul\":4048:4074   */\n      0x596f7520616c726561647920686176652061207465616d210000000000000000\n        /* \"#utility.yul\":4044:4045   */\n      0x00\n        /* \"#utility.yul\":4036:4042   */\n      dup3\n        /* \"#utility.yul\":4032:4046   */\n      add\n        /* \"#utility.yul\":4025:4075   */\n      mstore\n        /* \"#utility.yul\":3908:4082   */\n      pop\n      jump\t// out\n        /* \"#utility.yul\":4088:4454   */\n    tag_60:\n        /* \"#utility.yul\":4230:4233   */\n      0x00\n        /* \"#utility.yul\":4251:4318   */\n      tag_121\n        /* \"#utility.yul\":4315:4317   */\n      0x18\n        /* \"#utility.yul\":4310:4313   */\n      dup4\n        /* \"#utility.yul\":4251:4318   */\n      tag_52\n      jump\t// in\n    tag_121:\n        /* \"#utility.yul\":4244:4318   */\n      swap2\n      pop\n        /* \"#utility.yul\":4327:4420   */\n      tag_122\n        /* \"#utility.yul\":4416:4419   */\n      dup3\n        /* \"#utility.yul\":4327:4420   */\n      tag_59\n      jump\t// in\n    tag_122:\n        /* \"#utility.yul\":4445:4447   */\n      0x20\n        /* \"#utility.yul\":4440:4443   */\n      dup3\n        /* \"#utility.yul\":4436:4448   */\n      add\n        /* \"#utility.yul\":4429:4448   */\n      swap1\n      pop\n        /* \"#utility.yul\":4088:4454   */\n      swap2\n      swap1\n      pop\n      jump\t// out\n        /* \"#utility.yul\":4460:4879   */\n    tag_35:\n        /* \"#utility.yul\":4626:4630   */\n      0x00\n        /* \"#utility.yul\":4664:4666   */\n      0x20\n        /* \"#utility.yul\":4653:4662   */\n      dup3\n        /* \"#utility.yul\":4649:4667   */\n      add\n        /* \"#utility.yul\":4641:4667   */\n      swap1\n      pop\n        /* \"#utility.yul\":4713:4722   */\n      dup2\n        /* \"#utility.yul\":4707:4711   */\n      dup2\n        /* \"#utility.yul\":4703:4723   */\n      sub\n        /* \"#utility.yul\":4699:4700   */\n      0x00\n        /* \"#utility.yul\":4688:4697   */\n      dup4\n        /* \"#utility.yul\":4684:4701   */\n      add\n        /* \"#utility.yul\":4677:4724   */\n      mstore\n        /* \"#utility.yul\":4741:4872   */\n      tag_124\n        /* \"#utility.yul\":4867:4871   */\n      dup2\n        /* \"#utility.yul\":4741:4872   */\n      tag_60\n      jump\t// in\n    tag_124:\n        /* \"#utility.yul\":4733:4872   */\n      swap1\n      pop\n        /* \"#utility.yul\":4460:4879   */\n      swap2\n      swap1\n      pop\n      jump\t// out\n        /* \"#utility.yul\":4885:4962   */\n    tag_61:\n        /* \"#utility.yul\":4922:4929   */\n      0x00\n        /* \"#utility.yul\":4951:4956   */\n      dup2\n        /* \"#utility.yul\":4940:4956   */\n      swap1\n      pop\n        /* \"#utility.yul\":4885:4962   */\n      swap2\n      swap1\n      pop\n      jump\t// out\n        /* \"#utility.yul\":4968:5148   */\n    tag_62:\n        /* \"#utility.yul\":5016:5093   */\n      0x4e487b7100000000000000000000000000000000000000000000000000000000\n        /* \"#utility.yul\":5013:5014   */\n      0x00\n        /* \"#utility.yul\":5006:5094   */\n      mstore\n        /* \"#utility.yul\":5113:5117   */\n      0x12\n        /* \"#utility.yul\":5110:5111   */\n      0x04\n        /* \"#utility.yul\":5103:5118   */\n      mstore\n        /* \"#utility.yul\":5137:5141   */\n      0x24\n        /* \"#utility.yul\":5134:5135   */\n      0x00\n        /* \"#utility.yul\":5127:5142   */\n      revert\n        /* \"#utility.yul\":5154:5330   */\n    tag_37:\n        /* \"#utility.yul\":5186:5187   */\n      0x00\n        /* \"#utility.yul\":5203:5223   */\n      tag_128\n        /* \"#utility.yul\":5221:5222   */\n      dup3\n        /* \"#utility.yul\":5203:5223   */\n      tag_61\n      jump\t// in\n    tag_128:\n        /* \"#utility.yul\":5198:5223   */\n      swap2\n      pop\n        /* \"#utility.yul\":5237:5257   */\n      tag_129\n        /* \"#utility.yul\":5255:5256   */\n      dup4\n        /* \"#utility.yul\":5237:5257   */\n      tag_61\n      jump\t// in\n    tag_129:\n        /* \"#utility.yul\":5232:5257   */\n      swap3\n      pop\n        /* \"#utility.yul\":5276:5277   */\n      dup3\n        /* \"#utility.yul\":5266:5301   */\n      tag_130\n      jumpi\n        /* \"#utility.yul\":5281:5299   */\n      tag_131\n      tag_62\n      jump\t// in\n    tag_131:\n        /* \"#utility.yul\":5266:5301   */\n    tag_130:\n        /* \"#utility.yul\":5322:5323   */\n      dup3\n        /* \"#utility.yul\":5319:5320   */\n      dup3\n        /* \"#utility.yul\":5315:5324   */\n      mod\n        /* \"#utility.yul\":5310:5324   */\n      swap1\n      pop\n        /* \"#utility.yul\":5154:5330   */\n      swap3\n      swap2\n      pop\n      pop\n      jump\t// out\n        /* \"#utility.yul\":5336:5516   */\n    tag_40:\n        /* \"#utility.yul\":5384:5461   */\n      0x4e487b7100000000000000000000000000000000000000000000000000000000\n        /* \"#utility.yul\":5381:5382   */\n      0x00\n        /* \"#utility.yul\":5374:5462   */\n      mstore\n        /* \"#utility.yul\":5481:5485   */\n      0x32\n        /* \"#utility.yul\":5478:5479   */\n      0x04\n        /* \"#utility.yul\":5471:5486   */\n      mstore\n        /* \"#utility.yul\":5505:5509   */\n      0x24\n        /* \"#utility.yul\":5502:5503   */\n      0x00\n        /* \"#utility.yul\":5495:5510   */\n      revert\n        /* \"#utility.yul\":5522:5675   */\n    tag_63:\n        /* \"#utility.yul\":5575:5581   */\n      0x00\n        /* \"#utility.yul\":5609:5614   */\n      dup2\n        /* \"#utility.yul\":5603:5615   */\n      sload\n        /* \"#utility.yul\":5593:5615   */\n      swap1\n      pop\n        /* \"#utility.yul\":5635:5668   */\n      tag_134\n        /* \"#utility.yul\":5661:5667   */\n      dup2\n        /* \"#utility.yul\":5635:5668   */\n      tag_18\n      jump\t// in\n    tag_134:\n        /* \"#utility.yul\":5625:5668   */\n      swap1\n      pop\n        /* \"#utility.yul\":5522:5675   */\n      swap2\n      swap1\n      pop\n      jump\t// out\n        /* \"#utility.yul\":5681:5861   */\n    tag_64:\n        /* \"#utility.yul\":5729:5806   */\n      0x4e487b7100000000000000000000000000000000000000000000000000000000\n        /* \"#utility.yul\":5726:5727   */\n      0x00\n        /* \"#utility.yul\":5719:5807   */\n      mstore\n        /* \"#utility.yul\":5826:5830   */\n      0x41\n        /* \"#utility.yul\":5823:5824   */\n      0x04\n        /* \"#utility.yul\":5816:5831   */\n      mstore\n        /* \"#utility.yul\":5850:5854   */\n      0x24\n        /* \"#utility.yul\":5847:5848   */\n      0x00\n        /* \"#utility.yul\":5840:5855   */\n      revert\n        /* \"#utility.yul\":5867:6008   */\n    tag_65:\n        /* \"#utility.yul\":5916:5920   */\n      0x00\n        /* \"#utility.yul\":5939:5942   */\n      dup2\n        /* \"#utility.yul\":5931:5942   */\n      swap1\n      pop\n        /* \"#utility.yul\":5962:5965   */\n      dup2\n        /* \"#utility.yul\":5959:5960   */\n      0x00\n        /* \"#utility.yul\":5952:5966   */\n      mstore\n        /* \"#utility.yul\":5996:6000   */\n      0x20\n        /* \"#utility.yul\":5993:5994   */\n      0x00\n        /* \"#utility.yul\":5983:6001   */\n      keccak256\n        /* \"#utility.yul\":5975:6001   */\n      swap1\n      pop\n        /* \"#utility.yul\":5867:6008   */\n      swap2\n      swap1\n      pop\n      jump\t// out\n        /* \"#utility.yul\":6014:6159   */\n    tag_66:\n        /* \"#utility.yul\":6067:6071   */\n      0x00\n        /* \"#utility.yul\":6090:6093   */\n      dup2\n        /* \"#utility.yul\":6082:6093   */\n      swap1\n      pop\n        /* \"#utility.yul\":6113:6116   */\n      dup2\n        /* \"#utility.yul\":6110:6111   */\n      0x00\n        /* \"#utility.yul\":6103:6117   */\n      mstore\n        /* \"#utility.yul\":6147:6151   */\n      0x20\n        /* \"#utility.yul\":6144:6145   */\n      0x00\n        /* \"#utility.yul\":6134:6152   */\n      keccak256\n        /* \"#utility.yul\":6126:6152   */\n      swap1\n      pop\n        /* \"#utility.yul\":6014:6159   */\n      swap2\n      swap1\n      pop\n      jump\t// out\n        /* \"#utility.yul\":6165:6258   */\n    tag_67:\n        /* \"#utility.yul\":6202:6208   */\n      0x00\n        /* \"#utility.yul\":6249:6251   */\n      0x20\n        /* \"#utility.yul\":6244:6246   */\n      0x1f\n        /* \"#utility.yul\":6237:6242   */\n      dup4\n        /* \"#utility.yul\":6233:6247   */\n      add\n        /* \"#utility.yul\":6229:6252   */\n      div\n        /* \"#utility.yul\":6219:6252   */\n      swap1\n      pop\n        /* \"#utility.yul\":6165:6258   */\n      swap2\n      swap1\n      pop\n      jump\t// out\n        /* \"#utility.yul\":6264:6371   */\n    tag_68:\n        /* \"#utility.yul\":6308:6316   */\n      0x00\n        /* \"#utility.yul\":6358:6363   */\n      dup3\n        /* \"#utility.yul\":6352:6356   */\n      dup3\n        /* \"#utility.yul\":6348:6364   */\n      shl\n        /* \"#utility.yul\":6327:6364   */\n      swap1\n      pop\n        /* \"#utility.yul\":6264:6371   */\n      swap3\n      swap2\n      pop\n      pop\n      jump\t// out\n        /* \"#utility.yul\":6377:6770   */\n    tag_69:\n        /* \"#utility.yul\":6446:6452   */\n      0x00\n        /* \"#utility.yul\":6496:6497   */\n      0x08\n        /* \"#utility.yul\":6484:6494   */\n      dup4\n        /* \"#utility.yul\":6480:6498   */\n      mul\n        /* \"#utility.yul\":6519:6616   */\n      tag_141\n        /* \"#utility.yul\":6549:6615   */\n      0xffffffffffffffffffffffffffffffffffffffffffffffffffffffffffffffff\n        /* \"#utility.yul\":6538:6547   */\n      dup3\n        /* \"#utility.yul\":6519:6616   */\n      tag_68\n      jump\t// in\n    tag_141:\n        /* \"#utility.yul\":6637:6676   */\n      tag_142\n        /* \"#utility.yul\":6667:6675   */\n      dup7\n        /* \"#utility.yul\":6656:6665   */\n      dup4\n        /* \"#utility.yul\":6637:6676   */\n      tag_68\n      jump\t// in\n    tag_142:\n        /* \"#utility.yul\":6625:6676   */\n      swap6\n      pop\n        /* \"#utility.yul\":6709:6713   */\n      dup1\n        /* \"#utility.yul\":6705:6714   */\n      not\n        /* \"#utility.yul\":6698:6703   */\n      dup5\n        /* \"#utility.yul\":6694:6715   */\n      and\n        /* \"#utility.yul\":6685:6715   */\n      swap4\n      pop\n        /* \"#utility.yul\":6758:6762   */\n      dup1\n        /* \"#utility.yul\":6748:6756   */\n      dup7\n        /* \"#utility.yul\":6744:6763   */\n      and\n        /* \"#utility.yul\":6737:6742   */\n      dup5\n        /* \"#utility.yul\":6734:6764   */\n      or\n        /* \"#utility.yul\":6724:6764   */\n      swap3\n      pop\n        /* \"#utility.yul\":6453:6770   */\n      pop\n      pop\n        /* \"#utility.yul\":6377:6770   */\n      swap4\n      swap3\n      pop\n      pop\n      pop\n      jump\t// out\n        /* \"#utility.yul\":6776:6836   */\n    tag_70:\n        /* \"#utility.yul\":6804:6807   */\n      0x00\n        /* \"#utility.yul\":6825:6830   */\n      dup2\n        /* \"#utility.yul\":6818:6830   */\n      swap1\n      pop\n        /* \"#utility.yul\":6776:6836   */\n      swap2\n      swap1\n      pop\n      jump\t// out\n        /* \"#utility.yul\":6842:6984   */\n    tag_71:\n        /* \"#utility.yul\":6892:6901   */\n      0x00\n        /* \"#utility.yul\":6925:6978   */\n      tag_145\n        /* \"#utility.yul\":6943:6977   */\n      tag_146\n        /* \"#utility.yul\":6952:6976   */\n      tag_147\n        /* \"#utility.yul\":6970:6975   */\n      dup5\n        /* \"#utility.yul\":6952:6976   */\n      tag_61\n      jump\t// in\n    tag_147:\n        /* \"#utility.yul\":6943:6977   */\n      tag_70\n      jump\t// in\n    tag_146:\n        /* \"#utility.yul\":6925:6978   */\n      tag_61\n      jump\t// in\n    tag_145:\n        /* \"#utility.yul\":6912:6978   */\n      swap1\n      pop\n        /* \"#utility.yul\":6842:6984   */\n      swap2\n      swap1\n      pop\n      jump\t// out\n        /* \"#utility.yul\":6990:7065   */\n    tag_72:\n        /* \"#utility.yul\":7033:7036   */\n      0x00\n        /* \"#utility.yul\":7054:7059   */\n      dup2\n        /* \"#utility.yul\":7047:7059   */\n      swap1\n      pop\n        /* \"#utility.yul\":6990:7065   */\n      swap2\n      swap1\n      pop\n      jump\t// out\n        /* \"#utility.yul\":7071:7340   */\n    tag_73:\n        /* \"#utility.yul\":7181:7220   */\n      tag_150\n        /* \"#utility.yul\":7212:7219   */\n      dup4\n        /* \"#utility.yul\":7181:7220   */\n      tag_71\n      jump\t// in\n    tag_150:\n        /* \"#utility.yul\":7242:7333   */\n      tag_151\n        /* \"#utility.yul\":7291:7332   */\n      tag_152\n        /* \"#utility.yul\":7315:7331   */\n      dup3\n        /* \"#utility.yul\":7291:7332   */\n      tag_72\n      jump\t// in\n    tag_152:\n        /* \"#utility.yul\":7283:7289   */\n      dup5\n        /* \"#utility.yul\":7276:7280   */\n      dup5\n        /* \"#utility.yul\":7270:7281   */\n      sload\n        /* \"#utility.yul\":7242:7333   */\n      tag_69\n      jump\t// in\n    tag_151:\n        /* \"#utility.yul\":7236:7240   */\n      dup3\n        /* \"#utility.yul\":7229:7334   */\n      sstore\n        /* \"#utility.yul\":7147:7340   */\n      pop\n        /* \"#utility.yul\":7071:7340   */\n      pop\n      pop\n      pop\n      jump\t// out\n        /* \"#utility.yul\":7346:7419   */\n    tag_74:\n        /* \"#utility.yul\":7391:7394   */\n      0x00\n        /* \"#utility.yul\":7412:7413   */\n      0x00\n        /* \"#utility.yul\":7405:7413   */\n      swap1\n      pop\n        /* \"#utility.yul\":7346:7419   */\n      swap1\n      jump\t// out\n        /* \"#utility.yul\":7425:7614   */\n    tag_75:\n        /* \"#utility.yul\":7502:7534   */\n      tag_155\n      tag_74\n      jump\t// in\n    tag_155:\n        /* \"#utility.yul\":7543:7608   */\n      tag_156\n        /* \"#utility.yul\":7601:7607   */\n      dup2\n        /* \"#utility.yul\":7593:7599   */\n      dup5\n        /* \"#utility.yul\":7587:7591   */\n      dup5\n        /* \"#utility.yul\":7543:7608   */\n      tag_73\n      jump\t// in\n    tag_156:\n        /* \"#utility.yul\":7478:7614   */\n      pop\n        /* \"#utility.yul\":7425:7614   */\n      pop\n      pop\n      jump\t// out\n        /* \"#utility.yul\":7620:7806   */\n    tag_76:\n        /* \"#utility.yul\":7680:7800   */\n    tag_158:\n        /* \"#utility.yul\":7697:7700   */\n      dup2\n        /* \"#utility.yul\":7690:7695   */\n      dup2\n        /* \"#utility.yul\":7687:7701   */\n      lt\n        /* \"#utility.yul\":7680:7800   */\n      iszero\n      tag_160\n      jumpi\n        /* \"#utility.yul\":7751:7790   */\n      tag_161\n        /* \"#utility.yul\":7788:7789   */\n      0x00\n        /* \"#utility.yul\":7781:7786   */\n      dup3\n        /* \"#utility.yul\":7751:7790   */\n      tag_75\n      jump\t// in\n    tag_161:\n        /* \"#utility.yul\":7724:7725   */\n      0x01\n        /* \"#utility.yul\":7717:7722   */\n      dup2\n        /* \"#utility.yul\":7713:7726   */\n      add\n        /* \"#utility.yul\":7704:7726   */\n      swap1\n      pop\n        /* \"#utility.yul\":7680:7800   */\n      jump(tag_158)\n    tag_160:\n        /* \"#utility.yul\":7620:7806   */\n      pop\n      pop\n      jump\t// out\n        /* \"#utility.yul\":7812:8355   */\n    tag_77:\n        /* \"#utility.yul\":7913:7915   */\n      0x1f\n        /* \"#utility.yul\":7908:7911   */\n      dup3\n        /* \"#utility.yul\":7905:7916   */\n      gt\n        /* \"#utility.yul\":7902:8348   */\n      iszero\n      tag_163\n      jumpi\n        /* \"#utility.yul\":7947:7985   */\n      tag_164\n        /* \"#utility.yul\":7979:7984   */\n      dup2\n        /* \"#utility.yul\":7947:7985   */\n      tag_65\n      jump\t// in\n    tag_164:\n        /* \"#utility.yul\":8031:8060   */\n      tag_165\n        /* \"#utility.yul\":8049:8059   */\n      dup5\n        /* \"#utility.yul\":8031:8060   */\n      tag_67\n      jump\t// in\n    tag_165:\n        /* \"#utility.yul\":8021:8029   */\n      dup2\n        /* \"#utility.yul\":8017:8061   */\n      add\n        /* \"#utility.yul\":8214:8216   */\n      0x20\n        /* \"#utility.yul\":8202:8212   */\n      dup6\n        /* \"#utility.yul\":8199:8217   */\n      lt\n        /* \"#utility.yul\":8196:8245   */\n      iszero\n      tag_166\n      jumpi\n        /* \"#utility.yul\":8235:8243   */\n      dup2\n        /* \"#utility.yul\":8220:8243   */\n      swap1\n      pop\n        /* \"#utility.yul\":8196:8245   */\n    tag_166:\n        /* \"#utility.yul\":8258:8338   */\n      tag_167\n        /* \"#utility.yul\":8314:8336   */\n      tag_168\n        /* \"#utility.yul\":8332:8335   */\n      dup6\n        /* \"#utility.yul\":8314:8336   */\n      tag_67\n      jump\t// in\n    tag_168:\n        /* \"#utility.yul\":8304:8312   */\n      dup4\n        /* \"#utility.yul\":8300:8337   */\n      add\n        /* \"#utility.yul\":8287:8298   */\n      dup3\n        /* \"#utility.yul\":8258:8338   */\n      tag_76\n      jump\t// in\n    tag_167:\n        /* \"#utility.yul\":7917:8348   */\n      pop\n      pop\n        /* \"#utility.yul\":7902:8348   */\n    tag_163:\n        /* \"#utility.yul\":7812:8355   */\n      pop\n      pop\n      pop\n      jump\t// out\n        /* \"#utility.yul\":8361:8478   */\n    tag_78:\n        /* \"#utility.yul\":8415:8423   */\n      0x00\n        /* \"#utility.yul\":8465:8470   */\n      dup3\n        /* \"#utility.yul\":8459:8463   */\n      dup3\n        /* \"#utility.yul\":8455:8471   */\n      shr\n        /* \"#utility.yul\":8434:8471   */\n      swap1\n      pop\n        /* \"#utility.yul\":8361:8478   */\n      swap3\n      swap2\n      pop\n      pop\n      jump\t// out\n        /* \"#utility.yul\":8484:8653   */\n    tag_79:\n        /* \"#utility.yul\":8528:8534   */\n      0x00\n        /* \"#utility.yul\":8561:8612   */\n      tag_171\n        /* \"#utility.yul\":8609:8610   */\n      0x00\n        /* \"#utility.yul\":8605:8611   */\n      not\n        /* \"#utility.yul\":8597:8602   */\n      dup5\n        /* \"#utility.yul\":8594:8595   */\n      0x08\n        /* \"#utility.yul\":8590:8603   */\n      mul\n        /* \"#utility.yul\":8561:8612   */\n      tag_78\n      jump\t// in\n    tag_171:\n        /* \"#utility.yul\":8557:8613   */\n      not\n        /* \"#utility.yul\":8642:8646   */\n      dup1\n        /* \"#utility.yul\":8636:8640   */\n      dup4\n        /* \"#utility.yul\":8632:8647   */\n      and\n        /* \"#utility.yul\":8622:8647   */\n      swap2\n      pop\n        /* \"#utility.yul\":8535:8653   */\n      pop\n        /* \"#utility.yul\":8484:8653   */\n      swap3\n      swap2\n      pop\n      pop\n      jump\t// out\n        /* \"#utility.yul\":8658:8953   */\n    tag_80:\n        /* \"#utility.yul\":8734:8738   */\n      0x00\n        /* \"#utility.yul\":8880:8909   */\n      tag_173\n        /* \"#utility.yul\":8905:8908   */\n      dup4\n        /* \"#utility.yul\":8899:8903   */\n      dup4\n        /* \"#utility.yul\":8880:8909   */\n      tag_79\n      jump\t// in\n    tag_173:\n        /* \"#utility.yul\":8872:8909   */\n      swap2\n      pop\n        /* \"#utility.yul\":8942:8945   */\n      dup3\n        /* \"#utility.yul\":8939:8940   */\n      0x02\n        /* \"#utility.yul\":8935:8946   */\n      mul\n        /* \"#utility.yul\":8929:8933   */\n      dup3\n        /* \"#utility.yul\":8926:8947   */\n      or\n        /* \"#utility.yul\":8918:8947   */\n      swap1\n      pop\n        /* \"#utility.yul\":8658:8953   */\n      swap3\n      swap2\n      pop\n      pop\n      jump\t// out\n        /* \"#utility.yul\":8958:10421   */\n    tag_43:\n        /* \"#utility.yul\":9073:9076   */\n      dup2\n        /* \"#utility.yul\":9067:9071   */\n      dup2\n        /* \"#utility.yul\":9064:9077   */\n      sub\n        /* \"#utility.yul\":9061:9087   */\n      tag_175\n      jumpi\n        /* \"#utility.yul\":9080:9085   */\n      pop\n      pop\n      jump(tag_174)\n        /* \"#utility.yul\":9061:9087   */\n    tag_175:\n        /* \"#utility.yul\":9111:9149   */\n      tag_176\n        /* \"#utility.yul\":9145:9148   */\n      dup3\n        /* \"#utility.yul\":9111:9149   */\n      tag_63\n      jump\t// in\n    tag_176:\n        /* \"#utility.yul\":9214:9232   */\n      0xffffffffffffffff\n        /* \"#utility.yul\":9206:9212   */\n      dup2\n        /* \"#utility.yul\":9203:9233   */\n      gt\n        /* \"#utility.yul\":9200:9256   */\n      iszero\n      tag_177\n      jumpi\n        /* \"#utility.yul\":9236:9254   */\n      tag_178\n      tag_64\n      jump\t// in\n    tag_178:\n        /* \"#utility.yul\":9200:9256   */\n    tag_177:\n        /* \"#utility.yul\":9280:9318   */\n      tag_179\n        /* \"#utility.yul\":9312:9316   */\n      dup3\n        /* \"#utility.yul\":9306:9317   */\n      sload\n        /* \"#utility.yul\":9280:9318   */\n      tag_18\n      jump\t// in\n    tag_179:\n        /* \"#utility.yul\":9365:9432   */\n      tag_180\n        /* \"#utility.yul\":9425:9431   */\n      dup3\n        /* \"#utility.yul\":9417:9423   */\n      dup3\n        /* \"#utility.yul\":9411:9415   */\n      dup6\n        /* \"#utility.yul\":9365:9432   */\n      tag_77\n      jump\t// in\n    tag_180:\n        /* \"#utility.yul\":9459:9460   */\n      0x00\n        /* \"#utility.yul\":9488:9490   */\n      0x1f\n        /* \"#utility.yul\":9480:9486   */\n      dup4\n        /* \"#utility.yul\":9477:9491   */\n      gt\n        /* \"#utility.yul\":9505:9506   */\n      0x01\n        /* \"#utility.yul\":9500:10176   */\n      dup2\n      eq\n      tag_182\n      jumpi\n        /* \"#utility.yul\":10220:10221   */\n      0x00\n        /* \"#utility.yul\":10237:10243   */\n      dup5\n        /* \"#utility.yul\":10234:10311   */\n      iszero\n      tag_183\n      jumpi\n        /* \"#utility.yul\":10286:10295   */\n      dup3\n        /* \"#utility.yul\":10281:10284   */\n      dup8\n        /* \"#utility.yul\":10277:10296   */\n      add\n        /* \"#utility.yul\":10271:10297   */\n      sload\n        /* \"#utility.yul\":10262:10297   */\n      swap1\n      pop\n        /* \"#utility.yul\":10234:10311   */\n    tag_183:\n        /* \"#utility.yul\":10337:10404   */\n      tag_184\n        /* \"#utility.yul\":10397:10403   */\n      dup6\n        /* \"#utility.yul\":10390:10395   */\n      dup3\n        /* \"#utility.yul\":10337:10404   */\n      tag_80\n      jump\t// in\n    tag_184:\n        /* \"#utility.yul\":10331:10335   */\n      dup7\n        /* \"#utility.yul\":10324:10405   */\n      sstore\n        /* \"#utility.yul\":10193:10415   */\n      pop\n        /* \"#utility.yul\":9470:10415   */\n      jump(tag_181)\n        /* \"#utility.yul\":9500:10176   */\n    tag_182:\n        /* \"#utility.yul\":9552:9556   */\n      0x1f\n        /* \"#utility.yul\":9548:9557   */\n      not\n        /* \"#utility.yul\":9540:9546   */\n      dup5\n        /* \"#utility.yul\":9536:9558   */\n      and\n        /* \"#utility.yul\":9578:9618   */\n      tag_185\n        /* \"#utility.yul\":9614:9617   */\n      dup8\n        /* \"#utility.yul\":9578:9618   */\n      tag_66\n      jump\t// in\n    tag_185:\n        /* \"#utility.yul\":9571:9618   */\n      swap7\n      pop\n        /* \"#utility.yul\":9645:9682   */\n      tag_186\n        /* \"#utility.yul\":9677:9681   */\n      dup7\n        /* \"#utility.yul\":9645:9682   */\n      tag_65\n      jump\t// in\n    tag_186:\n        /* \"#utility.yul\":9704:9705   */\n      0x00\n        /* \"#utility.yul\":9718:9925   */\n    tag_187:\n        /* \"#utility.yul\":9732:9739   */\n      dup3\n        /* \"#utility.yul\":9729:9730   */\n      dup2\n        /* \"#utility.yul\":9726:9740   */\n      lt\n        /* \"#utility.yul\":9718:9925   */\n      iszero\n      tag_189\n      jumpi\n        /* \"#utility.yul\":9811:9820   */\n      dup5\n        /* \"#utility.yul\":9806:9809   */\n      dup10\n        /* \"#utility.yul\":9802:9821   */\n      add\n        /* \"#utility.yul\":9796:9822   */\n      sload\n        /* \"#utility.yul\":9788:9794   */\n      dup3\n        /* \"#utility.yul\":9781:9823   */\n      sstore\n        /* \"#utility.yul\":9862:9863   */\n      0x01\n        /* \"#utility.yul\":9854:9860   */\n      dup3\n        /* \"#utility.yul\":9850:9864   */\n      add\n        /* \"#utility.yul\":9840:9864   */\n      swap2\n      pop\n        /* \"#utility.yul\":9909:9910   */\n      0x01\n        /* \"#utility.yul\":9898:9907   */\n      dup6\n        /* \"#utility.yul\":9894:9911   */\n      add\n        /* \"#utility.yul\":9881:9911   */\n      swap5\n      pop\n        /* \"#utility.yul\":9755:9759   */\n      0x20\n        /* \"#utility.yul\":9752:9753   */\n      dup2\n        /* \"#utility.yul\":9748:9760   */\n      add\n        /* \"#utility.yul\":9743:9760   */\n      swap1\n      pop\n        /* \"#utility.yul\":9718:9925   */\n      jump(tag_187)\n    tag_189:\n        /* \"#utility.yul\":9953:9959   */\n      dup7\n        /* \"#utility.yul\":9944:9951   */\n      dup4\n        /* \"#utility.yul\":9941:9960   */\n      lt\n        /* \"#utility.yul\":9938:10117   */\n      iszero\n      tag_190\n      jumpi\n        /* \"#utility.yul\":10011:10020   */\n      dup5\n        /* \"#utility.yul\":10006:10009   */\n      dup10\n        /* \"#utility.yul\":10002:10021   */\n      add\n        /* \"#utility.yul\":9996:10022   */\n      sload\n        /* \"#utility.yul\":10054:10102   */\n      tag_191\n        /* \"#utility.yul\":10096:10100   */\n      0x1f\n        /* \"#utility.yul\":10088:10094   */\n      dup10\n        /* \"#utility.yul\":10084:10101   */\n      and\n        /* \"#utility.yul\":10073:10082   */\n      dup3\n        /* \"#utility.yul\":10054:10102   */\n      tag_79\n      jump\t// in\n    tag_191:\n        /* \"#utility.yul\":10046:10052   */\n      dup4\n        /* \"#utility.yul\":10039:10103   */\n      sstore\n        /* \"#utility.yul\":9961:10117   */\n      pop\n        /* \"#utility.yul\":9938:10117   */\n    tag_190:\n        /* \"#utility.yul\":10163:10164   */\n      0x01\n        /* \"#utility.yul\":10159:10160   */\n      0x02\n        /* \"#utility.yul\":10151:10157   */\n      dup9\n        /* \"#utility.yul\":10147:10161   */\n      mul\n        /* \"#utility.yul\":10143:10165   */\n      add\n        /* \"#utility.yul\":10137:10141   */\n      dup9\n        /* \"#utility.yul\":10130:10166   */\n      sstore\n        /* \"#utility.yul\":9507:10176   */\n      pop\n      pop\n      pop\n        /* \"#utility.yul\":9470:10415   */\n    tag_181:\n      pop\n        /* \"#utility.yul\":9051:10421   */\n      pop\n      pop\n      pop\n        /* \"#utility.yul\":8958:10421   */\n      pop\n      pop\n    tag_174:\n      jump\t// out\n\n    auxdata: 0xa26469706673582212201a0b16ba5d045dceaffce58934b67b72ac879078e83831bbf1f2471f01c4bcf764736f6c634300081e0033\n}\n",
				"bytecode": {
					"linkReferences": {},
					"object": "6080604052604051806103c001604052806040518060400160405280600d81526020017f41746c616e7461204861776b730000000000000000000000000000000000000081525081526020016040518060400160405280600e81526020017f426f73746f6e2043656c7469637300000000000000000000000000000000000081525081526020016040518060400160405280600d81526020017f42726f6f6b6c796e204e6574730000000000000000000000000000000000000081525081526020016040518060400160405280601181526020017f436861726c6f74746520486f726e65747300000000000000000000000000000081525081526020016040518060400160405280600d81526020017f4368696361676f2042756c6c730000000000000000000000000000000000000081525081526020016040518060400160405280601381526020017f436c6576656c616e6420436176616c696572730000000000000000000000000081525081526020016040518060400160405280601081526020017f44616c6c6173204d6176657269636b730000000000000000000000000000000081525081526020016040518060400160405280600e81526020017f44656e766572204e75676765747300000000000000000000000000000000000081525081526020016040518060400160405280600f81526020017f446574726f697420506973746f6e73000000000000000000000000000000000081525081526020016040518060400160405280601581526020017f476f6c64656e2053746174652057617272696f7273000000000000000000000081525081526020016040518060400160405280600f81526020017f486f7573746f6e20526f636b657473000000000000000000000000000000000081525081526020016040518060400160405280600e81526020017f496e6469616e612050616365727300000000000000000000000000000000000081525081526020016040518060400160405280601481526020017f4c6f7320416e67656c657320436c69707065727300000000000000000000000081525081526020016040518060400160405280601281526020017f4c6f7320416e67656c6573204c616b657273000000000000000000000000000081525081526020016040518060400160405280601181526020017f4d656d70686973204772697a7a6c69657300000000000000000000000000000081525081526020016040518060400160405280600a81526020017f4d69616d6920486561740000000000000000000000000000000000000000000081525081526020016040518060400160405280600f81526020017f4d696c7761756b6565204275636b73000000000000000000000000000000000081525081526020016040518060400160405280601681526020017f4d696e6e65736f74612054696d626572776f6c7665730000000000000000000081525081526020016040518060400160405280601481526020017f4e6577204f726c65616e732050656c6963616e7300000000000000000000000081525081526020016040518060400160405280600f81526020017f4e657720596f726b204b6e69636b73000000000000000000000000000000000081525081526020016040518060400160405280601581526020017f4f6b6c61686f6d612043697479205468756e646572000000000000000000000081525081526020016040518060400160405280600d81526020017f4f726c616e646f204d616769630000000000000000000000000000000000000081525081526020016040518060400160405280601281526020017f5068696c6164656c70686961203736657273000000000000000000000000000081525081526020016040518060400160405280600c81526020017f50686f656e69782053756e73000000000000000000000000000000000000000081525081526020016040518060400160405280601681526020017f506f72746c616e6420547261696c20426c617a6572730000000000000000000081525081526020016040518060400160405280601081526020017f53616372616d656e746f204b696e67730000000000000000000000000000000081525081526020016040518060400160405280601181526020017f53616e20416e746f6e696f20537075727300000000000000000000000000000081525081526020016040518060400160405280600f81526020017f546f726f6e746f20526170746f7273000000000000000000000000000000000081525081526020016040518060400160405280600981526020017f55746168204a617a7a000000000000000000000000000000000000000000000081525081526020016040518060400160405280601281526020017f57617368696e67746f6e2057697a6172647300000000000000000000000000008152508152505f90601e610707929190610719565b50348015610713575f5ffd5b50610af7565b828054828255905f5260205f2090810192821561075f579160200282015b8281111561075e57825182908161074e9190610a28565b5091602001919060010190610737565b5b50905061076c9190610770565b5090565b5b8082111561078f575f81816107869190610793565b50600101610771565b5090565b50805461079f9061084f565b5f825580601f106107b057506107cd565b601f0160209004905f5260205f20908101906107cc91906107d0565b5b50565b5b808211156107e7575f815f9055506001016107d1565b5090565b5f81519050919050565b7f4e487b71000000000000000000000000000000000000000000000000000000005f52604160045260245ffd5b7f4e487b71000000000000000000000000000000000000000000000000000000005f52602260045260245ffd5b5f600282049050600182168061086657607f821691505b60208210810361087957610878610822565b5b50919050565b5f819050815f5260205f209050919050565b5f6020601f8301049050919050565b5f82821b905092915050565b5f600883026108db7fffffffffffffffffffffffffffffffffffffffffffffffffffffffffffffffff826108a0565b6108e586836108a0565b95508019841693508086168417925050509392505050565b5f819050919050565b5f819050919050565b5f61092961092461091f846108fd565b610906565b6108fd565b9050919050565b5f819050919050565b6109428361090f565b61095661094e82610930565b8484546108ac565b825550505050565b5f5f905090565b61096d61095e565b610978818484610939565b505050565b5b8181101561099b576109905f82610965565b60018101905061097e565b5050565b601f8211156109e0576109b18161087f565b6109ba84610891565b810160208510156109c9578190505b6109dd6109d585610891565b83018261097d565b50505b505050565b5f82821c905092915050565b5f610a005f19846008026109e5565b1980831691505092915050565b5f610a1883836109f1565b9150826002028217905092915050565b610a31826107eb565b67ffffffffffffffff811115610a4a57610a496107f5565b5b610a54825461084f565b610a5f82828561099f565b5f60209050601f831160018114610a90575f8415610a7e578287015190505b610a888582610a0d565b865550610aef565b601f198416610a9e8661087f565b5f5b82811015610ac557848901518255600182019150602085019450602081019050610aa0565b86831015610ae25784890151610ade601f8916826109f1565b8355505b6001600288020188555050505b505050505050565b6109cc80610b045f395ff3fe608060405234801561000f575f5ffd5b506004361061003f575f3560e01c8063112d5c65146100435780639c8c3e8014610073578063bcb4ab0e14610091575b5f5ffd5b61005d60048036038101906100589190610442565b61009b565b60405161006a91906104dd565b60405180910390f35b61007b610136565b60405161008891906104dd565b60405180910390f35b61009961028a565b005b6001602052805f5260405f205f9150905080546100b79061052a565b80601f01602080910402602001604051908101604052809291908181526020018280546100e39061052a565b801561012e5780601f106101055761010080835404028352916020019161012e565b820191905f5260205f20905b81548152906001019060200180831161011157829003601f168201915b505050505081565b606060025f3373ffffffffffffffffffffffffffffffffffffffff1673ffffffffffffffffffffffffffffffffffffffff1681526020019081526020015f205f9054906101000a900460ff166101c1576040517f08c379a00000000000000000000000000000000000000000000000000000000081526004016101b8906105a4565b60405180910390fd5b60015f3373ffffffffffffffffffffffffffffffffffffffff1673ffffffffffffffffffffffffffffffffffffffff1681526020019081526020015f2080546102099061052a565b80601f01602080910402602001604051908101604052809291908181526020018280546102359061052a565b80156102805780601f1061025757610100808354040283529160200191610280565b820191905f5260205f20905b81548152906001019060200180831161026357829003601f168201915b5050505050905090565b60025f3373ffffffffffffffffffffffffffffffffffffffff1673ffffffffffffffffffffffffffffffffffffffff1681526020019081526020015f205f9054906101000a900460ff1615610314576040517f08c379a000000000000000000000000000000000000000000000000000000000815260040161030b9061060c565b60405180910390fd5b5f5f80549050426103259190610660565b90505f818154811061033a57610339610690565b5b905f5260205f200160015f3373ffffffffffffffffffffffffffffffffffffffff1673ffffffffffffffffffffffffffffffffffffffff1681526020019081526020015f20908161038b91906108b1565b50600160025f3373ffffffffffffffffffffffffffffffffffffffff1673ffffffffffffffffffffffffffffffffffffffff1681526020019081526020015f205f6101000a81548160ff02191690831515021790555050565b5f5ffd5b5f73ffffffffffffffffffffffffffffffffffffffff82169050919050565b5f610411826103e8565b9050919050565b61042181610407565b811461042b575f5ffd5b50565b5f8135905061043c81610418565b92915050565b5f60208284031215610457576104566103e4565b5b5f6104648482850161042e565b91505092915050565b5f81519050919050565b5f82825260208201905092915050565b8281835e5f83830152505050565b5f601f19601f8301169050919050565b5f6104af8261046d565b6104b98185610477565b93506104c9818560208601610487565b6104d281610495565b840191505092915050565b5f6020820190508181035f8301526104f581846104a5565b905092915050565b7f4e487b71000000000000000000000000000000000000000000000000000000005f52602260045260245ffd5b5f600282049050600182168061054157607f821691505b602082108103610554576105536104fd565b5b50919050565b7f596f7520686176656e27742073656c65637465642061207465616d20796574215f82015250565b5f61058e602083610477565b91506105998261055a565b602082019050919050565b5f6020820190508181035f8301526105bb81610582565b9050919050565b7f596f7520616c726561647920686176652061207465616d2100000000000000005f82015250565b5f6105f6601883610477565b9150610601826105c2565b602082019050919050565b5f6020820190508181035f830152610623816105ea565b9050919050565b5f819050919050565b7f4e487b71000000000000000000000000000000000000000000000000000000005f52601260045260245ffd5b5f61066a8261062a565b91506106758361062a565b92508261068557610684610633565b5b828206905092915050565b7f4e487b71000000000000000000000000000000000000000000000000000000005f52603260045260245ffd5b5f815490506106cb8161052a565b9050919050565b7f4e487b71000000000000000000000000000000000000000000000000000000005f52604160045260245ffd5b5f819050815f5260205f209050919050565b5f819050815f5260205f209050919050565b5f6020601f8301049050919050565b5f82821b905092915050565b5f6008830261076d7fffffffffffffffffffffffffffffffffffffffffffffffffffffffffffffffff82610732565b6107778683610732565b95508019841693508086168417925050509392505050565b5f819050919050565b5f6107b26107ad6107a88461062a565b61078f565b61062a565b9050919050565b5f819050919050565b6107cb83610798565b6107df6107d7826107b9565b84845461073e565b825550505050565b5f5f905090565b6107f66107e7565b6108018184846107c2565b505050565b5b81811015610824576108195f826107ee565b600181019050610807565b5050565b601f8211156108695761083a816106ff565b61084384610723565b81016020851015610852578190505b61086661085e85610723565b830182610806565b50505b505050565b5f82821c905092915050565b5f6108895f198460080261086e565b1980831691505092915050565b5f6108a1838361087a565b9150826002028217905092915050565b8181036108bf575050610994565b6108c8826106bd565b67ffffffffffffffff8111156108e1576108e06106d2565b5b6108eb825461052a565b6108f6828285610828565b5f601f831160018114610923575f8415610911578287015490505b61091b8582610896565b86555061098d565b601f19841661093187610711565b965061093c866106ff565b5f5b828110156109635784890154825560018201915060018501945060208101905061093e565b86831015610980578489015461097c601f89168261087a565b8355505b6001600288020188555050505b5050505050505b56fea26469706673582212201a0b16ba5d045dceaffce58934b67b72ac879078e83831bbf1f2471f01c4bcf764736f6c634300081e0033",
					"opcodes": "PUSH1 0x80 PUSH1 0x40 MSTORE PUSH1 0x40 MLOAD DUP1 PUSH2 0x3C0 ADD PUSH1 0x40 MSTORE DUP1 PUSH1 0x40 MLOAD DUP1 PUSH1 0x40 ADD PUSH1 0x40 MSTORE DUP1 PUSH1 0xD DUP2 MSTORE PUSH1 0x20 ADD PUSH32 0x41746C616E7461204861776B7300000000000000000000000000000000000000 DUP2 MSTORE POP DUP2 MSTORE PUSH1 0x20 ADD PUSH1 0x40 MLOAD DUP1 PUSH1 0x40 ADD PUSH1 0x40 MSTORE DUP1 PUSH1 0xE DUP2 MSTORE PUSH1 0x20 ADD PUSH32 0x426F73746F6E2043656C74696373000000000000000000000000000000000000 DUP2 MSTORE POP DUP2 MSTORE PUSH1 0x20 ADD PUSH1 0x40 MLOAD DUP1 PUSH1 0x40 ADD PUSH1 0x40 MSTORE DUP1 PUSH1 0xD DUP2 MSTORE PUSH1 0x20 ADD PUSH32 0x42726F6F6B6C796E204E65747300000000000000000000000000000000000000 DUP2 MSTORE POP DUP2 MSTORE PUSH1 0x20 ADD PUSH1 0x40 MLOAD DUP1 PUSH1 0x40 ADD PUSH1 0x40 MSTORE DUP1 PUSH1 0x11 DUP2 MSTORE PUSH1 0x20 ADD PUSH32 0x436861726C6F74746520486F726E657473000000000000000000000000000000 DUP2 MSTORE POP DUP2 MSTORE PUSH1 0x20 ADD PUSH1 0x40 MLOAD DUP1 PUSH1 0x40 ADD PUSH1 0x40 MSTORE DUP1 PUSH1 0xD DUP2 MSTORE PUSH1 0x20 ADD PUSH32 0x4368696361676F2042756C6C7300000000000000000000000000000000000000 DUP2 MSTORE POP DUP2 MSTORE PUSH1 0x20 ADD PUSH1 0x40 MLOAD DUP1 PUSH1 0x40 ADD PUSH1 0x40 MSTORE DUP1 PUSH1 0x13 DUP2 MSTORE PUSH1 0x20 ADD PUSH32 0x436C6576656C616E6420436176616C6965727300000000000000000000000000 DUP2 MSTORE POP DUP2 MSTORE PUSH1 0x20 ADD PUSH1 0x40 MLOAD DUP1 PUSH1 0x40 ADD PUSH1 0x40 MSTORE DUP1 PUSH1 0x10 DUP2 MSTORE PUSH1 0x20 ADD PUSH32 0x44616C6C6173204D6176657269636B7300000000000000000000000000000000 DUP2 MSTORE POP DUP2 MSTORE PUSH1 0x20 ADD PUSH1 0x40 MLOAD DUP1 PUSH1 0x40 ADD PUSH1 0x40 MSTORE DUP1 PUSH1 0xE DUP2 MSTORE PUSH1 0x20 ADD PUSH32 0x44656E766572204E756767657473000000000000000000000000000000000000 DUP2 MSTORE POP DUP2 MSTORE PUSH1 0x20 ADD PUSH1 0x40 MLOAD DUP1 PUSH1 0x40 ADD PUSH1 0x40 MSTORE DUP1 PUSH1 0xF DUP2 MSTORE PUSH1 0x20 ADD PUSH32 0x446574726F697420506973746F6E730000000000000000000000000000000000 DUP2 MSTORE POP DUP2 MSTORE PUSH1 0x20 ADD PUSH1 0x40 MLOAD DUP1 PUSH1 0x40 ADD PUSH1 0x40 MSTORE DUP1 PUSH1 0x15 DUP2 MSTORE PUSH1 0x20 ADD PUSH32 0x476F6C64656E2053746174652057617272696F72730000000000000000000000 DUP2 MSTORE POP DUP2 MSTORE PUSH1 0x20 ADD PUSH1 0x40 MLOAD DUP1 PUSH1 0x40 ADD PUSH1 0x40 MSTORE DUP1 PUSH1 0xF DUP2 MSTORE PUSH1 0x20 ADD PUSH32 0x486F7573746F6E20526F636B6574730000000000000000000000000000000000 DUP2 MSTORE POP DUP2 MSTORE PUSH1 0x20 ADD PUSH1 0x40 MLOAD DUP1 PUSH1 0x40 ADD PUSH1 0x40 MSTORE DUP1 PUSH1 0xE DUP2 MSTORE PUSH1 0x20 ADD PUSH32 0x496E6469616E6120506163657273000000000000000000000000000000000000 DUP2 MSTORE POP DUP2 MSTORE PUSH1 0x20 ADD PUSH1 0x40 MLOAD DUP1 PUSH1 0x40 ADD PUSH1 0x40 MSTORE DUP1 PUSH1 0x14 DUP2 MSTORE PUSH1 0x20 ADD PUSH32 0x4C6F7320416E67656C657320436C697070657273000000000000000000000000 DUP2 MSTORE POP DUP2 MSTORE PUSH1 0x20 ADD PUSH1 0x40 MLOAD DUP1 PUSH1 0x40 ADD PUSH1 0x40 MSTORE DUP1 PUSH1 0x12 DUP2 MSTORE PUSH1 0x20 ADD PUSH32 0x4C6F7320416E67656C6573204C616B6572730000000000000000000000000000 DUP2 MSTORE POP DUP2 MSTORE PUSH1 0x20 ADD PUSH1 0x40 MLOAD DUP1 PUSH1 0x40 ADD PUSH1 0x40 MSTORE DUP1 PUSH1 0x11 DUP2 MSTORE PUSH1 0x20 ADD PUSH32 0x4D656D70686973204772697A7A6C696573000000000000000000000000000000 DUP2 MSTORE POP DUP2 MSTORE PUSH1 0x20 ADD PUSH1 0x40 MLOAD DUP1 PUSH1 0x40 ADD PUSH1 0x40 MSTORE DUP1 PUSH1 0xA DUP2 MSTORE PUSH1 0x20 ADD PUSH32 0x4D69616D69204865617400000000000000000000000000000000000000000000 DUP2 MSTORE POP DUP2 MSTORE PUSH1 0x20 ADD PUSH1 0x40 MLOAD DUP1 PUSH1 0x40 ADD PUSH1 0x40 MSTORE DUP1 PUSH1 0xF DUP2 MSTORE PUSH1 0x20 ADD PUSH32 0x4D696C7761756B6565204275636B730000000000000000000000000000000000 DUP2 MSTORE POP DUP2 MSTORE PUSH1 0x20 ADD PUSH1 0x40 MLOAD DUP1 PUSH1 0x40 ADD PUSH1 0x40 MSTORE DUP1 PUSH1 0x16 DUP2 MSTORE PUSH1 0x20 ADD PUSH32 0x4D696E6E65736F74612054696D626572776F6C76657300000000000000000000 DUP2 MSTORE POP DUP2 MSTORE PUSH1 0x20 ADD PUSH1 0x40 MLOAD DUP1 PUSH1 0x40 ADD PUSH1 0x40 MSTORE DUP1 PUSH1 0x14 DUP2 MSTORE PUSH1 0x20 ADD PUSH32 0x4E6577204F726C65616E732050656C6963616E73000000000000000000000000 DUP2 MSTORE POP DUP2 MSTORE PUSH1 0x20 ADD PUSH1 0x40 MLOAD DUP1 PUSH1 0x40 ADD PUSH1 0x40 MSTORE DUP1 PUSH1 0xF DUP2 MSTORE PUSH1 0x20 ADD PUSH32 0x4E657720596F726B204B6E69636B730000000000000000000000000000000000 DUP2 MSTORE POP DUP2 MSTORE PUSH1 0x20 ADD PUSH1 0x40 MLOAD DUP1 PUSH1 0x40 ADD PUSH1 0x40 MSTORE DUP1 PUSH1 0x15 DUP2 MSTORE PUSH1 0x20 ADD PUSH32 0x4F6B6C61686F6D612043697479205468756E6465720000000000000000000000 DUP2 MSTORE POP DUP2 MSTORE PUSH1 0x20 ADD PUSH1 0x40 MLOAD DUP1 PUSH1 0x40 ADD PUSH1 0x40 MSTORE DUP1 PUSH1 0xD DUP2 MSTORE PUSH1 0x20 ADD PUSH32 0x4F726C616E646F204D6167696300000000000000000000000000000000000000 DUP2 MSTORE POP DUP2 MSTORE PUSH1 0x20 ADD PUSH1 0x40 MLOAD DUP1 PUSH1 0x40 ADD PUSH1 0x40 MSTORE DUP1 PUSH1 0x12 DUP2 MSTORE PUSH1 0x20 ADD PUSH32 0x5068696C6164656C706869612037366572730000000000000000000000000000 DUP2 MSTORE POP DUP2 MSTORE PUSH1 0x20 ADD PUSH1 0x40 MLOAD DUP1 PUSH1 0x40 ADD PUSH1 0x40 MSTORE DUP1 PUSH1 0xC DUP2 MSTORE PUSH1 0x20 ADD PUSH32 0x50686F656E69782053756E730000000000000000000000000000000000000000 DUP2 MSTORE POP DUP2 MSTORE PUSH1 0x20 ADD PUSH1 0x40 MLOAD DUP1 PUSH1 0x40 ADD PUSH1 0x40 MSTORE DUP1 PUSH1 0x16 DUP2 MSTORE PUSH1 0x20 ADD PUSH32 0x506F72746C616E6420547261696C20426C617A65727300000000000000000000 DUP2 MSTORE POP DUP2 MSTORE PUSH1 0x20 ADD PUSH1 0x40 MLOAD DUP1 PUSH1 0x40 ADD PUSH1 0x40 MSTORE DUP1 PUSH1 0x10 DUP2 MSTORE PUSH1 0x20 ADD PUSH32 0x53616372616D656E746F204B696E677300000000000000000000000000000000 DUP2 MSTORE POP DUP2 MSTORE PUSH1 0x20 ADD PUSH1 0x40 MLOAD DUP1 PUSH1 0x40 ADD PUSH1 0x40 MSTORE DUP1 PUSH1 0x11 DUP2 MSTORE PUSH1 0x20 ADD PUSH32 0x53616E20416E746F6E696F205370757273000000000000000000000000000000 DUP2 MSTORE POP DUP2 MSTORE PUSH1 0x20 ADD PUSH1 0x40 MLOAD DUP1 PUSH1 0x40 ADD PUSH1 0x40 MSTORE DUP1 PUSH1 0xF DUP2 MSTORE PUSH1 0x20 ADD PUSH32 0x546F726F6E746F20526170746F72730000000000000000000000000000000000 DUP2 MSTORE POP DUP2 MSTORE PUSH1 0x20 ADD PUSH1 0x40 MLOAD DUP1 PUSH1 0x40 ADD PUSH1 0x40 MSTORE DUP1 PUSH1 0x9 DUP2 MSTORE PUSH1 0x20 ADD PUSH32 0x55746168204A617A7A0000000000000000000000000000000000000000000000 DUP2 MSTORE POP DUP2 MSTORE PUSH1 0x20 ADD PUSH1 0x40 MLOAD DUP1 PUSH1 0x40 ADD PUSH1 0x40 MSTORE DUP1 PUSH1 0x12 DUP2 MSTORE PUSH1 0x20 ADD PUSH32 0x57617368696E67746F6E2057697A617264730000000000000000000000000000 DUP2 MSTORE POP DUP2 MSTORE POP PUSH0 SWAP1 PUSH1 0x1E PUSH2 0x707 SWAP3 SWAP2 SWAP1 PUSH2 0x719 JUMP JUMPDEST POP CALLVALUE DUP1 ISZERO PUSH2 0x713 JUMPI PUSH0 PUSH0 REVERT JUMPDEST POP PUSH2 0xAF7 JUMP JUMPDEST DUP3 DUP1 SLOAD DUP3 DUP3 SSTORE SWAP1 PUSH0 MSTORE PUSH1 0x20 PUSH0 KECCAK256 SWAP1 DUP2 ADD SWAP3 DUP3 ISZERO PUSH2 0x75F JUMPI SWAP2 PUSH1 0x20 MUL DUP3 ADD JUMPDEST DUP3 DUP2 GT ISZERO PUSH2 0x75E JUMPI DUP3 MLOAD DUP3 SWAP1 DUP2 PUSH2 0x74E SWAP2 SWAP1 PUSH2 0xA28 JUMP JUMPDEST POP SWAP2 PUSH1 0x20 ADD SWAP2 SWAP1 PUSH1 0x1 ADD SWAP1 PUSH2 0x737 JUMP JUMPDEST JUMPDEST POP SWAP1 POP PUSH2 0x76C SWAP2 SWAP1 PUSH2 0x770 JUMP JUMPDEST POP SWAP1 JUMP JUMPDEST JUMPDEST DUP1 DUP3 GT ISZERO PUSH2 0x78F JUMPI PUSH0 DUP2 DUP2 PUSH2 0x786 SWAP2 SWAP1 PUSH2 0x793 JUMP JUMPDEST POP PUSH1 0x1 ADD PUSH2 0x771 JUMP JUMPDEST POP SWAP1 JUMP JUMPDEST POP DUP1 SLOAD PUSH2 0x79F SWAP1 PUSH2 0x84F JUMP JUMPDEST PUSH0 DUP3 SSTORE DUP1 PUSH1 0x1F LT PUSH2 0x7B0 JUMPI POP PUSH2 0x7CD JUMP JUMPDEST PUSH1 0x1F ADD PUSH1 0x20 SWAP1 DIV SWAP1 PUSH0 MSTORE PUSH1 0x20 PUSH0 KECCAK256 SWAP1 DUP2 ADD SWAP1 PUSH2 0x7CC SWAP2 SWAP1 PUSH2 0x7D0 JUMP JUMPDEST JUMPDEST POP JUMP JUMPDEST JUMPDEST DUP1 DUP3 GT ISZERO PUSH2 0x7E7 JUMPI PUSH0 DUP2 PUSH0 SWAP1 SSTORE POP PUSH1 0x1 ADD PUSH2 0x7D1 JUMP JUMPDEST POP SWAP1 JUMP JUMPDEST PUSH0 DUP2 MLOAD SWAP1 POP SWAP2 SWAP1 POP JUMP JUMPDEST PUSH32 0x4E487B7100000000000000000000000000000000000000000000000000000000 PUSH0 MSTORE PUSH1 0x41 PUSH1 0x4 MSTORE PUSH1 0x24 PUSH0 REVERT JUMPDEST PUSH32 0x4E487B7100000000000000000000000000000000000000000000000000000000 PUSH0 MSTORE PUSH1 0x22 PUSH1 0x4 MSTORE PUSH1 0x24 PUSH0 REVERT JUMPDEST PUSH0 PUSH1 0x2 DUP3 DIV SWAP1 POP PUSH1 0x1 DUP3 AND DUP1 PUSH2 0x866 JUMPI PUSH1 0x7F DUP3 AND SWAP2 POP JUMPDEST PUSH1 0x20 DUP3 LT DUP2 SUB PUSH2 0x879 JUMPI PUSH2 0x878 PUSH2 0x822 JUMP JUMPDEST JUMPDEST POP SWAP2 SWAP1 POP JUMP JUMPDEST PUSH0 DUP2 SWAP1 POP DUP2 PUSH0 MSTORE PUSH1 0x20 PUSH0 KECCAK256 SWAP1 POP SWAP2 SWAP1 POP JUMP JUMPDEST PUSH0 PUSH1 0x20 PUSH1 0x1F DUP4 ADD DIV SWAP1 POP SWAP2 SWAP1 POP JUMP JUMPDEST PUSH0 DUP3 DUP3 SHL SWAP1 POP SWAP3 SWAP2 POP POP JUMP JUMPDEST PUSH0 PUSH1 0x8 DUP4 MUL PUSH2 0x8DB PUSH32 0xFFFFFFFFFFFFFFFFFFFFFFFFFFFFFFFFFFFFFFFFFFFFFFFFFFFFFFFFFFFFFFFF DUP3 PUSH2 0x8A0 JUMP JUMPDEST PUSH2 0x8E5 DUP7 DUP4 PUSH2 0x8A0 JUMP JUMPDEST SWAP6 POP DUP1 NOT DUP5 AND SWAP4 POP DUP1 DUP7 AND DUP5 OR SWAP3 POP POP POP SWAP4 SWAP3 POP POP POP JUMP JUMPDEST PUSH0 DUP2 SWAP1 POP SWAP2 SWAP1 POP JUMP JUMPDEST PUSH0 DUP2 SWAP1 POP SWAP2 SWAP1 POP JUMP JUMPDEST PUSH0 PUSH2 0x929 PUSH2 0x924 PUSH2 0x91F DUP5 PUSH2 0x8FD JUMP JUMPDEST PUSH2 0x906 JUMP JUMPDEST PUSH2 0x8FD JUMP JUMPDEST SWAP1 POP SWAP2 SWAP1 POP JUMP JUMPDEST PUSH0 DUP2 SWAP1 POP SWAP2 SWAP1 POP JUMP JUMPDEST PUSH2 0x942 DUP4 PUSH2 0x90F JUMP JUMPDEST PUSH2 0x956 PUSH2 0x94E DUP3 PUSH2 0x930 JUMP JUMPDEST DUP5 DUP5 SLOAD PUSH2 0x8AC JUMP JUMPDEST DUP3 SSTORE POP POP POP POP JUMP JUMPDEST PUSH0 PUSH0 SWAP1 POP SWAP1 JUMP JUMPDEST PUSH2 0x96D PUSH2 0x95E JUMP JUMPDEST PUSH2 0x978 DUP2 DUP5 DUP5 PUSH2 0x939 JUMP JUMPDEST POP POP POP JUMP JUMPDEST JUMPDEST DUP2 DUP2 LT ISZERO PUSH2 0x99B JUMPI PUSH2 0x990 PUSH0 DUP3 PUSH2 0x965 JUMP JUMPDEST PUSH1 0x1 DUP2 ADD SWAP1 POP PUSH2 0x97E JUMP JUMPDEST POP POP JUMP JUMPDEST PUSH1 0x1F DUP3 GT ISZERO PUSH2 0x9E0 JUMPI PUSH2 0x9B1 DUP2 PUSH2 0x87F JUMP JUMPDEST PUSH2 0x9BA DUP5 PUSH2 0x891 JUMP JUMPDEST DUP2 ADD PUSH1 0x20 DUP6 LT ISZERO PUSH2 0x9C9 JUMPI DUP2 SWAP1 POP JUMPDEST PUSH2 0x9DD PUSH2 0x9D5 DUP6 PUSH2 0x891 JUMP JUMPDEST DUP4 ADD DUP3 PUSH2 0x97D JUMP JUMPDEST POP POP JUMPDEST POP POP POP JUMP JUMPDEST PUSH0 DUP3 DUP3 SHR SWAP1 POP SWAP3 SWAP2 POP POP JUMP JUMPDEST PUSH0 PUSH2 0xA00 PUSH0 NOT DUP5 PUSH1 0x8 MUL PUSH2 0x9E5 JUMP JUMPDEST NOT DUP1 DUP4 AND SWAP2 POP POP SWAP3 SWAP2 POP POP JUMP JUMPDEST PUSH0 PUSH2 0xA18 DUP4 DUP4 PUSH2 0x9F1 JUMP JUMPDEST SWAP2 POP DUP3 PUSH1 0x2 MUL DUP3 OR SWAP1 POP SWAP3 SWAP2 POP POP JUMP JUMPDEST PUSH2 0xA31 DUP3 PUSH2 0x7EB JUMP JUMPDEST PUSH8 0xFFFFFFFFFFFFFFFF DUP2 GT ISZERO PUSH2 0xA4A JUMPI PUSH2 0xA49 PUSH2 0x7F5 JUMP JUMPDEST JUMPDEST PUSH2 0xA54 DUP3 SLOAD PUSH2 0x84F JUMP JUMPDEST PUSH2 0xA5F DUP3 DUP3 DUP6 PUSH2 0x99F JUMP JUMPDEST PUSH0 PUSH1 0x20 SWAP1 POP PUSH1 0x1F DUP4 GT PUSH1 0x1 DUP2 EQ PUSH2 0xA90 JUMPI PUSH0 DUP5 ISZERO PUSH2 0xA7E JUMPI DUP3 DUP8 ADD MLOAD SWAP1 POP JUMPDEST PUSH2 0xA88 DUP6 DUP3 PUSH2 0xA0D JUMP JUMPDEST DUP7 SSTORE POP PUSH2 0xAEF JUMP JUMPDEST PUSH1 0x1F NOT DUP5 AND PUSH2 0xA9E DUP7 PUSH2 0x87F JUMP JUMPDEST PUSH0 JUMPDEST DUP3 DUP2 LT ISZERO PUSH2 0xAC5 JUMPI DUP5 DUP10 ADD MLOAD DUP3 SSTORE PUSH1 0x1 DUP3 ADD SWAP2 POP PUSH1 0x20 DUP6 ADD SWAP5 POP PUSH1 0x20 DUP2 ADD SWAP1 POP PUSH2 0xAA0 JUMP JUMPDEST DUP7 DUP4 LT ISZERO PUSH2 0xAE2 JUMPI DUP5 DUP10 ADD MLOAD PUSH2 0xADE PUSH1 0x1F DUP10 AND DUP3 PUSH2 0x9F1 JUMP JUMPDEST DUP4 SSTORE POP JUMPDEST PUSH1 0x1 PUSH1 0x2 DUP9 MUL ADD DUP9 SSTORE POP POP POP JUMPDEST POP POP POP POP POP POP JUMP JUMPDEST PUSH2 0x9CC DUP1 PUSH2 0xB04 PUSH0 CODECOPY PUSH0 RETURN INVALID PUSH1 0x80 PUSH1 0x40 MSTORE CALLVALUE DUP1 ISZERO PUSH2 0xF JUMPI PUSH0 PUSH0 REVERT JUMPDEST POP PUSH1 0x4 CALLDATASIZE LT PUSH2 0x3F JUMPI PUSH0 CALLDATALOAD PUSH1 0xE0 SHR DUP1 PUSH4 0x112D5C65 EQ PUSH2 0x43 JUMPI DUP1 PUSH4 0x9C8C3E80 EQ PUSH2 0x73 JUMPI DUP1 PUSH4 0xBCB4AB0E EQ PUSH2 0x91 JUMPI JUMPDEST PUSH0 PUSH0 REVERT JUMPDEST PUSH2 0x5D PUSH1 0x4 DUP1 CALLDATASIZE SUB DUP2 ADD SWAP1 PUSH2 0x58 SWAP2 SWAP1 PUSH2 0x442 JUMP JUMPDEST PUSH2 0x9B JUMP JUMPDEST PUSH1 0x40 MLOAD PUSH2 0x6A SWAP2 SWAP1 PUSH2 0x4DD JUMP JUMPDEST PUSH1 0x40 MLOAD DUP1 SWAP2 SUB SWAP1 RETURN JUMPDEST PUSH2 0x7B PUSH2 0x136 JUMP JUMPDEST PUSH1 0x40 MLOAD PUSH2 0x88 SWAP2 SWAP1 PUSH2 0x4DD JUMP JUMPDEST PUSH1 0x40 MLOAD DUP1 SWAP2 SUB SWAP1 RETURN JUMPDEST PUSH2 0x99 PUSH2 0x28A JUMP JUMPDEST STOP JUMPDEST PUSH1 0x1 PUSH1 0x20 MSTORE DUP1 PUSH0 MSTORE PUSH1 0x40 PUSH0 KECCAK256 PUSH0 SWAP2 POP SWAP1 POP DUP1 SLOAD PUSH2 0xB7 SWAP1 PUSH2 0x52A JUMP JUMPDEST DUP1 PUSH1 0x1F ADD PUSH1 0x20 DUP1 SWAP2 DIV MUL PUSH1 0x20 ADD PUSH1 0x40 MLOAD SWAP1 DUP2 ADD PUSH1 0x40 MSTORE DUP1 SWAP3 SWAP2 SWAP1 DUP2 DUP2 MSTORE PUSH1 0x20 ADD DUP3 DUP1 SLOAD PUSH2 0xE3 SWAP1 PUSH2 0x52A JUMP JUMPDEST DUP1 ISZERO PUSH2 0x12E JUMPI DUP1 PUSH1 0x1F LT PUSH2 0x105 JUMPI PUSH2 0x100 DUP1 DUP4 SLOAD DIV MUL DUP4 MSTORE SWAP2 PUSH1 0x20 ADD SWAP2 PUSH2 0x12E JUMP JUMPDEST DUP3 ADD SWAP2 SWAP1 PUSH0 MSTORE PUSH1 0x20 PUSH0 KECCAK256 SWAP1 JUMPDEST DUP2 SLOAD DUP2 MSTORE SWAP1 PUSH1 0x1 ADD SWAP1 PUSH1 0x20 ADD DUP1 DUP4 GT PUSH2 0x111 JUMPI DUP3 SWAP1 SUB PUSH1 0x1F AND DUP3 ADD SWAP2 JUMPDEST POP POP POP POP POP DUP2 JUMP JUMPDEST PUSH1 0x60 PUSH1 0x2 PUSH0 CALLER PUSH20 0xFFFFFFFFFFFFFFFFFFFFFFFFFFFFFFFFFFFFFFFF AND PUSH20 0xFFFFFFFFFFFFFFFFFFFFFFFFFFFFFFFFFFFFFFFF AND DUP2 MSTORE PUSH1 0x20 ADD SWAP1 DUP2 MSTORE PUSH1 0x20 ADD PUSH0 KECCAK256 PUSH0 SWAP1 SLOAD SWAP1 PUSH2 0x100 EXP SWAP1 DIV PUSH1 0xFF AND PUSH2 0x1C1 JUMPI PUSH1 0x40 MLOAD PUSH32 0x8C379A000000000000000000000000000000000000000000000000000000000 DUP2 MSTORE PUSH1 0x4 ADD PUSH2 0x1B8 SWAP1 PUSH2 0x5A4 JUMP JUMPDEST PUSH1 0x40 MLOAD DUP1 SWAP2 SUB SWAP1 REVERT JUMPDEST PUSH1 0x1 PUSH0 CALLER PUSH20 0xFFFFFFFFFFFFFFFFFFFFFFFFFFFFFFFFFFFFFFFF AND PUSH20 0xFFFFFFFFFFFFFFFFFFFFFFFFFFFFFFFFFFFFFFFF AND DUP2 MSTORE PUSH1 0x20 ADD SWAP1 DUP2 MSTORE PUSH1 0x20 ADD PUSH0 KECCAK256 DUP1 SLOAD PUSH2 0x209 SWAP1 PUSH2 0x52A JUMP JUMPDEST DUP1 PUSH1 0x1F ADD PUSH1 0x20 DUP1 SWAP2 DIV MUL PUSH1 0x20 ADD PUSH1 0x40 MLOAD SWAP1 DUP2 ADD PUSH1 0x40 MSTORE DUP1 SWAP3 SWAP2 SWAP1 DUP2 DUP2 MSTORE PUSH1 0x20 ADD DUP3 DUP1 SLOAD PUSH2 0x235 SWAP1 PUSH2 0x52A JUMP JUMPDEST DUP1 ISZERO PUSH2 0x280 JUMPI DUP1 PUSH1 0x1F LT PUSH2 0x257 JUMPI PUSH2 0x100 DUP1 DUP4 SLOAD DIV MUL DUP4 MSTORE SWAP2 PUSH1 0x20 ADD SWAP2 PUSH2 0x280 JUMP JUMPDEST DUP3 ADD SWAP2 SWAP1 PUSH0 MSTORE PUSH1 0x20 PUSH0 KECCAK256 SWAP1 JUMPDEST DUP2 SLOAD DUP2 MSTORE SWAP1 PUSH1 0x1 ADD SWAP1 PUSH1 0x20 ADD DUP1 DUP4 GT PUSH2 0x263 JUMPI DUP3 SWAP1 SUB PUSH1 0x1F AND DUP3 ADD SWAP2 JUMPDEST POP POP POP POP POP SWAP1 POP SWAP1 JUMP JUMPDEST PUSH1 0x2 PUSH0 CALLER PUSH20 0xFFFFFFFFFFFFFFFFFFFFFFFFFFFFFFFFFFFFFFFF AND PUSH20 0xFFFFFFFFFFFFFFFFFFFFFFFFFFFFFFFFFFFFFFFF AND DUP2 MSTORE PUSH1 0x20 ADD SWAP1 DUP2 MSTORE PUSH1 0x20 ADD PUSH0 KECCAK256 PUSH0 SWAP1 SLOAD SWAP1 PUSH2 0x100 EXP SWAP1 DIV PUSH1 0xFF AND ISZERO PUSH2 0x314 JUMPI PUSH1 0x40 MLOAD PUSH32 0x8C379A000000000000000000000000000000000000000000000000000000000 DUP2 MSTORE PUSH1 0x4 ADD PUSH2 0x30B SWAP1 PUSH2 0x60C JUMP JUMPDEST PUSH1 0x40 MLOAD DUP1 SWAP2 SUB SWAP1 REVERT JUMPDEST PUSH0 PUSH0 DUP1 SLOAD SWAP1 POP TIMESTAMP PUSH2 0x325 SWAP2 SWAP1 PUSH2 0x660 JUMP JUMPDEST SWAP1 POP PUSH0 DUP2 DUP2 SLOAD DUP2 LT PUSH2 0x33A JUMPI PUSH2 0x339 PUSH2 0x690 JUMP JUMPDEST JUMPDEST SWAP1 PUSH0 MSTORE PUSH1 0x20 PUSH0 KECCAK256 ADD PUSH1 0x1 PUSH0 CALLER PUSH20 0xFFFFFFFFFFFFFFFFFFFFFFFFFFFFFFFFFFFFFFFF AND PUSH20 0xFFFFFFFFFFFFFFFFFFFFFFFFFFFFFFFFFFFFFFFF AND DUP2 MSTORE PUSH1 0x20 ADD SWAP1 DUP2 MSTORE PUSH1 0x20 ADD PUSH0 KECCAK256 SWAP1 DUP2 PUSH2 0x38B SWAP2 SWAP1 PUSH2 0x8B1 JUMP JUMPDEST POP PUSH1 0x1 PUSH1 0x2 PUSH0 CALLER PUSH20 0xFFFFFFFFFFFFFFFFFFFFFFFFFFFFFFFFFFFFFFFF AND PUSH20 0xFFFFFFFFFFFFFFFFFFFFFFFFFFFFFFFFFFFFFFFF AND DUP2 MSTORE PUSH1 0x20 ADD SWAP1 DUP2 MSTORE PUSH1 0x20 ADD PUSH0 KECCAK256 PUSH0 PUSH2 0x100 EXP DUP2 SLOAD DUP2 PUSH1 0xFF MUL NOT AND SWAP1 DUP4 ISZERO ISZERO MUL OR SWAP1 SSTORE POP POP JUMP JUMPDEST PUSH0 PUSH0 REVERT JUMPDEST PUSH0 PUSH20 0xFFFFFFFFFFFFFFFFFFFFFFFFFFFFFFFFFFFFFFFF DUP3 AND SWAP1 POP SWAP2 SWAP1 POP JUMP JUMPDEST PUSH0 PUSH2 0x411 DUP3 PUSH2 0x3E8 JUMP JUMPDEST SWAP1 POP SWAP2 SWAP1 POP JUMP JUMPDEST PUSH2 0x421 DUP2 PUSH2 0x407 JUMP JUMPDEST DUP2 EQ PUSH2 0x42B JUMPI PUSH0 PUSH0 REVERT JUMPDEST POP JUMP JUMPDEST PUSH0 DUP2 CALLDATALOAD SWAP1 POP PUSH2 0x43C DUP2 PUSH2 0x418 JUMP JUMPDEST SWAP3 SWAP2 POP POP JUMP JUMPDEST PUSH0 PUSH1 0x20 DUP3 DUP5 SUB SLT ISZERO PUSH2 0x457 JUMPI PUSH2 0x456 PUSH2 0x3E4 JUMP JUMPDEST JUMPDEST PUSH0 PUSH2 0x464 DUP5 DUP3 DUP6 ADD PUSH2 0x42E JUMP JUMPDEST SWAP2 POP POP SWAP3 SWAP2 POP POP JUMP JUMPDEST PUSH0 DUP2 MLOAD SWAP1 POP SWAP2 SWAP1 POP JUMP JUMPDEST PUSH0 DUP3 DUP3 MSTORE PUSH1 0x20 DUP3 ADD SWAP1 POP SWAP3 SWAP2 POP POP JUMP JUMPDEST DUP3 DUP2 DUP4 MCOPY PUSH0 DUP4 DUP4 ADD MSTORE POP POP POP JUMP JUMPDEST PUSH0 PUSH1 0x1F NOT PUSH1 0x1F DUP4 ADD AND SWAP1 POP SWAP2 SWAP1 POP JUMP JUMPDEST PUSH0 PUSH2 0x4AF DUP3 PUSH2 0x46D JUMP JUMPDEST PUSH2 0x4B9 DUP2 DUP6 PUSH2 0x477 JUMP JUMPDEST SWAP4 POP PUSH2 0x4C9 DUP2 DUP6 PUSH1 0x20 DUP7 ADD PUSH2 0x487 JUMP JUMPDEST PUSH2 0x4D2 DUP2 PUSH2 0x495 JUMP JUMPDEST DUP5 ADD SWAP2 POP POP SWAP3 SWAP2 POP POP JUMP JUMPDEST PUSH0 PUSH1 0x20 DUP3 ADD SWAP1 POP DUP2 DUP2 SUB PUSH0 DUP4 ADD MSTORE PUSH2 0x4F5 DUP2 DUP5 PUSH2 0x4A5 JUMP JUMPDEST SWAP1 POP SWAP3 SWAP2 POP POP JUMP JUMPDEST PUSH32 0x4E487B7100000000000000000000000000000000000000000000000000000000 PUSH0 MSTORE PUSH1 0x22 PUSH1 0x4 MSTORE PUSH1 0x24 PUSH0 REVERT JUMPDEST PUSH0 PUSH1 0x2 DUP3 DIV SWAP1 POP PUSH1 0x1 DUP3 AND DUP1 PUSH2 0x541 JUMPI PUSH1 0x7F DUP3 AND SWAP2 POP JUMPDEST PUSH1 0x20 DUP3 LT DUP2 SUB PUSH2 0x554 JUMPI PUSH2 0x553 PUSH2 0x4FD JUMP JUMPDEST JUMPDEST POP SWAP2 SWAP1 POP JUMP JUMPDEST PUSH32 0x596F7520686176656E27742073656C65637465642061207465616D2079657421 PUSH0 DUP3 ADD MSTORE POP JUMP JUMPDEST PUSH0 PUSH2 0x58E PUSH1 0x20 DUP4 PUSH2 0x477 JUMP JUMPDEST SWAP2 POP PUSH2 0x599 DUP3 PUSH2 0x55A JUMP JUMPDEST PUSH1 0x20 DUP3 ADD SWAP1 POP SWAP2 SWAP1 POP JUMP JUMPDEST PUSH0 PUSH1 0x20 DUP3 ADD SWAP1 POP DUP2 DUP2 SUB PUSH0 DUP4 ADD MSTORE PUSH2 0x5BB DUP2 PUSH2 0x582 JUMP JUMPDEST SWAP1 POP SWAP2 SWAP1 POP JUMP JUMPDEST PUSH32 0x596F7520616C726561647920686176652061207465616D210000000000000000 PUSH0 DUP3 ADD MSTORE POP JUMP JUMPDEST PUSH0 PUSH2 0x5F6 PUSH1 0x18 DUP4 PUSH2 0x477 JUMP JUMPDEST SWAP2 POP PUSH2 0x601 DUP3 PUSH2 0x5C2 JUMP JUMPDEST PUSH1 0x20 DUP3 ADD SWAP1 POP SWAP2 SWAP1 POP JUMP JUMPDEST PUSH0 PUSH1 0x20 DUP3 ADD SWAP1 POP DUP2 DUP2 SUB PUSH0 DUP4 ADD MSTORE PUSH2 0x623 DUP2 PUSH2 0x5EA JUMP JUMPDEST SWAP1 POP SWAP2 SWAP1 POP JUMP JUMPDEST PUSH0 DUP2 SWAP1 POP SWAP2 SWAP1 POP JUMP JUMPDEST PUSH32 0x4E487B7100000000000000000000000000000000000000000000000000000000 PUSH0 MSTORE PUSH1 0x12 PUSH1 0x4 MSTORE PUSH1 0x24 PUSH0 REVERT JUMPDEST PUSH0 PUSH2 0x66A DUP3 PUSH2 0x62A JUMP JUMPDEST SWAP2 POP PUSH2 0x675 DUP4 PUSH2 0x62A JUMP JUMPDEST SWAP3 POP DUP3 PUSH2 0x685 JUMPI PUSH2 0x684 PUSH2 0x633 JUMP JUMPDEST JUMPDEST DUP3 DUP3 MOD SWAP1 POP SWAP3 SWAP2 POP POP JUMP JUMPDEST PUSH32 0x4E487B7100000000000000000000000000000000000000000000000000000000 PUSH0 MSTORE PUSH1 0x32 PUSH1 0x4 MSTORE PUSH1 0x24 PUSH0 REVERT JUMPDEST PUSH0 DUP2 SLOAD SWAP1 POP PUSH2 0x6CB DUP2 PUSH2 0x52A JUMP JUMPDEST SWAP1 POP SWAP2 SWAP1 POP JUMP JUMPDEST PUSH32 0x4E487B7100000000000000000000000000000000000000000000000000000000 PUSH0 MSTORE PUSH1 0x41 PUSH1 0x4 MSTORE PUSH1 0x24 PUSH0 REVERT JUMPDEST PUSH0 DUP2 SWAP1 POP DUP2 PUSH0 MSTORE PUSH1 0x20 PUSH0 KECCAK256 SWAP1 POP SWAP2 SWAP1 POP JUMP JUMPDEST PUSH0 DUP2 SWAP1 POP DUP2 PUSH0 MSTORE PUSH1 0x20 PUSH0 KECCAK256 SWAP1 POP SWAP2 SWAP1 POP JUMP JUMPDEST PUSH0 PUSH1 0x20 PUSH1 0x1F DUP4 ADD DIV SWAP1 POP SWAP2 SWAP1 POP JUMP JUMPDEST PUSH0 DUP3 DUP3 SHL SWAP1 POP SWAP3 SWAP2 POP POP JUMP JUMPDEST PUSH0 PUSH1 0x8 DUP4 MUL PUSH2 0x76D PUSH32 0xFFFFFFFFFFFFFFFFFFFFFFFFFFFFFFFFFFFFFFFFFFFFFFFFFFFFFFFFFFFFFFFF DUP3 PUSH2 0x732 JUMP JUMPDEST PUSH2 0x777 DUP7 DUP4 PUSH2 0x732 JUMP JUMPDEST SWAP6 POP DUP1 NOT DUP5 AND SWAP4 POP DUP1 DUP7 AND DUP5 OR SWAP3 POP POP POP SWAP4 SWAP3 POP POP POP JUMP JUMPDEST PUSH0 DUP2 SWAP1 POP SWAP2 SWAP1 POP JUMP JUMPDEST PUSH0 PUSH2 0x7B2 PUSH2 0x7AD PUSH2 0x7A8 DUP5 PUSH2 0x62A JUMP JUMPDEST PUSH2 0x78F JUMP JUMPDEST PUSH2 0x62A JUMP JUMPDEST SWAP1 POP SWAP2 SWAP1 POP JUMP JUMPDEST PUSH0 DUP2 SWAP1 POP SWAP2 SWAP1 POP JUMP JUMPDEST PUSH2 0x7CB DUP4 PUSH2 0x798 JUMP JUMPDEST PUSH2 0x7DF PUSH2 0x7D7 DUP3 PUSH2 0x7B9 JUMP JUMPDEST DUP5 DUP5 SLOAD PUSH2 0x73E JUMP JUMPDEST DUP3 SSTORE POP POP POP POP JUMP JUMPDEST PUSH0 PUSH0 SWAP1 POP SWAP1 JUMP JUMPDEST PUSH2 0x7F6 PUSH2 0x7E7 JUMP JUMPDEST PUSH2 0x801 DUP2 DUP5 DUP5 PUSH2 0x7C2 JUMP JUMPDEST POP POP POP JUMP JUMPDEST JUMPDEST DUP2 DUP2 LT ISZERO PUSH2 0x824 JUMPI PUSH2 0x819 PUSH0 DUP3 PUSH2 0x7EE JUMP JUMPDEST PUSH1 0x1 DUP2 ADD SWAP1 POP PUSH2 0x807 JUMP JUMPDEST POP POP JUMP JUMPDEST PUSH1 0x1F DUP3 GT ISZERO PUSH2 0x869 JUMPI PUSH2 0x83A DUP2 PUSH2 0x6FF JUMP JUMPDEST PUSH2 0x843 DUP5 PUSH2 0x723 JUMP JUMPDEST DUP2 ADD PUSH1 0x20 DUP6 LT ISZERO PUSH2 0x852 JUMPI DUP2 SWAP1 POP JUMPDEST PUSH2 0x866 PUSH2 0x85E DUP6 PUSH2 0x723 JUMP JUMPDEST DUP4 ADD DUP3 PUSH2 0x806 JUMP JUMPDEST POP POP JUMPDEST POP POP POP JUMP JUMPDEST PUSH0 DUP3 DUP3 SHR SWAP1 POP SWAP3 SWAP2 POP POP JUMP JUMPDEST PUSH0 PUSH2 0x889 PUSH0 NOT DUP5 PUSH1 0x8 MUL PUSH2 0x86E JUMP JUMPDEST NOT DUP1 DUP4 AND SWAP2 POP POP SWAP3 SWAP2 POP POP JUMP JUMPDEST PUSH0 PUSH2 0x8A1 DUP4 DUP4 PUSH2 0x87A JUMP JUMPDEST SWAP2 POP DUP3 PUSH1 0x2 MUL DUP3 OR SWAP1 POP SWAP3 SWAP2 POP POP JUMP JUMPDEST DUP2 DUP2 SUB PUSH2 0x8BF JUMPI POP POP PUSH2 0x994 JUMP JUMPDEST PUSH2 0x8C8 DUP3 PUSH2 0x6BD JUMP JUMPDEST PUSH8 0xFFFFFFFFFFFFFFFF DUP2 GT ISZERO PUSH2 0x8E1 JUMPI PUSH2 0x8E0 PUSH2 0x6D2 JUMP JUMPDEST JUMPDEST PUSH2 0x8EB DUP3 SLOAD PUSH2 0x52A JUMP JUMPDEST PUSH2 0x8F6 DUP3 DUP3 DUP6 PUSH2 0x828 JUMP JUMPDEST PUSH0 PUSH1 0x1F DUP4 GT PUSH1 0x1 DUP2 EQ PUSH2 0x923 JUMPI PUSH0 DUP5 ISZERO PUSH2 0x911 JUMPI DUP3 DUP8 ADD SLOAD SWAP1 POP JUMPDEST PUSH2 0x91B DUP6 DUP3 PUSH2 0x896 JUMP JUMPDEST DUP7 SSTORE POP PUSH2 0x98D JUMP JUMPDEST PUSH1 0x1F NOT DUP5 AND PUSH2 0x931 DUP8 PUSH2 0x711 JUMP JUMPDEST SWAP7 POP PUSH2 0x93C DUP7 PUSH2 0x6FF JUMP JUMPDEST PUSH0 JUMPDEST DUP3 DUP2 LT ISZERO PUSH2 0x963 JUMPI DUP5 DUP10 ADD SLOAD DUP3 SSTORE PUSH1 0x1 DUP3 ADD SWAP2 POP PUSH1 0x1 DUP6 ADD SWAP5 POP PUSH1 0x20 DUP2 ADD SWAP1 POP PUSH2 0x93E JUMP JUMPDEST DUP7 DUP4 LT ISZERO PUSH2 0x980 JUMPI DUP5 DUP10 ADD SLOAD PUSH2 0x97C PUSH1 0x1F DUP10 AND DUP3 PUSH2 0x87A JUMP JUMPDEST DUP4 SSTORE POP JUMPDEST PUSH1 0x1 PUSH1 0x2 DUP9 MUL ADD DUP9 SSTORE POP POP POP JUMPDEST POP POP POP POP POP POP JUMPDEST JUMP INVALID LOG2 PUSH5 0x6970667358 0x22 SLT KECCAK256 BYTE SIGNEXTEND AND 0xBA TSTORE DIV TSTORE 0xCE 0xAF 0xFC JUMPF 0x8934 0xB6 PUSH28 0x72AC879078E83831BBF1F2471F01C4BCF764736F6C634300081E0033 "
				},
				"gasEstimates": {
					"creation": {
						"codeDepositCost": "501600",
						"executionCost": "infinite",
						"totalCost": "infinite"
					},
					"external": {
						"getMyTeam()": "infinite",
						"userTeam(address)": "infinite",
						"write()": "infinite"
					}
				},
				"methodIdentifiers": {
					"getMyTeam()": "9c8c3e80",
					"userTeam(address)": "112d5c65",
					"write()": "bcb4ab0e"
				}
			},
			"storageLayout": {
				"storage": [
					{
						"astId": 35,
						"contract": "contracts/nbateamselector.sol:NBATeamSelector",
						"label": "teams",
						"offset": 0,
						"slot": "0",
						"type": "t_array(t_string_storage)dyn_storage"
					},
					{
						"astId": 39,
						"contract": "contracts/nbateamselector.sol:NBATeamSelector",
						"label": "userTeam",
						"offset": 0,
						"slot": "1",
						"type": "t_mapping(t_address,t_string_storage)"
					},
					{
						"astId": 43,
						"contract": "contracts/nbateamselector.sol:NBATeamSelector",
						"label": "hasTeam",
						"offset": 0,
						"slot": "2",
						"type": "t_mapping(t_address,t_bool)"
					}
				],
				"types": {
					"t_address": {
						"encoding": "inplace",
						"label": "address",
						"numberOfBytes": "20"
					},
					"t_array(t_string_storage)dyn_storage": {
						"base": "t_string_storage",
						"encoding": "dynamic_array",
						"label": "string[]",
						"numberOfBytes": "32"
					},
					"t_bool": {
						"encoding": "inplace",
						"label": "bool",
						"numberOfBytes": "1"
					},
					"t_mapping(t_address,t_bool)": {
						"encoding": "mapping",
						"key": "t_address",
						"label": "mapping(address => bool)",
						"numberOfBytes": "32",
						"value": "t_bool"
					},
					"t_mapping(t_address,t_string_storage)": {
						"encoding": "mapping",
						"key": "t_address",
						"label": "mapping(address => string)",
						"numberOfBytes": "32",
						"value": "t_string_storage"
					},
					"t_string_storage": {
						"encoding": "bytes",
						"label": "string",
						"numberOfBytes": "32"
					}
				}
			},
			"userdoc": {
				"kind": "user",
				"methods": {},
				"version": 1
			}
		}
	}
}