{
	"data": {
		"bytecode": {
			"linkReferences": {},
			"object": "60806040526040518061028001604052806040518060400160405280600781526020017f417273656e616c0000000000000000000000000000000000000000000000000081525081526020016040518060400160405280600b81526020017f4173746f6e2056696c6c6100000000000000000000000000000000000000000081525081526020016040518060400160405280600b81526020017f426f75726e656d6f75746800000000000000000000000000000000000000000081525081526020016040518060400160405280600981526020017f4272656e74666f7264000000000000000000000000000000000000000000000081525081526020016040518060400160405280601681526020017f4272696768746f6e202620486f766520416c62696f6e0000000000000000000081525081526020016040518060400160405280600781526020017f4368656c7365610000000000000000000000000000000000000000000000000081525081526020016040518060400160405280600e81526020017f4372797374616c2050616c61636500000000000000000000000000000000000081525081526020016040518060400160405280600781526020017f45766572746f6e0000000000000000000000000000000000000000000000000081525081526020016040518060400160405280600681526020017f46756c68616d000000000000000000000000000000000000000000000000000081525081526020016040518060400160405280600c81526020017f4c6565647320556e69746564000000000000000000000000000000000000000081525081526020016040518060400160405280600e81526020017f4c6569636573746572204369747900000000000000000000000000000000000081525081526020016040518060400160405280600981526020017f4c69766572706f6f6c000000000000000000000000000000000000000000000081525081526020016040518060400160405280600f81526020017f4d616e636865737465722043697479000000000000000000000000000000000081525081526020016040518060400160405280601181526020017f4d616e6368657374657220556e6974656400000000000000000000000000000081525081526020016040518060400160405280601081526020017f4e6577636173746c6520556e697465640000000000000000000000000000000081525081526020016040518060400160405280601181526020017f4e6f7474696e6768616d20466f7265737400000000000000000000000000000081525081526020016040518060400160405280600b81526020017f536f757468616d70746f6e00000000000000000000000000000000000000000081525081526020016040518060400160405280601181526020017f546f7474656e68616d20486f747370757200000000000000000000000000000081525081526020016040518060400160405280600f81526020017f576573742048616d20556e69746564000000000000000000000000000000000081525081526020016040518060400160405280601781526020017f576f6c76657268616d70746f6e2057616e6465726572730000000000000000008152508152505f9060146104b99291906104cb565b503480156104c5575f5ffd5b506108a9565b828054828255905f5260205f20908101928215610511579160200282015b8281111561051057825182908161050091906107da565b50916020019190600101906104e9565b5b50905061051e9190610522565b5090565b5b80821115610541575f81816105389190610545565b50600101610523565b5090565b50805461055190610601565b5f825580601f10610562575061057f565b601f0160209004905f5260205f209081019061057e9190610582565b5b50565b5b80821115610599575f815f905550600101610583565b5090565b5f81519050919050565b7f4e487b71000000000000000000000000000000000000000000000000000000005f52604160045260245ffd5b7f4e487b71000000000000000000000000000000000000000000000000000000005f52602260045260245ffd5b5f600282049050600182168061061857607f821691505b60208210810361062b5761062a6105d4565b5b50919050565b5f819050815f5260205f209050919050565b5f6020601f8301049050919050565b5f82821b905092915050565b5f6008830261068d7fffffffffffffffffffffffffffffffffffffffffffffffffffffffffffffffff82610652565b6106978683610652565b95508019841693508086168417925050509392505050565b5f819050919050565b5f819050919050565b5f6106db6106d66106d1846106af565b6106b8565b6106af565b9050919050565b5f819050919050565b6106f4836106c1565b610708610700826106e2565b84845461065e565b825550505050565b5f5f905090565b61071f610710565b61072a8184846106eb565b505050565b5b8181101561074d576107425f82610717565b600181019050610730565b5050565b601f8211156107925761076381610631565b61076c84610643565b8101602085101561077b578190505b61078f61078785610643565b83018261072f565b50505b505050565b5f82821c905092915050565b5f6107b25f1984600802610797565b1980831691505092915050565b5f6107ca83836107a3565b9150826002028217905092915050565b6107e38261059d565b67ffffffffffffffff8111156107fc576107fb6105a7565b5b6108068254610601565b610811828285610751565b5f60209050601f831160018114610842575f8415610830578287015190505b61083a85826107bf565b8655506108a1565b601f19841661085086610631565b5f5b8281101561087757848901518255600182019150602085019450602081019050610852565b868310156108945784890151610890601f8916826107a3565b8355505b6001600288020188555050505b505050505050565b6107bb806108b65f395ff3fe608060405234801561000f575f5ffd5b506004361061003f575f3560e01c8063112d5c65146100435780639c8c3e8014610073578063bcb4ab0e14610091575b5f5ffd5b61005d60048036038101906100589190610301565b61009b565b60405161006a919061039c565b60405180910390f35b61007b610136565b604051610088919061039c565b60405180910390f35b610099610201565b005b6001602052805f5260405f205f9150905080546100b7906103e9565b80601f01602080910402602001604051908101604052809291908181526020018280546100e3906103e9565b801561012e5780601f106101055761010080835404028352916020019161012e565b820191905f5260205f20905b81548152906001019060200180831161011157829003601f168201915b505050505081565b606060015f3373ffffffffffffffffffffffffffffffffffffffff1673ffffffffffffffffffffffffffffffffffffffff1681526020019081526020015f208054610180906103e9565b80601f01602080910402602001604051908101604052809291908181526020018280546101ac906103e9565b80156101f75780601f106101ce576101008083540402835291602001916101f7565b820191905f5260205f20905b8154815290600101906020018083116101da57829003601f168201915b5050505050905090565b5f60643373ffffffffffffffffffffffffffffffffffffffff16610225919061044f565b90505f5f8054905082610238919061044f565b90505f818154811061024d5761024c61047f565b5b905f5260205f200160015f3373ffffffffffffffffffffffffffffffffffffffff1673ffffffffffffffffffffffffffffffffffffffff1681526020019081526020015f20908161029e91906106a0565b505050565b5f5ffd5b5f73ffffffffffffffffffffffffffffffffffffffff82169050919050565b5f6102d0826102a7565b9050919050565b6102e0816102c6565b81146102ea575f5ffd5b50565b5f813590506102fb816102d7565b92915050565b5f60208284031215610316576103156102a3565b5b5f610323848285016102ed565b91505092915050565b5f81519050919050565b5f82825260208201905092915050565b8281835e5f83830152505050565b5f601f19601f8301169050919050565b5f61036e8261032c565b6103788185610336565b9350610388818560208601610346565b61039181610354565b840191505092915050565b5f6020820190508181035f8301526103b48184610364565b905092915050565b7f4e487b71000000000000000000000000000000000000000000000000000000005f52602260045260245ffd5b5f600282049050600182168061040057607f821691505b602082108103610413576104126103bc565b5b50919050565b5f819050919050565b7f4e487b71000000000000000000000000000000000000000000000000000000005f52601260045260245ffd5b5f61045982610419565b915061046483610419565b92508261047457610473610422565b5b828206905092915050565b7f4e487b71000000000000000000000000000000000000000000000000000000005f52603260045260245ffd5b5f815490506104ba816103e9565b9050919050565b7f4e487b71000000000000000000000000000000000000000000000000000000005f52604160045260245ffd5b5f819050815f5260205f209050919050565b5f819050815f5260205f209050919050565b5f6020601f8301049050919050565b5f82821b905092915050565b5f6008830261055c7fffffffffffffffffffffffffffffffffffffffffffffffffffffffffffffffff82610521565b6105668683610521565b95508019841693508086168417925050509392505050565b5f819050919050565b5f6105a161059c61059784610419565b61057e565b610419565b9050919050565b5f819050919050565b6105ba83610587565b6105ce6105c6826105a8565b84845461052d565b825550505050565b5f5f905090565b6105e56105d6565b6105f08184846105b1565b505050565b5b81811015610613576106085f826105dd565b6001810190506105f6565b5050565b601f82111561065857610629816104ee565b61063284610512565b81016020851015610641578190505b61065561064d85610512565b8301826105f5565b50505b505050565b5f82821c905092915050565b5f6106785f198460080261065d565b1980831691505092915050565b5f6106908383610669565b9150826002028217905092915050565b8181036106ae575050610783565b6106b7826104ac565b67ffffffffffffffff8111156106d0576106cf6104c1565b5b6106da82546103e9565b6106e5828285610617565b5f601f831160018114610712575f8415610700578287015490505b61070a8582610685565b86555061077c565b601f19841661072087610500565b965061072b866104ee565b5f5b828110156107525784890154825560018201915060018501945060208101905061072d565b8683101561076f578489015461076b601f891682610669565b8355505b6001600288020188555050505b5050505050505b56fea264697066735822122025ec19b7f81eeb2a52e5f06dfbf5f61bfb517c79b84d13a7f1ce18d891341c9e64736f6c634300081e0033",
			"opcodes": "PUSH1 0x80 PUSH1 0x40 MSTORE PUSH1 0x40 MLOAD DUP1 PUSH2 0x280 ADD PUSH1 0x40 MSTORE DUP1 PUSH1 0x40 MLOAD DUP1 PUSH1 0x40 ADD PUSH1 0x40 MSTORE DUP1 PUSH1 0x7 DUP2 MSTORE PUSH1 0x20 ADD PUSH32 0x417273656E616C00000000000000000000000000000000000000000000000000 DUP2 MSTORE POP DUP2 MSTORE PUSH1 0x20 ADD PUSH1 0x40 MLOAD DUP1 PUSH1 0x40 ADD PUSH1 0x40 MSTORE DUP1 PUSH1 0xB DUP2 MSTORE PUSH1 0x20 ADD PUSH32 0x4173746F6E2056696C6C61000000000000000000000000000000000000000000 DUP2 MSTORE POP DUP2 MSTORE PUSH1 0x20 ADD PUSH1 0x40 MLOAD DUP1 PUSH1 0x40 ADD PUSH1 0x40 MSTORE DUP1 PUSH1 0xB DUP2 MSTORE PUSH1 0x20 ADD PUSH32 0x426F75726E656D6F757468000000000000000000000000000000000000000000 DUP2 MSTORE POP DUP2 MSTORE PUSH1 0x20 ADD PUSH1 0x40 MLOAD DUP1 PUSH1 0x40 ADD PUSH1 0x40 MSTORE DUP1 PUSH1 0x9 DUP2 MSTORE PUSH1 0x20 ADD PUSH32 0x4272656E74666F72640000000000000000000000000000000000000000000000 DUP2 MSTORE POP DUP2 MSTORE PUSH1 0x20 ADD PUSH1 0x40 MLOAD DUP1 PUSH1 0x40 ADD PUSH1 0x40 MSTORE DUP1 PUSH1 0x16 DUP2 MSTORE PUSH1 0x20 ADD PUSH32 0x4272696768746F6E202620486F766520416C62696F6E00000000000000000000 DUP2 MSTORE POP DUP2 MSTORE PUSH1 0x20 ADD PUSH1 0x40 MLOAD DUP1 PUSH1 0x40 ADD PUSH1 0x40 MSTORE DUP1 PUSH1 0x7 DUP2 MSTORE PUSH1 0x20 ADD PUSH32 0x4368656C73656100000000000000000000000000000000000000000000000000 DUP2 MSTORE POP DUP2 MSTORE PUSH1 0x20 ADD PUSH1 0x40 MLOAD DUP1 PUSH1 0x40 ADD PUSH1 0x40 MSTORE DUP1 PUSH1 0xE DUP2 MSTORE PUSH1 0x20 ADD PUSH32 0x4372797374616C2050616C616365000000000000000000000000000000000000 DUP2 MSTORE POP DUP2 MSTORE PUSH1 0x20 ADD PUSH1 0x40 MLOAD DUP1 PUSH1 0x40 ADD PUSH1 0x40 MSTORE DUP1 PUSH1 0x7 DUP2 MSTORE PUSH1 0x20 ADD PUSH32 0x45766572746F6E00000000000000000000000000000000000000000000000000 DUP2 MSTORE POP DUP2 MSTORE PUSH1 0x20 ADD PUSH1 0x40 MLOAD DUP1 PUSH1 0x40 ADD PUSH1 0x40 MSTORE DUP1 PUSH1 0x6 DUP2 MSTORE PUSH1 0x20 ADD PUSH32 0x46756C68616D0000000000000000000000000000000000000000000000000000 DUP2 MSTORE POP DUP2 MSTORE PUSH1 0x20 ADD PUSH1 0x40 MLOAD DUP1 PUSH1 0x40 ADD PUSH1 0x40 MSTORE DUP1 PUSH1 0xC DUP2 MSTORE PUSH1 0x20 ADD PUSH32 0x4C6565647320556E697465640000000000000000000000000000000000000000 DUP2 MSTORE POP DUP2 MSTORE PUSH1 0x20 ADD PUSH1 0x40 MLOAD DUP1 PUSH1 0x40 ADD PUSH1 0x40 MSTORE DUP1 PUSH1 0xE DUP2 MSTORE PUSH1 0x20 ADD PUSH32 0x4C65696365737465722043697479000000000000000000000000000000000000 DUP2 MSTORE POP DUP2 MSTORE PUSH1 0x20 ADD PUSH1 0x40 MLOAD DUP1 PUSH1 0x40 ADD PUSH1 0x40 MSTORE DUP1 PUSH1 0x9 DUP2 MSTORE PUSH1 0x20 ADD PUSH32 0x4C69766572706F6F6C0000000000000000000000000000000000000000000000 DUP2 MSTORE POP DUP2 MSTORE PUSH1 0x20 ADD PUSH1 0x40 MLOAD DUP1 PUSH1 0x40 ADD PUSH1 0x40 MSTORE DUP1 PUSH1 0xF DUP2 MSTORE PUSH1 0x20 ADD PUSH32 0x4D616E6368657374657220436974790000000000000000000000000000000000 DUP2 MSTORE POP DUP2 MSTORE PUSH1 0x20 ADD PUSH1 0x40 MLOAD DUP1 PUSH1 0x40 ADD PUSH1 0x40 MSTORE DUP1 PUSH1 0x11 DUP2 MSTORE PUSH1 0x20 ADD PUSH32 0x4D616E6368657374657220556E69746564000000000000000000000000000000 DUP2 MSTORE POP DUP2 MSTORE PUSH1 0x20 ADD PUSH1 0x40 MLOAD DUP1 PUSH1 0x40 ADD PUSH1 0x40 MSTORE DUP1 PUSH1 0x10 DUP2 MSTORE PUSH1 0x20 ADD PUSH32 0x4E6577636173746C6520556E6974656400000000000000000000000000000000 DUP2 MSTORE POP DUP2 MSTORE PUSH1 0x20 ADD PUSH1 0x40 MLOAD DUP1 PUSH1 0x40 ADD PUSH1 0x40 MSTORE DUP1 PUSH1 0x11 DUP2 MSTORE PUSH1 0x20 ADD PUSH32 0x4E6F7474696E6768616D20466F72657374000000000000000000000000000000 DUP2 MSTORE POP DUP2 MSTORE PUSH1 0x20 ADD PUSH1 0x40 MLOAD DUP1 PUSH1 0x40 ADD PUSH1 0x40 MSTORE DUP1 PUSH1 0xB DUP2 MSTORE PUSH1 0x20 ADD PUSH32 0x536F757468616D70746F6E000000000000000000000000000000000000000000 DUP2 MSTORE POP DUP2 MSTORE PUSH1 0x20 ADD PUSH1 0x40 MLOAD DUP1 PUSH1 0x40 ADD PUSH1 0x40 MSTORE DUP1 PUSH1 0x11 DUP2 MSTORE PUSH1 0x20 ADD PUSH32 0x546F7474656E68616D20486F7473707572000000000000000000000000000000 DUP2 MSTORE POP DUP2 MSTORE PUSH1 0x20 ADD PUSH1 0x40 MLOAD DUP1 PUSH1 0x40 ADD PUSH1 0x40 MSTORE DUP1 PUSH1 0xF DUP2 MSTORE PUSH1 0x20 ADD PUSH32 0x576573742048616D20556E697465640000000000000000000000000000000000 DUP2 MSTORE POP DUP2 MSTORE PUSH1 0x20 ADD PUSH1 0x40 MLOAD DUP1 PUSH1 0x40 ADD PUSH1 0x40 MSTORE DUP1 PUSH1 0x17 DUP2 MSTORE PUSH1 0x20 ADD PUSH32 0x576F6C76657268616D70746F6E2057616E646572657273000000000000000000 DUP2 MSTORE POP DUP2 MSTORE POP PUSH0 SWAP1 PUSH1 0x14 PUSH2 0x4B9 SWAP3 SWAP2 SWAP1 PUSH2 0x4CB JUMP JUMPDEST POP CALLVALUE DUP1 ISZERO PUSH2 0x4C5 JUMPI PUSH0 PUSH0 REVERT JUMPDEST POP PUSH2 0x8A9 JUMP JUMPDEST DUP3 DUP1 SLOAD DUP3 DUP3 SSTORE SWAP1 PUSH0 MSTORE PUSH1 0x20 PUSH0 KECCAK256 SWAP1 DUP2 ADD SWAP3 DUP3 ISZERO PUSH2 0x511 JUMPI SWAP2 PUSH1 0x20 MUL DUP3 ADD JUMPDEST DUP3 DUP2 GT ISZERO PUSH2 0x510 JUMPI DUP3 MLOAD DUP3 SWAP1 DUP2 PUSH2 0x500 SWAP2 SWAP1 PUSH2 0x7DA JUMP JUMPDEST POP SWAP2 PUSH1 0x20 ADD SWAP2 SWAP1 PUSH1 0x1 ADD SWAP1 PUSH2 0x4E9 JUMP JUMPDEST JUMPDEST POP SWAP1 POP PUSH2 0x51E SWAP2 SWAP1 PUSH2 0x522 JUMP JUMPDEST POP SWAP1 JUMP JUMPDEST JUMPDEST DUP1 DUP3 GT ISZERO PUSH2 0x541 JUMPI PUSH0 DUP2 DUP2 PUSH2 0x538 SWAP2 SWAP1 PUSH2 0x545 JUMP JUMPDEST POP PUSH1 0x1 ADD PUSH2 0x523 JUMP JUMPDEST POP SWAP1 JUMP JUMPDEST POP DUP1 SLOAD PUSH2 0x551 SWAP1 PUSH2 0x601 JUMP JUMPDEST PUSH0 DUP3 SSTORE DUP1 PUSH1 0x1F LT PUSH2 0x562 JUMPI POP PUSH2 0x57F JUMP JUMPDEST PUSH1 0x1F ADD PUSH1 0x20 SWAP1 DIV SWAP1 PUSH0 MSTORE PUSH1 0x20 PUSH0 KECCAK256 SWAP1 DUP2 ADD SWAP1 PUSH2 0x57E SWAP2 SWAP1 PUSH2 0x582 JUMP JUMPDEST JUMPDEST POP JUMP JUMPDEST JUMPDEST DUP1 DUP3 GT ISZERO PUSH2 0x599 JUMPI PUSH0 DUP2 PUSH0 SWAP1 SSTORE POP PUSH1 0x1 ADD PUSH2 0x583 JUMP JUMPDEST POP SWAP1 JUMP JUMPDEST PUSH0 DUP2 MLOAD SWAP1 POP SWAP2 SWAP1 POP JUMP JUMPDEST PUSH32 0x4E487B7100000000000000000000000000000000000000000000000000000000 PUSH0 MSTORE PUSH1 0x41 PUSH1 0x4 MSTORE PUSH1 0x24 PUSH0 REVERT JUMPDEST PUSH32 0x4E487B7100000000000000000000000000000000000000000000000000000000 PUSH0 MSTORE PUSH1 0x22 PUSH1 0x4 MSTORE PUSH1 0x24 PUSH0 REVERT JUMPDEST PUSH0 PUSH1 0x2 DUP3 DIV SWAP1 POP PUSH1 0x1 DUP3 AND DUP1 PUSH2 0x618 JUMPI PUSH1 0x7F DUP3 AND SWAP2 POP JUMPDEST PUSH1 0x20 DUP3 LT DUP2 SUB PUSH2 0x62B JUMPI PUSH2 0x62A PUSH2 0x5D4 JUMP JUMPDEST JUMPDEST POP SWAP2 SWAP1 POP JUMP JUMPDEST PUSH0 DUP2 SWAP1 POP DUP2 PUSH0 MSTORE PUSH1 0x20 PUSH0 KECCAK256 SWAP1 POP SWAP2 SWAP1 POP JUMP JUMPDEST PUSH0 PUSH1 0x20 PUSH1 0x1F DUP4 ADD DIV SWAP1 POP SWAP2 SWAP1 POP JUMP JUMPDEST PUSH0 DUP3 DUP3 SHL SWAP1 POP SWAP3 SWAP2 POP POP JUMP JUMPDEST PUSH0 PUSH1 0x8 DUP4 MUL PUSH2 0x68D PUSH32 0xFFFFFFFFFFFFFFFFFFFFFFFFFFFFFFFFFFFFFFFFFFFFFFFFFFFFFFFFFFFFFFFF DUP3 PUSH2 0x652 JUMP JUMPDEST PUSH2 0x697 DUP7 DUP4 PUSH2 0x652 JUMP JUMPDEST SWAP6 POP DUP1 NOT DUP5 AND SWAP4 POP DUP1 DUP7 AND DUP5 OR SWAP3 POP POP POP SWAP4 SWAP3 POP POP POP JUMP JUMPDEST PUSH0 DUP2 SWAP1 POP SWAP2 SWAP1 POP JUMP JUMPDEST PUSH0 DUP2 SWAP1 POP SWAP2 SWAP1 POP JUMP JUMPDEST PUSH0 PUSH2 0x6DB PUSH2 0x6D6 PUSH2 0x6D1 DUP5 PUSH2 0x6AF JUMP JUMPDEST PUSH2 0x6B8 JUMP JUMPDEST PUSH2 0x6AF JUMP JUMPDEST SWAP1 POP SWAP2 SWAP1 POP JUMP JUMPDEST PUSH0 DUP2 SWAP1 POP SWAP2 SWAP1 POP JUMP JUMPDEST PUSH2 0x6F4 DUP4 PUSH2 0x6C1 JUMP JUMPDEST PUSH2 0x708 PUSH2 0x700 DUP3 PUSH2 0x6E2 JUMP JUMPDEST DUP5 DUP5 SLOAD PUSH2 0x65E JUMP JUMPDEST DUP3 SSTORE POP POP POP POP JUMP JUMPDEST PUSH0 PUSH0 SWAP1 POP SWAP1 JUMP JUMPDEST PUSH2 0x71F PUSH2 0x710 JUMP JUMPDEST PUSH2 0x72A DUP2 DUP5 DUP5 PUSH2 0x6EB JUMP JUMPDEST POP POP POP JUMP JUMPDEST JUMPDEST DUP2 DUP2 LT ISZERO PUSH2 0x74D JUMPI PUSH2 0x742 PUSH0 DUP3 PUSH2 0x717 JUMP JUMPDEST PUSH1 0x1 DUP2 ADD SWAP1 POP PUSH2 0x730 JUMP JUMPDEST POP POP JUMP JUMPDEST PUSH1 0x1F DUP3 GT ISZERO PUSH2 0x792 JUMPI PUSH2 0x763 DUP2 PUSH2 0x631 JUMP JUMPDEST PUSH2 0x76C DUP5 PUSH2 0x643 JUMP JUMPDEST DUP2 ADD PUSH1 0x20 DUP6 LT ISZERO PUSH2 0x77B JUMPI DUP2 SWAP1 POP JUMPDEST PUSH2 0x78F PUSH2 0x787 DUP6 PUSH2 0x643 JUMP JUMPDEST DUP4 ADD DUP3 PUSH2 0x72F JUMP JUMPDEST POP POP JUMPDEST POP POP POP JUMP JUMPDEST PUSH0 DUP3 DUP3 SHR SWAP1 POP SWAP3 SWAP2 POP POP JUMP JUMPDEST PUSH0 PUSH2 0x7B2 PUSH0 NOT DUP5 PUSH1 0x8 MUL PUSH2 0x797 JUMP JUMPDEST NOT DUP1 DUP4 AND SWAP2 POP POP SWAP3 SWAP2 POP POP JUMP JUMPDEST PUSH0 PUSH2 0x7CA DUP4 DUP4 PUSH2 0x7A3 JUMP JUMPDEST SWAP2 POP DUP3 PUSH1 0x2 MUL DUP3 OR SWAP1 POP SWAP3 SWAP2 POP POP JUMP JUMPDEST PUSH2 0x7E3 DUP3 PUSH2 0x59D JUMP JUMPDEST PUSH8 0xFFFFFFFFFFFFFFFF DUP2 GT ISZERO PUSH2 0x7FC JUMPI PUSH2 0x7FB PUSH2 0x5A7 JUMP JUMPDEST JUMPDEST PUSH2 0x806 DUP3 SLOAD PUSH2 0x601 JUMP JUMPDEST PUSH2 0x811 DUP3 DUP3 DUP6 PUSH2 0x751 JUMP JUMPDEST PUSH0 PUSH1 0x20 SWAP1 POP PUSH1 0x1F DUP4 GT PUSH1 0x1 DUP2 EQ PUSH2 0x842 JUMPI PUSH0 DUP5 ISZERO PUSH2 0x830 JUMPI DUP3 DUP8 ADD MLOAD SWAP1 POP JUMPDEST PUSH2 0x83A DUP6 DUP3 PUSH2 0x7BF JUMP JUMPDEST DUP7 SSTORE POP PUSH2 0x8A1 JUMP JUMPDEST PUSH1 0x1F NOT DUP5 AND PUSH2 0x850 DUP7 PUSH2 0x631 JUMP JUMPDEST PUSH0 JUMPDEST DUP3 DUP2 LT ISZERO PUSH2 0x877 JUMPI DUP5 DUP10 ADD MLOAD DUP3 SSTORE PUSH1 0x1 DUP3 ADD SWAP2 POP PUSH1 0x20 DUP6 ADD SWAP5 POP PUSH1 0x20 DUP2 ADD SWAP1 POP PUSH2 0x852 JUMP JUMPDEST DUP7 DUP4 LT ISZERO PUSH2 0x894 JUMPI DUP5 DUP10 ADD MLOAD PUSH2 0x890 PUSH1 0x1F DUP10 AND DUP3 PUSH2 0x7A3 JUMP JUMPDEST DUP4 SSTORE POP JUMPDEST PUSH1 0x1 PUSH1 0x2 DUP9 MUL ADD DUP9 SSTORE POP POP POP JUMPDEST POP POP POP POP POP POP JUMP JUMPDEST PUSH2 0x7BB DUP1 PUSH2 0x8B6 PUSH0 CODECOPY PUSH0 RETURN INVALID PUSH1 0x80 PUSH1 0x40 MSTORE CALLVALUE DUP1 ISZERO PUSH2 0xF JUMPI PUSH0 PUSH0 REVERT JUMPDEST POP PUSH1 0x4 CALLDATASIZE LT PUSH2 0x3F JUMPI PUSH0 CALLDATALOAD PUSH1 0xE0 SHR DUP1 PUSH4 0x112D5C65 EQ PUSH2 0x43 JUMPI DUP1 PUSH4 0x9C8C3E80 EQ PUSH2 0x73 JUMPI DUP1 PUSH4 0xBCB4AB0E EQ PUSH2 0x91 JUMPI JUMPDEST PUSH0 PUSH0 REVERT JUMPDEST PUSH2 0x5D PUSH1 0x4 DUP1 CALLDATASIZE SUB DUP2 ADD SWAP1 PUSH2 0x58 SWAP2 SWAP1 PUSH2 0x301 JUMP JUMPDEST PUSH2 0x9B JUMP JUMPDEST PUSH1 0x40 MLOAD PUSH2 0x6A SWAP2 SWAP1 PUSH2 0x39C JUMP JUMPDEST PUSH1 0x40 MLOAD DUP1 SWAP2 SUB SWAP1 RETURN JUMPDEST PUSH2 0x7B PUSH2 0x136 JUMP JUMPDEST PUSH1 0x40 MLOAD PUSH2 0x88 SWAP2 SWAP1 PUSH2 0x39C JUMP JUMPDEST PUSH1 0x40 MLOAD DUP1 SWAP2 SUB SWAP1 RETURN JUMPDEST PUSH2 0x99 PUSH2 0x201 JUMP JUMPDEST STOP JUMPDEST PUSH1 0x1 PUSH1 0x20 MSTORE DUP1 PUSH0 MSTORE PUSH1 0x40 PUSH0 KECCAK256 PUSH0 SWAP2 POP SWAP1 POP DUP1 SLOAD PUSH2 0xB7 SWAP1 PUSH2 0x3E9 JUMP JUMPDEST DUP1 PUSH1 0x1F ADD PUSH1 0x20 DUP1 SWAP2 DIV MUL PUSH1 0x20 ADD PUSH1 0x40 MLOAD SWAP1 DUP2 ADD PUSH1 0x40 MSTORE DUP1 SWAP3 SWAP2 SWAP1 DUP2 DUP2 MSTORE PUSH1 0x20 ADD DUP3 DUP1 SLOAD PUSH2 0xE3 SWAP1 PUSH2 0x3E9 JUMP JUMPDEST DUP1 ISZERO PUSH2 0x12E JUMPI DUP1 PUSH1 0x1F LT PUSH2 0x105 JUMPI PUSH2 0x100 DUP1 DUP4 SLOAD DIV MUL DUP4 MSTORE SWAP2 PUSH1 0x20 ADD SWAP2 PUSH2 0x12E JUMP JUMPDEST DUP3 ADD SWAP2 SWAP1 PUSH0 MSTORE PUSH1 0x20 PUSH0 KECCAK256 SWAP1 JUMPDEST DUP2 SLOAD DUP2 MSTORE SWAP1 PUSH1 0x1 ADD SWAP1 PUSH1 0x20 ADD DUP1 DUP4 GT PUSH2 0x111 JUMPI DUP3 SWAP1 SUB PUSH1 0x1F AND DUP3 ADD SWAP2 JUMPDEST POP POP POP POP POP DUP2 JUMP JUMPDEST PUSH1 0x60 PUSH1 0x1 PUSH0 CALLER PUSH20 0xFFFFFFFFFFFFFFFFFFFFFFFFFFFFFFFFFFFFFFFF AND PUSH20 0xFFFFFFFFFFFFFFFFFFFFFFFFFFFFFFFFFFFFFFFF AND DUP2 MSTORE PUSH1 0x20 ADD SWAP1 DUP2 MSTORE PUSH1 0x20 ADD PUSH0 KECCAK256 DUP1 SLOAD PUSH2 0x180 SWAP1 PUSH2 0x3E9 JUMP JUMPDEST DUP1 PUSH1 0x1F ADD PUSH1 0x20 DUP1 SWAP2 DIV MUL PUSH1 0x20 ADD PUSH1 0x40 MLOAD SWAP1 DUP2 ADD PUSH1 0x40 MSTORE DUP1 SWAP3 SWAP2 SWAP1 DUP2 DUP2 MSTORE PUSH1 0x20 ADD DUP3 DUP1 SLOAD PUSH2 0x1AC SWAP1 PUSH2 0x3E9 JUMP JUMPDEST DUP1 ISZERO PUSH2 0x1F7 JUMPI DUP1 PUSH1 0x1F LT PUSH2 0x1CE JUMPI PUSH2 0x100 DUP1 DUP4 SLOAD DIV MUL DUP4 MSTORE SWAP2 PUSH1 0x20 ADD SWAP2 PUSH2 0x1F7 JUMP JUMPDEST DUP3 ADD SWAP2 SWAP1 PUSH0 MSTORE PUSH1 0x20 PUSH0 KECCAK256 SWAP1 JUMPDEST DUP2 SLOAD DUP2 MSTORE SWAP1 PUSH1 0x1 ADD SWAP1 PUSH1 0x20 ADD DUP1 DUP4 GT PUSH2 0x1DA JUMPI DUP3 SWAP1 SUB PUSH1 0x1F AND DUP3 ADD SWAP2 JUMPDEST POP POP POP POP POP SWAP1 POP SWAP1 JUMP JUMPDEST PUSH0 PUSH1 0x64 CALLER PUSH20 0xFFFFFFFFFFFFFFFFFFFFFFFFFFFFFFFFFFFFFFFF AND PUSH2 0x225 SWAP2 SWAP1 PUSH2 0x44F JUMP JUMPDEST SWAP1 POP PUSH0 PUSH0 DUP1 SLOAD SWAP1 POP DUP3 PUSH2 0x238 SWAP2 SWAP1 PUSH2 0x44F JUMP JUMPDEST SWAP1 POP PUSH0 DUP2 DUP2 SLOAD DUP2 LT PUSH2 0x24D JUMPI PUSH2 0x24C PUSH2 0x47F JUMP JUMPDEST JUMPDEST SWAP1 PUSH0 MSTORE PUSH1 0x20 PUSH0 KECCAK256 ADD PUSH1 0x1 PUSH0 CALLER PUSH20 0xFFFFFFFFFFFFFFFFFFFFFFFFFFFFFFFFFFFFFFFF AND PUSH20 0xFFFFFFFFFFFFFFFFFFFFFFFFFFFFFFFFFFFFFFFF AND DUP2 MSTORE PUSH1 0x20 ADD SWAP1 DUP2 MSTORE PUSH1 0x20 ADD PUSH0 KECCAK256 SWAP1 DUP2 PUSH2 0x29E SWAP2 SWAP1 PUSH2 0x6A0 JUMP JUMPDEST POP POP POP JUMP JUMPDEST PUSH0 PUSH0 REVERT JUMPDEST PUSH0 PUSH20 0xFFFFFFFFFFFFFFFFFFFFFFFFFFFFFFFFFFFFFFFF DUP3 AND SWAP1 POP SWAP2 SWAP1 POP JUMP JUMPDEST PUSH0 PUSH2 0x2D0 DUP3 PUSH2 0x2A7 JUMP JUMPDEST SWAP1 POP SWAP2 SWAP1 POP JUMP JUMPDEST PUSH2 0x2E0 DUP2 PUSH2 0x2C6 JUMP JUMPDEST DUP2 EQ PUSH2 0x2EA JUMPI PUSH0 PUSH0 REVERT JUMPDEST POP JUMP JUMPDEST PUSH0 DUP2 CALLDATALOAD SWAP1 POP PUSH2 0x2FB DUP2 PUSH2 0x2D7 JUMP JUMPDEST SWAP3 SWAP2 POP POP JUMP JUMPDEST PUSH0 PUSH1 0x20 DUP3 DUP5 SUB SLT ISZERO PUSH2 0x316 JUMPI PUSH2 0x315 PUSH2 0x2A3 JUMP JUMPDEST JUMPDEST PUSH0 PUSH2 0x323 DUP5 DUP3 DUP6 ADD PUSH2 0x2ED JUMP JUMPDEST SWAP2 POP POP SWAP3 SWAP2 POP POP JUMP JUMPDEST PUSH0 DUP2 MLOAD SWAP1 POP SWAP2 SWAP1 POP JUMP JUMPDEST PUSH0 DUP3 DUP3 MSTORE PUSH1 0x20 DUP3 ADD SWAP1 POP SWAP3 SWAP2 POP POP JUMP JUMPDEST DUP3 DUP2 DUP4 MCOPY PUSH0 DUP4 DUP4 ADD MSTORE POP POP POP JUMP JUMPDEST PUSH0 PUSH1 0x1F NOT PUSH1 0x1F DUP4 ADD AND SWAP1 POP SWAP2 SWAP1 POP JUMP JUMPDEST PUSH0 PUSH2 0x36E DUP3 PUSH2 0x32C JUMP JUMPDEST PUSH2 0x378 DUP2 DUP6 PUSH2 0x336 JUMP JUMPDEST SWAP4 POP PUSH2 0x388 DUP2 DUP6 PUSH1 0x20 DUP7 ADD PUSH2 0x346 JUMP JUMPDEST PUSH2 0x391 DUP2 PUSH2 0x354 JUMP JUMPDEST DUP5 ADD SWAP2 POP POP SWAP3 SWAP2 POP POP JUMP JUMPDEST PUSH0 PUSH1 0x20 DUP3 ADD SWAP1 POP DUP2 DUP2 SUB PUSH0 DUP4 ADD MSTORE PUSH2 0x3B4 DUP2 DUP5 PUSH2 0x364 JUMP JUMPDEST SWAP1 POP SWAP3 SWAP2 POP POP JUMP JUMPDEST PUSH32 0x4E487B7100000000000000000000000000000000000000000000000000000000 PUSH0 MSTORE PUSH1 0x22 PUSH1 0x4 MSTORE PUSH1 0x24 PUSH0 REVERT JUMPDEST PUSH0 PUSH1 0x2 DUP3 DIV SWAP1 POP PUSH1 0x1 DUP3 AND DUP1 PUSH2 0x400 JUMPI PUSH1 0x7F DUP3 AND SWAP2 POP JUMPDEST PUSH1 0x20 DUP3 LT DUP2 SUB PUSH2 0x413 JUMPI PUSH2 0x412 PUSH2 0x3BC JUMP JUMPDEST JUMPDEST POP SWAP2 SWAP1 POP JUMP JUMPDEST PUSH0 DUP2 SWAP1 POP SWAP2 SWAP1 POP JUMP JUMPDEST PUSH32 0x4E487B7100000000000000000000000000000000000000000000000000000000 PUSH0 MSTORE PUSH1 0x12 PUSH1 0x4 MSTORE PUSH1 0x24 PUSH0 REVERT JUMPDEST PUSH0 PUSH2 0x459 DUP3 PUSH2 0x419 JUMP JUMPDEST SWAP2 POP PUSH2 0x464 DUP4 PUSH2 0x419 JUMP JUMPDEST SWAP3 POP DUP3 PUSH2 0x474 JUMPI PUSH2 0x473 PUSH2 0x422 JUMP JUMPDEST JUMPDEST DUP3 DUP3 MOD SWAP1 POP SWAP3 SWAP2 POP POP JUMP JUMPDEST PUSH32 0x4E487B7100000000000000000000000000000000000000000000000000000000 PUSH0 MSTORE PUSH1 0x32 PUSH1 0x4 MSTORE PUSH1 0x24 PUSH0 REVERT JUMPDEST PUSH0 DUP2 SLOAD SWAP1 POP PUSH2 0x4BA DUP2 PUSH2 0x3E9 JUMP JUMPDEST SWAP1 POP SWAP2 SWAP1 POP JUMP JUMPDEST PUSH32 0x4E487B7100000000000000000000000000000000000000000000000000000000 PUSH0 MSTORE PUSH1 0x41 PUSH1 0x4 MSTORE PUSH1 0x24 PUSH0 REVERT JUMPDEST PUSH0 DUP2 SWAP1 POP DUP2 PUSH0 MSTORE PUSH1 0x20 PUSH0 KECCAK256 SWAP1 POP SWAP2 SWAP1 POP JUMP JUMPDEST PUSH0 DUP2 SWAP1 POP DUP2 PUSH0 MSTORE PUSH1 0x20 PUSH0 KECCAK256 SWAP1 POP SWAP2 SWAP1 POP JUMP JUMPDEST PUSH0 PUSH1 0x20 PUSH1 0x1F DUP4 ADD DIV SWAP1 POP SWAP2 SWAP1 POP JUMP JUMPDEST PUSH0 DUP3 DUP3 SHL SWAP1 POP SWAP3 SWAP2 POP POP JUMP JUMPDEST PUSH0 PUSH1 0x8 DUP4 MUL PUSH2 0x55C PUSH32 0xFFFFFFFFFFFFFFFFFFFFFFFFFFFFFFFFFFFFFFFFFFFFFFFFFFFFFFFFFFFFFFFF DUP3 PUSH2 0x521 JUMP JUMPDEST PUSH2 0x566 DUP7 DUP4 PUSH2 0x521 JUMP JUMPDEST SWAP6 POP DUP1 NOT DUP5 AND SWAP4 POP DUP1 DUP7 AND DUP5 OR SWAP3 POP POP POP SWAP4 SWAP3 POP POP POP JUMP JUMPDEST PUSH0 DUP2 SWAP1 POP SWAP2 SWAP1 POP JUMP JUMPDEST PUSH0 PUSH2 0x5A1 PUSH2 0x59C PUSH2 0x597 DUP5 PUSH2 0x419 JUMP JUMPDEST PUSH2 0x57E JUMP JUMPDEST PUSH2 0x419 JUMP JUMPDEST SWAP1 POP SWAP2 SWAP1 POP JUMP JUMPDEST PUSH0 DUP2 SWAP1 POP SWAP2 SWAP1 POP JUMP JUMPDEST PUSH2 0x5BA DUP4 PUSH2 0x587 JUMP JUMPDEST PUSH2 0x5CE PUSH2 0x5C6 DUP3 PUSH2 0x5A8 JUMP JUMPDEST DUP5 DUP5 SLOAD PUSH2 0x52D JUMP JUMPDEST DUP3 SSTORE POP POP POP POP JUMP JUMPDEST PUSH0 PUSH0 SWAP1 POP SWAP1 JUMP JUMPDEST PUSH2 0x5E5 PUSH2 0x5D6 JUMP JUMPDEST PUSH2 0x5F0 DUP2 DUP5 DUP5 PUSH2 0x5B1 JUMP JUMPDEST POP POP POP JUMP JUMPDEST JUMPDEST DUP2 DUP2 LT ISZERO PUSH2 0x613 JUMPI PUSH2 0x608 PUSH0 DUP3 PUSH2 0x5DD JUMP JUMPDEST PUSH1 0x1 DUP2 ADD SWAP1 POP PUSH2 0x5F6 JUMP JUMPDEST POP POP JUMP JUMPDEST PUSH1 0x1F DUP3 GT ISZERO PUSH2 0x658 JUMPI PUSH2 0x629 DUP2 PUSH2 0x4EE JUMP JUMPDEST PUSH2 0x632 DUP5 PUSH2 0x512 JUMP JUMPDEST DUP2 ADD PUSH1 0x20 DUP6 LT ISZERO PUSH2 0x641 JUMPI DUP2 SWAP1 POP JUMPDEST PUSH2 0x655 PUSH2 0x64D DUP6 PUSH2 0x512 JUMP JUMPDEST DUP4 ADD DUP3 PUSH2 0x5F5 JUMP JUMPDEST POP POP JUMPDEST POP POP POP JUMP JUMPDEST PUSH0 DUP3 DUP3 SHR SWAP1 POP SWAP3 SWAP2 POP POP JUMP JUMPDEST PUSH0 PUSH2 0x678 PUSH0 NOT DUP5 PUSH1 0x8 MUL PUSH2 0x65D JUMP JUMPDEST NOT DUP1 DUP4 AND SWAP2 POP POP SWAP3 SWAP2 POP POP JUMP JUMPDEST PUSH0 PUSH2 0x690 DUP4 DUP4 PUSH2 0x669 JUMP JUMPDEST SWAP2 POP DUP3 PUSH1 0x2 MUL DUP3 OR SWAP1 POP SWAP3 SWAP2 POP POP JUMP JUMPDEST DUP2 DUP2 SUB PUSH2 0x6AE JUMPI POP POP PUSH2 0x783 JUMP JUMPDEST PUSH2 0x6B7 DUP3 PUSH2 0x4AC JUMP JUMPDEST PUSH8 0xFFFFFFFFFFFFFFFF DUP2 GT ISZERO PUSH2 0x6D0 JUMPI PUSH2 0x6CF PUSH2 0x4C1 JUMP JUMPDEST JUMPDEST PUSH2 0x6DA DUP3 SLOAD PUSH2 0x3E9 JUMP JUMPDEST PUSH2 0x6E5 DUP3 DUP3 DUP6 PUSH2 0x617 JUMP JUMPDEST PUSH0 PUSH1 0x1F DUP4 GT PUSH1 0x1 DUP2 EQ PUSH2 0x712 JUMPI PUSH0 DUP5 ISZERO PUSH2 0x700 JUMPI DUP3 DUP8 ADD SLOAD SWAP1 POP JUMPDEST PUSH2 0x70A DUP6 DUP3 PUSH2 0x685 JUMP JUMPDEST DUP7 SSTORE POP PUSH2 0x77C JUMP JUMPDEST PUSH1 0x1F NOT DUP5 AND PUSH2 0x720 DUP8 PUSH2 0x500 JUMP JUMPDEST SWAP7 POP PUSH2 0x72B DUP7 PUSH2 0x4EE JUMP JUMPDEST PUSH0 JUMPDEST DUP3 DUP2 LT ISZERO PUSH2 0x752 JUMPI DUP5 DUP10 ADD SLOAD DUP3 SSTORE PUSH1 0x1 DUP3 ADD SWAP2 POP PUSH1 0x1 DUP6 ADD SWAP5 POP PUSH1 0x20 DUP2 ADD SWAP1 POP PUSH2 0x72D JUMP JUMPDEST DUP7 DUP4 LT ISZERO PUSH2 0x76F JUMPI DUP5 DUP10 ADD SLOAD PUSH2 0x76B PUSH1 0x1F DUP10 AND DUP3 PUSH2 0x669 JUMP JUMPDEST DUP4 SSTORE POP JUMPDEST PUSH1 0x1 PUSH1 0x2 DUP9 MUL ADD DUP9 SSTORE POP POP POP JUMPDEST POP POP POP POP POP POP JUMPDEST JUMP INVALID LOG2 PUSH5 0x6970667358 0x22 SLT KECCAK256 0x25 EOFCREATE 0x19 0xB7 EXTCALL 0x1E 0xEB 0x2A MSTORE JUMPF 0xF06D EXTSTATICCALL CREATE2 0xF6 SHL EXTSTATICCALL MLOAD PUSH29 0x79B84D13A7F1CE18D891341C9E64736F6C634300081E00330000000000 "
		},
		"gasEstimates": {
			"creation": {
				"codeDepositCost": "395800",
				"executionCost": "infinite",
				"totalCost": "infinite"
			},
			"external": {
				"getMyTeam()": "infinite",
				"userTeam(address)": "infinite",
				"write()": "infinite"
			}
		},
		"methodIdentifiers": {
			"getMyTeam()": "9c8c3e80",
			"userTeam(address)": "112d5c65",
			"write()": "bcb4ab0e"
		}
	},
	"abi": [
		{
			"inputs": [],
			"name": "getMyTeam",
			"outputs": [
				{
					"internalType": "string",
					"name": "",
					"type": "string"
				}
			],
			"stateMutability": "view",
			"type": "function"
		},
		{
			"inputs": [
				{
					"internalType": "address",
					"name": "",
					"type": "address"
				}
			],
			"name": "userTeam",
			"outputs": [
				{
					"internalType": "string",
					"name": "",
					"type": "string"
				}
			],
			"stateMutability": "view",
			"type": "function"
		},
		{
			"inputs": [],
			"name": "write",
			"outputs": [],
			"stateMutability": "nonpayable",
			"type": "function"
		}
	]
}